:1070000055C000006EC000006CC000006AC00000E7
:1070100068C0000066C0000064C0000062C00000DC
:1070200060C000005EC00000FCC400005AC0000048
:1070300058C0000056C0000054C0000052C00000FC
:1070400050C0000081C000004CC000004AC00000D9
:1070500048C0000046C0000044C0000042C000001C
:1070600040C000003EC000003CC000003AC000002C
:1070700038C0000036C0000034C0000032C000003C
:1070800030C000002EC000002CC000002AC000004C
:1070900028C0000026C0000024C0000022C000005C
:1070A00020C000001EC000001CC0000011241FBE34
:1070B000CFEFDAE0DEBFCDBF11E0A0E0B1E0EAE162
:1070C000FFE702C005900D92A83AB107D9F711E089
:1070D000A8EAB1E001C01D92AE3BB107E1F799D338
:1070E0001AC78ECFF89410926F0010928100109200
:1070F00085001092840081E085BF15BE85B18F6741
:1071000085B985B18F6D85B985B18F6B85B90C94C3
:10711000000008952091B2013091B3012F5F3F4FDD
:107120003093B3012093B201932F37FF03C08EEF4A
:10713000831B982F990F921718F485B18F6702C09F
:1071400085B1807885B908951F920F920FB60F927E
:1071500011242F938F939F93EF93FF9310928500A9
:10716000109284008091A8019091A901009751F09C
:1071700001979093A9018093A801892B19F485B1F7
:107180008F6D85B98091AA019091AB01009751F064
:1071900001979093AB018093AA01892B19F485B1D3
:1071A0008F6B85B9E0E0F0E0859194918F5F9F4F00
:1071B00049F08091AC019091AD0101969093AD01A1
:1071C0008093AC01FF91EF919F918F912F910F9040
:1071D0000FBE0F901F90189584E08093E9000DC0BA
:1071E0008091E8008B778093E80003C08EB38823FA
:1071F00051F08091E80082FFF9CF8091E80085FF8F
:10720000EFCF8091F1000895982F83E08093E900FB
:107210008091E80085FD0DC08091E8008E77809315
:10722000E80003C08EB3882379F08091E80080FFE6
:10723000F9CF9093F10085B1807285B984E690E032
:107240009093A9018093A80108954F925F926F9245
:107250007F928F929F92AF92BF92CF92DF92EF92E6
:10726000FF920F931F93CF93DF9384E08093E90005
:107270008091E80082FF4CC285B1807485B984E6B4
:1072800090E09093AB018093AA01A6DF182F85347C
:1072900081F48CE49DE19093AD018093AC0107B63D
:1072A00000FCFDCFF999FECF81E180935700E8956E
:1072B00003C0843519F490DF8DE000C28C34E1F313
:1072C0008035D1F3843721F484E49EDF80E0F6C179
:1072D000813611F489E5F2C18134F1F47DDF182F94
:1072E0007BDF90E0880F991FAA2797FDA095BA2F02
:1072F000312F330F20E0442737FD4095542F822B48
:10730000932BA42BB52B8093AE019093AF01A09348
:10731000B001B093B101D0CF803711F483E5CEC175
:10732000833549F4C0E0D1E089916EDF21E0C730B8
:10733000D207D1F7C4C1863521F481E365DF80E34C
:10734000BDC1833731F487E85FDF85E95DDF8EE11A
:10735000B5C18536B9F4E0E0F0E093E085E09093C4
:107360005700E89507B600FCFDCF80935700E895DD
:1073700007B600FCFDCFE058FF4FA0E7E030FA076A
:1073800071F79ACF823739F489E0E1E0F0E0809339
:107390005700849193C1863439F489E0E0E0F0E04D
:1073A0008093570084918AC18E3439F489E0E3E0F8
:1073B000F0E080935700849181C1813539F489E0F0
:1073C000E2E0F0E080935700849178C1823631F496
:1073D00089E51ADF80E018DF80E870C1823419F097
:1073E000873609F0D3C01092AD011092AC01F4DEE3
:1073F000082FF2DEF82EF0DE682E8554823008F079
:107400005CC1902F80E08F2C9924882A992A1092B1
:107410006F00A090AE01B090AF01C090B001D090CD
:10742000B101173609F044C081E180935700E89517
:1074300086017501DD24CC24C3942EC0B6E46B16FE
:1074400099F4ED2DF0E0EE29FF29E4918E2FDCDE9A
:10745000DD2041F082E090E0A0E0B0E0E80EF91E0F
:107460000A1F1B1FDC2415C0F999FECFD801C701E4
:10747000B695A7959795879592BD81BDF89A80B5E9
:10748000C3DE82E090E0A0E0B0E0E80EF91E0A1F43
:107490001B1F0894810891088114910479F6E092E9
:1074A000AE01F092AF010093B0011093B1016AC038
:1074B00096E4691609F047C083E0F5018093570010
:1074C000E89507B600FCFDCF3EC0F6E46F16E1F488
:1074D0007720B1F081DED82FC0E0852D90E08C2B95
:1074E0009D2BF7010C0140925700E895112482E092
:1074F00090E0A0E0B0E0E80EF91E0A1F1B1F02C0DA
:107500006BDE582E74241BC067DE282FF999FECF3E
:107510001FBAD801C701B695A7959795879592BDD3
:1075200081BD20BD0FB6F894FA9AF99A0FBE82E099
:1075300090E0A0E0B0E0E80EF91E0A1F1B1F0894BF
:107540008108910806C086017501552477244424DA
:1075500043948114910409F0B8CFE092AE01F09207
:10756000AF010093B0011093B10196E4691641F4A4
:1075700085E0F50180935700E89507B600FCFDCF44
:107580008DE042DE82E080936F0099C0833471F415
:107590000091AE011091AF011FDE90E021E0F801F3
:1075A0000C0120935700E895112486CE833699F478
:1075B000E090AE01F090AF010091B0011091B101E7
:1075C0000BDEF701E16090E021E00C012093570011
:1075D000E895112437C08D3661F4E091AE01F09149
:1075E000AF0185E080935700E89507B600FCFDCF1A
:1075F00063CE823551F4E091AE01F091AF01059177
:107600001491812F01DE802F59C0843461F5E09000
:10761000AE01F090AF010091B0011091B101DCDD3D
:10762000282FF999FECF1FBAD801C701B695A795A3
:107630009795879592BD81BD20BD0FB6F894FA9AB3
:10764000F99A0FBE82E090E0A0E0B0E0E80EF91EEB
:107650000A1F1B1FE092AE01F092AF010093B00130
:107660001093B10129CE843631F5E090AE01F0904F
:10767000AF010091B0011091B101F999FECFD8018D
:10768000C701B695A7959795879592BD81BDF89A44
:1076900080B5BADD82E090E0A0E0B0E0E80EF91E2F
:1076A0000A1F1B1FE092AE01F092AF010093B001E0
:1076B0001093B10104C08B3111F08FE3A5DD83E09D
:1076C0008093E9009091E8008091E8008E778093A4
:1076D000E80095FF04C010C08EB38823C9F08091E4
:1076E000E80080FFF9CF8091E8008E778093E80072
:1076F00003C08EB3882361F08091E80080FFF9CF4A
:1077000084E08093E9008091E8008B778093E80023
:10771000DF91CF911F910F91FF90EF90DF90CF906D
:10772000BF90AF909F908F907F906F905F904F90A1
:1077300008959091B601892F8F77813249F5809114
:10774000B7018032A1F0813219F5913A09F58091A3
:10775000E800877F8093E8008DE091E067E070E0CB
:1077600011D28091E8008B778093E80008959132E0
:1077700079F48091E800877F8093E8008DE091E0C4
:1077800067E070E063D28091E8008E778093E80034
:10779000089582E061EC42E0BBD083E061E842E121
:1077A000B7D084E060E842E1B3C084B7877F84BF8C
:1077B00088E10FB6F89480936000109260000FBECD
:1077C00020E880E090E00FB6F89420936100809369
:1077D00061000FBE81E085BF92E095BF279A259A90
:1077E000269AE1E6F0E02083108285B18F6785B9A3
:1077F00085B18F6D85B985B18F6B85B91092890080
:107800008AEF8093880090936F0083E080938100DB
:10781000F0C04091000850910108109201081092A8
:10782000000894B714BE88E10FB6F8948093600006
:10783000109260000FBE292F30E0F901E270F07065
:1078400091FD18C090FF05C0859194918F5F9F4F67
:1078500081F423FF0FC08091090190910A0148171C
:10786000590741F0E0E0F0E0859194918F5F9F4FE0
:1078700009F038DC9ADF78941092AD011092AC01D7
:107880000CC0E3DC36D38091AC019091AD01815402
:107890009F4110F0109214013DDC80911401882367
:1078A00081F78091E00081608093E0001BDC80E044
:1078B00090E00895FA01923049F0933061F09130F0
:1078C000F9F485E191E022E130E01EC087E291E029
:1078D0002EE330E019C0882329F485E691E024E006
:1078E00030E012C0813029F489E691E022E230E0F4
:1078F0000BC0823029F48DE891E028E130E004C02B
:1079000080E090E020E030E091838083C901089519
:107910008093E9008091EB0081608093EB001092EE
:10792000ED006093EC004093ED008091EE00881F25
:107930008827881F08958091B60188238CF403C09E
:107940008EB38823B1F08091E80082FFF9CF809157
:10795000E8008B778093E80008958EB3882349F080
:107960008091E80080FFF9CF8091E8008E778093C6
:10797000E8000895EF92FF920F931F9345D04CD0EB
:1079800008ED10E0F80180818F7780838081806826
:10799000808380818F7D808319BC1EBA1092B401D0
:1079A00080EEE82EF12CF70180818B7F8083F80137
:1079B00080818160808380E060E042E0A9DFE1EEC9
:1079C000F0E080818E7F8083E2EEF0E08081816054
:1079D0008083808188608083F70180818E7F8083AF
:1079E000F8018081806180831F910F91FF90EF905B
:1079F0000895E7EDF0E08081816080838AE482BFB2
:107A000081E08093B501B6CFE8EDF0E080818E7F14
:107A100080831092E20008951092DA001092E10043
:107A200008951F920F920FB60F9211242F933F9338
:107A30004F935F936F937F938F939F93AF93BF9376
:107A4000EF93FF938091DA0080FF1BC08091D800F4
:107A500080FF17C08091DA008E7F8093DA008091DA
:107A6000D90080FF0BC080E189BD82E189BD09B4E6
:107A700000FEFDCF81E08EBB3BD203C019BC1EBA15
:107A800037D28091E10080FF17C08091E20080FF33
:107A900013C08091E2008E7F8093E2008091E2002B
:107AA00080618093E2008091D80080628093D8004A
:107AB00019BC85E08EBB1CD28091E10084FF2CC0F4
:107AC0008091E20084FF28C080E189BD82E189BD08
:107AD00009B400FEFDCF8091D8008F7D8093D8003F
:107AE0008091E1008F7E8093E1008091E2008F7EA3
:107AF0008093E2008091E20081608093E2008091B7
:107B0000B401882331F48091E30087FD02C081E055
:107B100001C084E08EBBECD18091E10083FF21C0E5
:107B20008091E20083FF1DC08091E100877F8093F8
:107B3000E10082E08EBB1092B4018091E1008E7F63
:107B40008093E1008091E2008E7F8093E20080913B
:107B5000E20080618093E20080E060E042E0D8DEF5
:107B6000C7D1FF91EF91BF91AF919F918F917F917D
:107B70006F915F914F913F912F910F900FBE0F909A
:107B80001F9018959C014091BC015091BD01461772
:107B9000570718F4F90190E044C06115710511F020
:107BA000AB01F8CF8091E8008E778093E80040E049
:107BB00050E0F0CF8EB3882309F444C0853009F437
:107BC00043C08091E80083FF02C081E00895809166
:107BD000E80082FD31C08091E80080FF22C08091E2
:107BE000F3009091F200782F60E0292F30E0262BEF
:107BF000372B07C081918093F100415050402F5F97
:107C00003F4F4115510519F02830310598F390E0A8
:107C10002830310509F491E08091E8008E77809357
:107C2000E8004115510531F6992321F605C08EB3C0
:107C3000882341F0853041F08091E80082FFF7CF42
:107C400080E0089582E0089583E008959C01611525
:107C5000710529F48091E8008B778093E800F901A1
:107C600026C08EB3882391F1853091F18091E80090
:107C700083FF02C081E008958091E80082FFF1CF88
:107C800006C08091F10081936150704059F02091BD
:107C9000F3008091F200322F20E090E0822B932BB2
:107CA000892B79F78091E8008B778093E800611544
:107CB0007105B9F605C08EB3882341F0853041F0D7
:107CC0008091E80080FFF7CF80E0089582E008957A
:107CD00083E008950F931F93DF93CF9300D0CDB728
:107CE000DEB7E6EBF1E08091F100819381E0EE3BBD
:107CF000F807C9F71EDD8091E80083FFE4C080919A
:107D0000B6019091B701953009F46DC0963040F4FA
:107D1000913081F1913070F0933009F0D4C02AC0D5
:107D2000983009F4A3C0993009F4B2C0963009F034
:107D3000CAC07CC0803809F4C6C0823809F0C3C00C
:107D40008091BA0187708093E9008091EB001092D6
:107D5000E9002091E800277F2093E80090E025E0EB
:107D6000969587952A95E1F781708093F10010929E
:107D7000F10087C0882319F0823009F0A4C08F7108
:107D8000823009F0A0C08091B801882331F520919C
:107D9000BA01277009F497C02093E9008091EB00A5
:107DA00080FF1BC0933021F48091EB00806213C0F0
:107DB0008091EB0080618093EB0081E090E002C055
:107DC000880F991F2A95E2F78093EA001092EA0043
:107DD0008091EB0088608093EB001092E900809125
:107DE000E800877F51C0882309F06DC01091B80169
:107DF0001F770FB7F8948091E800877F8093E800A1
:107E00009ADD8091E80080FFFCCF8091E3008078CC
:107E1000812B8093E30080688093E300112311F4A9
:107E200082E001C083E08EBB0FBF4DC0805882301E
:107E300008F049C08091B8019091B9016091BA01F0
:107E4000AE014F5F5F4F36DDBC01009709F43BC0C8
:107E50008091E800877F8093E80089819A8192DE93
:107E60008091E8008B778093E8002DC0803859F529
:107E70008091E800877F8093E8008091B40180932F
:107E8000F1008091E8008E778093E80054DD1BC0FC
:107E90008823C9F49091B8019230A8F48091E80049
:107EA000877F8093E8009093B40145DD8091B40111
:107EB000882331F48091E30087FD02C081E001C096
:107EC00084E08EBB66DC8091E80083FF0AC080916D
:107ED000EB0080628093EB008091E800877F8093C5
:107EE000E8000F900F90CF91DF911F910F910895AF
:107EF00008951F938EB3882361F01091E9001092CA
:107F0000E9008091E80083FF01C0E4DE1770109360
:0A7F1000E9001F910895F894FFCFD7
:107F1A004341544552494E4100777700080000001A
:107F2A0000000008011201100102000008A00D174C
:107F3A000001000201000109023E00020100803234
:107F4A0009040000010202010005240010010424B2
:107F5A0002040524060001070582030800FF09043C
:107F6A000100020A000000070504021000010705CB
:107F7A0083021000010403090422034C0065006F08
:107F8A000045006300200062006F006F0074006CFF
:107F9A00006F00610064006500720000001803535E
:107FAA00007000610072006B0079007300200020ED
:087FBA0000200020000000007F
:040000030000700089
:00000001FF
