:1070000055C000006EC000006CC000006AC00000E7
:1070100068C0000066C0000064C0000062C00000DC
:1070200060C000005EC00000FCC400005AC0000048
:1070300058C0000056C0000054C0000052C00000FC
:1070400050C0000081C000004CC000004AC00000D9
:1070500048C0000046C0000044C0000042C000001C
:1070600040C000003EC000003CC000003AC000002C
:1070700038C0000036C0000034C0000032C000003C
:1070800030C000002EC000002CC000002AC000004C
:1070900028C0000026C0000024C0000022C000005C
:1070A00020C000001EC000001CC0000011241FBE34
:1070B000CFEFDAE0DEBFCDBF11E0A0E0B1E0EAE162
:1070C000FFE702C005900D92A83AB107D9F711E089
:1070D000A8EAB1E001C01D92AE3BB107E1F799D338
:1070E0001AC78ECFF89410926F0010928100109200
:1070F00085001092840081E085BF15BE85B18F6741
:1071000085B985B18F6D85B985B18F6B85B90C94C3
:10711000000008952091B2013091B3012F5F3F4FDD
:107120003093B3012093B201932F37FF03C08EEF4A
:10713000831B982F990F921718F485B18F6702C09F
:1071400085B1807885B908951F920F920FB60F927E
:1071500011242F938F939F93EF93FF9310928500A9
:10716000109284008091A8019091A901009751F09C
:1071700001979093A9018093A801892B19F485B1F7
:107180008F6D85B98091AA019091AB01009751F064
:1071900001979093AB018093AA01892B19F485B1D3
:1071A0008F6B85B9E0E0F0E0859194918F5F9F4F00
:1071B00049F08091AC019091AD0101969093AD01A1
:1071C0008093AC01FF91EF919F918F912F910F9040
:1071D0000FBE0F901F90189584E08093E9000DC0BA
:1071E0008091E8008B778093E80003C08EB38823FA
:1071F00051F08091E80082FFF9CF8091E80085FF8F
:10720000EFCF8091F1000895982F83E08093E900FB
:107210008091E80085FD0DC08091E8008E77809315
:10722000E80003C08EB3882379F08091E80080FFE6
:10723000F9CF9093F10085B1807285B984E690E032
:107240009093A9018093A80108954F925F926F9245
:107250007F928F929F92AF92BF92CF92DF92EF92E6
:10726000FF920F931F93CF93DF9384E08093E90005
:107270008091E80082FF4CC285B1807485B984E6B4
:1072800090E09093AB018093AA01A6DF182F85347C
:1072900081F48CE49DE19093AD018093AC0107B63D
:1072A00000FCFDCFF999FECF81E180935700E8956E
:1072B00003C0843519F490DF8DE000C28C34E1F313
:1072C0008035D1F3843721F484E49EDF80E0F6C179
:1072D000813611F489E5F2C18134F1F47DDF182F94
:1072E0007BDF90E0880F991FAA2797FDA095BA2F02
:1072F000312F330F20E0442737FD4095542F822B48
:10730000932BA42BB52B8093AE019093AF01A09348
:10731000B001B093B101D0CF803711F483E5CEC175
:10732000833549F4C0E0D1E089916EDF21E0C730B8
:10733000D207D1F7C4C1863521F481E365DF80E34C
:10734000BDC1833731F487E85FDF85E95DDF8EE11A
:10735000B5C18536B9F4E0E0F0E093E085E09093C4
:107360005700E89507B600FCFDCF80935700E895DD
:1073700007B600FCFDCFE058FF4FA0E7E030FA076A
:1073800071F79ACF823739F489E0E1E0F0E0809339
:107390005700849193C1863439F489E0E0E0F0E04D
:1073A0008093570084918AC18E3439F489E0E3E0F8
:1073B000F0E080935700849181C1813539F489E0F0
:1073C000E2E0F0E080935700849178C1823631F496
:1073D00089E51ADF80E018DF80E870C1823419F097
:1073E000873609F0D3C01092AD011092AC01F4DEE3
:1073F000082FF2DEF82EF0DE682E8554823008F079
:107400005CC1902F80E08F2C9924882A992A1092B1
:107410006F00A090AE01B090AF01C090B001D090CD
:10742000B101173609F044C081E180935700E89517
:1074300086017501DD24CC24C3942EC0B6E46B16FE
:1074400099F4ED2DF0E0EE29FF29E4918E2FDCDE9A
:10745000DD2041F082E090E0A0E0B0E0E80EF91E0F
:107460000A1F1B1FDC2415C0F999FECFD801C701E4
:10747000B695A7959795879592BD81BDF89A80B5E9
:10748000C3DE82E090E0A0E0B0E0E80EF91E0A1F43
:107490001B1F0894810891088114910479F6E092E9
:1074A000AE01F092AF010093B0011093B1016AC038
:1074B00096E4691609F047C083E0F5018093570010
:1074C000E89507B600FCFDCF3EC0F6E46F16E1F488
:1074D0007720B1F081DED82FC0E0852D90E08C2B95
:1074E0009D2BF7010C0140925700E895112482E092
:1074F00090E0A0E0B0E0E80EF91E0A1F1B1F02C0DA
:107500006BDE582E74241BC067DE282FF999FECF3E
:107510001FBAD801C701B695A7959795879592BDD3
:1075200081BD20BD0FB6F894FA9AF99A0FBE82E099
:1075300090E0A0E0B0E0E80EF91E0A1F1B1F0894BF
:107540008108910806C086017501552477244424DA
:1075500043948114910409F0B8CFE092AE01F09207
:10756000AF010093B0011093B10196E4691641F4A4
:1075700085E0F50180935700E89507B600FCFDCF44
:107580008DE042DE82E080936F0099C0833471F415
:107590000091AE011091AF011FDE90E021E0F801F3
:1075A0000C0120935700E895112486CE833699F478
:1075B000E090AE01F090AF010091B0011091B101E7
:1075C0000BDEF701E16090E021E00C012093570011
:1075D000E895112437C08D3661F4E091AE01F09149
:1075E000AF0185E080935700E89507B600FCFDCF1A
:1075F00063CE823551F4E091AE01F091AF01059177
:107600001491812F01DE802F59C0843461F5E09000
:10761000AE01F090AF010091B0011091B101DCDD3D
:10762000282FF999FECF1FBAD801C701B695A795A3
:107630009795879592BD81BD20BD0FB6F894FA9AB3
:10764000F99A0FBE82E090E0A0E0B0E0E80EF91EEB
:107650000A1F1B1FE092AE01F092AF010093B00130
:107660001093B10129CE843631F5E090AE01F0904F
:10767000AF010091B0011091B101F999FECFD8018D
:10768000C701B695A7959795879592BD81BDF89A44
:1076900080B5BADD82E090E0A0E0B0E0E80EF91E2F
:1076A0000A1F1B1FE092AE01F092AF010093B001E0
:1076B0001093B10104C08B3111F08FE3A5DD83E09D
:1076C0008093E9009091E8008091E8008E778093A4
:1076D000E80095FF04C010C08EB38823C9F08091E4
:1076E000E80080FFF9CF8091E8008E778093E80072
:1076F00003C08EB3882361F08091E80080FFF9CF4A
:1077000084E08093E9008091E8008B778093E80023
:10771000DF91CF911F910F91FF90EF90DF90CF906D
:10772000BF90AF909F908F907F906F905F904F90A1
:1077300008959091B601892F8F77813249F5809114
:10774000B7018032A1F0813219F5913A09F58091A3
:10775000E800877F8093E8008DE091E067E070E0CB
:1077600011D28091E8008B778093E80008959132E0
:1077700079F48091E800877F8093E8008DE091E0C4
:1077800067E070E063D28091E8008E778093E80034
:10779000089582E061EC42E0BBD083E061E842E121
:1077A000B7D084E060E842E1B3C084B7877F84BF8C
:1077B00088E10FB6F89480936000109260000FBECD
:1077C00020E880E090E00FB6F89420936100809369
:1077D00061000FBE81E085BF92E095BF279A259A90
:1077E000269AE1E6F0E02083108285B18F6785B9A3
:1077F00085B18F6D85B985B18F6B85B91092890080
:107800008AEF8093880090936F0083E080938100DB
:10781000F0C04091000850910108109201081092A8
:10782000000894B714BE88E10FB6F8948093600006
:10783000109260000FBE292F30E0F901E270F07065
:1078400091FD18C090FF05C0859194918F5F9F4F67
:1078500081F423FF0FC08091090190910A0148171C
:10786000590741F0E0E0F0E0859194918F5F9F4FE0
:1078700009F038DC9ADF78941092AD011092AC01D7
:107880000CC0E3DC36D38091AC019091AD01815402
:107890009F4110F0109214013DDC80911401882367
:1078A00081F78091E00081608093E0001BDC80E044
:1078B00090E00895FA01923049F0933061F09130F0
:1078C000F9F485E191E022E130E01EC087E291E029
:1078D0002EE330E019C0882329F485E691E024E006
:1078E00030E012C0813029F489E691E022E230E0F4
:1078F0000BC0823029F48DE891E028E130E004C02B
:1079000080E090E020E030E091838083C901089519
:107910008093E9008091EB0081608093EB001092EE
:10792000ED006093EC004093ED008091EE00881F25
:107930008827881F08958091B60188238CF403C09E
:107940008EB38823B1F08091E80082FFF9CF809157
:10795000E8008B778093E80008958EB3882349F080
:107960008091E80080FFF9CF8091E8008E778093C6
:10797000E8000895EF92FF920F931F9345D04CD0EB
:1079800008ED10E0F80180818F7780838081806826
:10799000808380818F7D808319BC1EBA1092B401D0
:1079A00080EEE82EF12CF70180818B7F8083F80137
:1079B00080818160808380E060E042E0A9DFE1EEC9
:1079C000F0E080818E7F8083E2EEF0E08081816054
:1079D0008083808188608083F70180818E7F8083AF
:1079E000F8018081806180831F910F91FF90EF905B
:1079F0000895E7EDF0E08081816080838AE482BFB2
:107A000081E08093B501B6CFE8EDF0E080818E7F14
:107A100080831092E20008951092DA001092E10043
:107A200008951F920F920FB60F9211242F933F9338
:107A30004F935F936F937F938F939F93AF93BF9376
:107A4000EF93FF938091DA0080FF1BC08091D800F4
:107A500080FF17C08091DA008E7F8093DA008091DA
:107A6000D90080FF0BC080E189BD82E189BD09B4E6
:107A700000FEFDCF81E08EBB3BD203C019BC1EBA15
:107A800037D28091E10080FF17C08091E20080FF33
:107A900013C08091E2008E7F8093E2008091E2002B
:107AA00080618093E2008091D80080628093D8004A
:107AB00019BC85E08EBB1CD28091E10084FF2CC0F4
:107AC0008091E20084FF28C080E189BD82E189BD08
:107AD00009B400FEFDCF8091D8008F7D8093D8003F
:107AE0008091E1008F7E8093E1008091E2008F7EA3
:107AF0008093E2008091E20081608093E2008091B7
:107B0000B401882331F48091E30087FD02C081E055
:107B100001C084E08EBBECD18091E10083FF21C0E5
:107B20008091E20083FF1DC08091E100877F8093F8
:107B3000E10082E08EBB1092B4018091E1008E7F63
:107B40008093E1008091E2008E7F8093E20080913B
:107B5000E20080618093E20080E060E042E0D8DEF5
:107B6000C7D1FF91EF91BF91AF919F918F917F917D
:107B70006F915F914F913F912F910F900FBE0F909A
:107B80001F9018959C014091BC015091BD01461772
:107B9000570718F4F90190E044C06115710511F020
:107BA000AB01F8CF8091E8008E778093E80040E049
:107BB00050E0F0CF8EB3882309F444C0853009F437
:107BC00043C08091E80083FF02C081E00895809166
:107BD000E80082FD31C08091E80080FF22C08091E2
:107BE000F3009091F200782F60E0292F30E0262BEF
:107BF000372B07C081918093F100415050402F5F97
:107C00003F4F4115510519F02830310598F390E0A8
:107C10002830310509F491E08091E8008E77809357
:107C2000E8004115510531F6992321F605C08EB3C0
:107C3000882341F0853041F08091E80082FFF7CF42
:107C400080E0089582E0089583E008959C01611525
:107C5000710529F48091E8008B778093E800F901A1
:107C600026C08EB3882391F1853091F18091E80090
:107C700083FF02C081E008958091E80082FFF1CF88
:107C800006C08091F10081936150704059F02091BD
:107C9000F3008091F200322F20E090E0822B932BB2
:107CA000892B79F78091E8008B778093E800611544
:107CB0007105B9F605C08EB3882341F0853041F0D7
:107CC0008091E80080FFF7CF80E0089582E008957A
:107CD00083E008950F931F93DF93CF9300D0CDB728
:107CE000DEB7E6EBF1E08091F100819381E0EE3BBD
:107CF000F807C9F71EDD8091E80083FFE4C080919A
:107D0000B6019091B701953009F46DC0963040F4FA
:107D1000913081F1913070F0933009F0D4C02AC0D5
:107D2000983009F4A3C0993009F4B2C0963009F034
:107D3000CAC07CC0803809F4C6C0823809F0C3C00C
:107D40008091BA0187708093E9008091EB001092D6
:107D5000E9002091E800277F2093E80090E025E0EB
:107D6000969587952A95E1F781708093F10010929E
:107D7000F10087C0882319F0823009F0A4C08F7108
:107D8000823009F0A0C08091B801882331F520919C
:107D9000BA01277009F497C02093E9008091EB00A5
:107DA00080FF1BC0933021F48091EB00806213C0F0
:107DB0008091EB0080618093EB0081E090E002C055
:107DC000880F991F2A95E2F78093EA001092EA0043
:107DD0008091EB0088608093EB001092E900809125
:107DE000E800877F51C0882309F06DC01091B80169
:107DF0001F770FB7F8948091E800877F8093E800A1
:107E00009ADD8091E80080FFFCCF8091E3008078CC
:107E1000812B8093E30080688093E300112311F4A9
:107E200082E001C083E08EBB0FBF4DC0805882301E
:107E300008F049C08091B8019091B9016091BA01F0
:107E4000AE014F5F5F4F36DDBC01009709F43BC0C8
:107E50008091E800877F8093E80089819A8192DE93
:107E60008091E8008B778093E8002DC0803859F529
:107E70008091E800877F8093E8008091B40180932F
:107E8000F1008091E8008E778093E80054DD1BC0FC
:107E90008823C9F49091B8019230A8F48091E80049
:107EA000877F8093E8009093B40145DD8091B40111
:107EB000882331F48091E30087FD02C081E001C096
:107EC00084E08EBB66DC8091E80083FF0AC080916D
:107ED000EB0080628093EB008091E800877F8093C5
:107EE000E8000F900F90CF91DF911F910F910895AF
:107EF00008951F938EB3882361F01091E9001092CA
:107F0000E9008091E80083FF01C0E4DE1770109360
:0A7F1000E9001F910895F894FFCFD7
:107F1A004341544552494E4100777700080000001A
:107F2A0000000008011201100102000008A00D174C
:107F3A000001000201000109023E00020100803234
:107F4A0009040000010202010005240010010424B2
:107F5A0002040524060001070582030800FF09043C
:107F6A000100020A000000070504021000010705CB
:107F7A0083021000010403090422034C0065006F08
:107F8A000045006300200062006F006F0074006CFF
:107F9A00006F00610064006500720000001803535E
:107FAA00007000610072006B0079007300200020ED
:087FBA0000200020000000007F
:040000030000700089
:100000000C9475010C949D010C949D010C949D0120
:100010000C949D010C949D010C949D010C949D01E8
:100020000C949D010C949D010C94510B0C94DC0BD1
:100030000C949D010C949D010C949D010C949D01C8
:100040000C949D010C949D010C949D010C949D01B8
:100050000C949D010C949D010C949D010C94DE0E5A
:100060000C949D010C949D010C949D010C949D0198
:100070000C949D010C949D010C949D010C949D0188
:100080000C949D010C949D010C949D010C949D0178
:100090000C949D010C949D010C949D010C949D0168
:1000A0000C949D010C949D010C949D01080B000281
:1000B0000202010009040000010202000005240000
:1000C0001001052401010104240206052406000193
:1000D0000705810310004009040100020A00000026
:1000E00007050202400000070583024000000403E8
:1000F000090422034C0065006F005000680069008D
:1001000020005500530042002000700048002000ED
:100110002000200018034F00700065006E006D0085
:100120006F006B006F0049006E0063001201000257
:1001300000000040501D1660000101020001120184
:10014000000202000040501D166000010102000183
:1001500000C18081C100000000240027002A002D7A
:1001600000300000000000250028002B002E003188
:1001700000000000002300260029002C002F0004AE
:10018000040404040304050202020204030202023E
:100190000206060606060604040202020404080219
:1001A00001104080401020408040800802040180FF
:1001B000402010020110801020404000000002008A
:1001C000080E0000030401000B0000000000000006
:1001D0000000000000000000000706050401000800
:1001E0000A0B0C0D0905010902A1010901A10085F5
:1001F00001050919012903150025019503750181E0
:100200000295017505810305010930093109381589
:1002100081257F750895038106C0C005010906A1E7
:10022000018502050719E029E715002501750195EB
:10023000088102950175088103950675081500254A
:10024000650507190029658100C009040200010342
:100250000000000921010100012265000705840357
:1002600040000100000000000000002A2B280000D0
:10027000000000000000000000000000000000007E
:100280000000002C9EB4A0A1A2A434A6A7A5AE365F
:100290002D3738271E1F20212223242526B333B6CD
:1002A0002EB7B89F8485868788898A8B8C8D8E8FA0
:1002B000909192939495969798999A9B9C9D2F31A3
:1002C00030A3AD350405060708090A0B0C0D0E0F07
:1002D000101112131415161718191A1B1C1DAFB183
:1002E000B0B50000A806850AD01311241FBECFEFB9
:1002F000DAE0DEBFCDBF12E0A0E0B1E0E6E2FFE26F
:1003000002C005900D92AC34B107D9F714E0ACE40B
:10031000B2E001C01D92A537B107E1F712E0CAEEC5
:10032000D2E004C02297FE010E945617C43ED107B6
:10033000C9F70E94CB0E0C9491170C940000FB019E
:10034000DC0102C001900D9241505040D8F7089551
:10035000FB01DC018D91019080190110D9F3990BFB
:100360000895FB01DC0101900D920020E1F7089552
:10037000FB01DC014150504030F08D91019080191B
:1003800019F40020B9F7881B990B0895A0E0B0E09C
:10039000ECECF1E00C9464177C01EB018A0169013B
:1003A00009C0CE012196F6010995F70181937F01DD
:1003B0000150104001151105A1F7CDB7DEB7E8E0F7
:1003C0000C948017A0E0B0E0E8EEF1E00C94641724
:1003D000EC017B018A01690109C0CE012196F70178
:1003E00061917F01F6010995015010400115110539
:1003F000A1F7CDB7DEB7E8E00C9480179C01F9991E
:10040000FECF32BD21BDF89A80B508959C01F999BF
:10041000FECF1FBA32BD21BD60BD0FB6F894FA9A67
:10042000F99A0FBE089584E392E19093F5038093C7
:10043000F40381E08093FB031092FA0380E092E0E2
:100440009093F7038093F6038EE791E09093F9037E
:100450008093F80387ED93EAACE6B2E48093FC0363
:100460009093FD03A093FE03B093FF0380E090E020
:1004700064EF73E04CE050E026E032E00E94E201DD
:100480000895833509F05BC084E494E060E071E096
:100490000E94BE086091EC037091ED0384E494E047
:1004A0004AE050E00E948C0884E494E068E071E047
:1004B0000E94BE0884E494E06CE071E00E94BE08F3
:1004C0004091EE035091EF036091F0037091F103BE
:1004D00084E494E022E030E00E94A50984E494E002
:1004E00068E071E00E94BE0884E494E061E171E09C
:1004F0000E94BE086091EC037091ED03882777FDA0
:100500008095982F0E94DD1520E030E040E85AE306
:100510000E94911620E030E040EA50E40E949116DB
:1005200020E030E04AE754E40E949116AB01BC01A0
:1005300084E494E022E030E00E94A8090895893420
:1005400009F04EC084E494E06EE171E00E94BE08C0
:1005500084E494E062E070E04AE050E00E949F088A
:1005600084E494E068E371E00E94BE086091F603C1
:100570007091F70384E494E04AE050E00E948C0814
:1005800084E494E068E071E00E94BE0884E494E0B2
:1005900065E471E00E94BE086091F8037091F90370
:1005A00084E494E04AE050E00E948C0884E494E003
:1005B00068E071E00E94BE0884E494E063E571E0C5
:1005C0000E94BE084091FC035091FD036091FE0320
:1005D0007091FF0384E494E022E030E00E94A809D7
:1005E0000895CF92DF92FF920F931F93DF93CF93E3
:1005F000CDB7DEB7C654D0400FB6F894DEBF0FBEFD
:10060000CDBF6C018E010F5F1F4FC80164E671E022
:100610000E94290EC601B8010E946D0DF82EC80176
:100620000E94C50EFF2009F45EC08E01085F1F4FB7
:10063000C801B60142E050E021E030E00E945C0ECB
:10064000C80166E671E00E94270DF82EC8010E94DD
:10065000C50EFF20D9F01092F3038091100261E0E3
:100660000E944D1184E494E068E671E00E94BB09A9
:100670008091F3038093FB0380E090E064EF73E0EC
:100680004CE050E026E032E00E94E2018E01015F82
:100690001F4FC801B60142E050E021E030E00E9467
:1006A0005C0EC80167E771E00E94270DF82EC801B3
:1006B0000E94C50EFF20B9F081E08093F30384E42B
:1006C00094E069E771E00E94BB098091F303809395
:1006D000FB0380E090E064EF73E04CE050E026E044
:1006E00032E00E94E2018E010A5E1F4FC80167E8F6
:1006F00071E00E94290EC601B8010E946D0DF82E0E
:10070000C8010E94C50EFF2071F04091EE03509188
:10071000EF036091F0037091F10384E494E022E030
:1007200030E00E94A8098E01035E1F4FC80169E8EE
:1007300071E00E94290EC601B8010E946D0DF82ECD
:10074000C8010E94C50EFF20B9F081E08093F2033A
:1007500084E494E06BE871E00E94BB098091F203AD
:100760008093FA0380E090E064EF73E04CE050E0A7
:1007700026E032E00E94E2018E010C5D1F4FC801AD
:1007800061EA71E00E94290EC601B8010E946D0D58
:10079000F82EC8010E94C50EFF20B1F01092F2039E
:1007A00084E494E063EA71E00E94BB098091F20363
:1007B0008093FA0380E090E064EF73E04CE050E057
:1007C00026E032E00E94E2018E01055D1F4FC80164
:1007D0006AEB71E00E94290EC601B8010E946D0DFE
:1007E000F82EC8010E94C50EFF20C1F084E494E0F9
:1007F0006CEB71E00E94BB098091EC039091ED03DA
:100800009093F7038093F60380E090E064EF73E049
:100810004CE050E026E032E00E94E2018E010E5CE6
:100820001F4FC8016AEC71E00E94290EC601B80191
:100830000E946D0DF82EC8010E94C50EFF20F1F137
:1008400084E494E06CEC71E00E94BB092091EC031D
:100850003091ED033093F9032093F8036091F60390
:100860007091F703621B730B882777FD8095982F93
:100870000E94DD1520E030E040EA50E40E9491162D
:1008800020E030E040E85AE30E94911620E030E09A
:100890004AE754E40E9491166093FC037093FD03B1
:1008A0008093FE039093FF0380E090E064EF73E099
:1008B0004CE050E026E032E00E94E2018E01075C4D
:1008C0001F4FC8016BED71E00E94290EC601B801EF
:1008D0000E946D0DF82EC8010E94C50EFF2069F020
:1008E00084EF93E060E070E04CE050E02EEF31E008
:1008F0000E94C60189E40E9441028E01005C1F4FE4
:10090000C8016DED71E00E94290EC601B8010E9478
:100910006D0DF82EC8010E94C50EFF2041F084E441
:1009200094E06FED71E00E94BB090E941302CA5B64
:10093000DF4F0FB6F894DEBF0FBECDBFCF91DF9172
:100940001F910F91FF90DF90CF9008951F93182F64
:100950000E94E30F812F0E94E30F1F9108959F9241
:10096000AF92BF92CF92DF92EF92FF920F931F93BD
:10097000DF93CF93CDB7DEB72E970FB6F894DEBFD7
:100980000FBECDBF0E94260F5B016C018091520209
:1009900090915302A0915402B0915502A601950185
:1009A000281B390B4A0B5B0B80911802909119029E
:1009B000AA2797FDA095BA2F82179307A407B5071A
:1009C00008F0A7C0A0925202B0925302C092540203
:1009D000D0925502E091E603F091E703EE0FFF1F7E
:1009E000EA5AFD4F20813181442737FD4095542F2D
:1009F0008091E8039091E903A091EA03B091EB03A1
:100A0000821B930BA40BB50B8093E8039093E9032F
:100A1000A093EA03B093EB0384E061E00E944D11E0
:100A20000091E6031091E70380910C0290910D0272
:100A30000E94A604000F111F0A5A1D4FF80191834E
:100A4000808384E060E00E944D112091E6033091A4
:100A5000E703F901EE0FFF1FEA5AFD4F80819181F4
:100A6000AC01662757FD6095762F8091E803909141
:100A7000E903A091EA03B091EB03480F591F6A1FE5
:100A80007B1F4093E8035093E9036093EA0370935C
:100A9000EB032F5F3F4F3093E7032093E603283C9F
:100AA000310524F01092E7031092E603CB01BA015E
:100AB00028EC30E040E050E00E9439173093ED031D
:100AC0002093EC038091F303882319F160914C0289
:100AD00070914D02809110020E941B10209114020F
:100AE0003091150280914C0290914D02820F931F1C
:100AF00090934D0280934C02009719F08F3F91051F
:100B000041F488279927821B930B909315028093B9
:100B1000140284E494E00E945E06892B29F18E0180
:100B20000F5F1F4FC8016CEF71E00E94290EEE2489
:100B3000FF24902E012F84E494E00E945E06892B0E
:100B400009F447C0F2E1EF16F10409F442C084E46D
:100B500094E00E948506682F892D902F0E94E30D56
:100B60000894E11CF11CE7CF80914E0290914F0256
:100B7000A0915002B0915102A6019501281B390B9A
:100B80004A0B5B0B8091160290911702AA2797FDE2
:100B9000A095BA2F82179307A407B50778F5A092FE
:100BA0004E02B0924F02C0925002D09251028091F8
:100BB000F203882341F08091120260E00E944D11FF
:100BC00083E50E9441028091120261E00E944D1172
:100BD00015C08E01085F1F4FC8017E010894E11CFB
:100BE000F11CB7010E94BA0EC8010E94F102C801AF
:100BF0000E94C50EC7010E94C50EB6CF2E960FB635
:100C0000F894DEBF0FBECDBFCF91DF911F910F9142
:100C1000FF90EF90DF90CF90BF90AF909F9008959E
:100C200080910E0261E00E94C0108091120261E08A
:100C30000E94C0108091100261E00E94C01084E008
:100C400061E00E94C0108091120261E00E944D118B
:100C50008091100261E00E944D1180910E0261E0CE
:100C60000E944D1180910C0260E00E94C01084EF40
:100C700093E060E070E04CE050E02EEF31E00E9445
:100C8000C6018091FA038093F2038091FB03809365
:100C9000F3038091F4039091F5038453924111F092
:100CA0000E94130289E40E944102E6E5F2E01192FB
:100CB000119283E0E63EF807D1F7089520914004B1
:100CC000309141048091420490914304281B390BD8
:100CD0002F733070C9010895209140043091410470
:100CE00080914204909143042817390719F42FEF9B
:100CF0003FEF09C0E0914204F0914304E050FC4F03
:100D00008081282F30E0C90108952091400430915E
:100D1000410480914204909143042817390719F443
:100D20002FEF3FEF13C0E0914204F0914304E050F5
:100D3000FC4F2081809142049091430401968F736F
:100D40009070909343048093420430E0C901089569
:100D5000109247041092460488EE93E0A0E0B0E0C1
:100D60008093480490934904A0934A04B0934B04A1
:100D70008FE292E0909345048093440408950F938A
:100D80001F93DF93CF930F92CDB7DEB78C016983AA
:100D900080912102882369F083E0BE016F5F7F4F5D
:100DA00041E050E00E94AA0A1816190614F49C01AA
:100DB00007C081E090E0F8019383828320E030E077
:100DC000C9010F90CF91DF911F910F91089583E09A
:100DD0000E947B0A0895CF93DF9312C082E00E94A5
:100DE000040A2FEF8F3F9207C9F0E0914004F09181
:100DF0004104E050FC4F8083D0934104C0934004F1
:100E0000C0914004D09141042196CF73D07080915D
:100E1000420490914304C817D90701F7DF91CF919D
:100E20000895FC0180818E5F808380E86CEA70E029
:100E300042E450E00E941D0A0895FC0181819081E6
:100E4000913A59F4813209F04CC080E06AE172E0D5
:100E500047E050E00E941D0A42C0913209F041C0B3
:100E6000803239F48AE192E067E070E00E94610A22
:100E700036C0823209F035C0828180932102809190
:100E80001A0290911B02A0911C02B0911D02805B7E
:100E90009440A040B04019F58091210280FD12C01D
:100EA00087E797E790930108809300082BE088E19B
:100EB00090E00FB6F894A895809360000FBE209341
:100EC00060000DC088E10FB6F89480936000109226
:100ED00060000FBEA895109201081092000881E0F2
:100EE000089580E00895CF92DF92EF92FF920F93E2
:100EF0001F93CF93DF937C016B018A01C0E0D0E0A8
:100F00000FC0D6016D916D01D701ED91FC9101905B
:100F1000F081E02DC7010995C80FD91F015010407D
:100F20000115110571F7CE01DF91CF911F910F913E
:100F3000FF90EF90DF90CF900895EF92FF920F9384
:100F40001F938C01DC01ED91FC910190F081E02D6B
:100F50006DE009957C01D801ED91FC910190F08143
:100F6000E02DC8016AE009959C012E0D3F1DC901C5
:100F70001F910F91FF90EF900895CF93DF93EC01B5
:100F80006115710519F420E030E00FC0DB010D9010
:100F90000020E9F71197A61BB70BE881F9810280C1
:100FA000F381E02DAD0109959C01C901DF91CF913D
:100FB00008954F925F927F928F929F92AF92BF92CD
:100FC000CF92DF92EF92FF920F931F93DF93CF9315
:100FD000CDB7DEB7A1970FB6F894DEBF0FBECDBF79
:100FE0002C01742ECB01223008F42AE019A231E240
:100FF000C32ED12CCC0EDD1E822E9924AA24BB2414
:10100000672D752FA50194010E94171779018A0198
:10101000C801B701A50194010E94F816472D461B8F
:101020000894C108D1084A3014F4405D01C0495CFD
:10103000F6014083E114F1040105110521F07E2C35
:101040005F2DC801DDCFC201B6010E94BD07A19688
:101050000FB6F894DEBF0FBECDBFCF91DF911F91C9
:101060000F91FF90EF90DF90CF90BF90AF909F9047
:101070008F907F905F904F900895DC01211531058E
:1010800041F4ED91FC910190F081E02D642F0995E0
:1010900008950E94D9070895CF92DF92EF92FF92B0
:1010A0000F931F93CF93DF93EC016A017B0121150E
:1010B000310541F4E881F9810190F081E02D642F40
:1010C00009951FC02A303105D1F477FF17C0E88198
:1010D000F9810190F081E02D6DE209958C014427A2
:1010E0005527BA014C195D096E097F09CE012AE026
:1010F0000E94D9079801280F391F04C02AE00E94D6
:10110000D9079C01C901DF91CF911F910F91FF90E9
:10111000EF90DF90CF900895EF92FF920F931F937F
:101120007B019A010027F7FC0095102FB801A70159
:101130000E944C081F910F91FF90EF900895CF925D
:10114000DF92EF92FF920F931F936C017B019A0144
:101150000027F7FC0095102FB801A7010E944C084A
:101160008C01C6010E949D07080F191FC8011F911D
:101170000F91FF90EF90DF90CF9008950E94BD07F0
:1011800008957F928F929F92AF92BF92CF92DF92FB
:10119000EF92FF920F931F93CF93DF934C017A014D
:1011A0008B01722ECB01BA01A80197010E94F4169F
:1011B000882321F0C4016DEF71E021C0C0E0D0E0D0
:1011C00057016801E894D7F8C601B5012FEF3FEF4A
:1011D0004FE75FE70E94F416882351F4C601B5017A
:1011E0002FEF3FEF4FE75FE70E943E15181614F010
:1011F000C1E0D0E0219739F0C40161E072E00E94C3
:10120000BD07EC0193C0C801B7012FEF3FEF4FE7D7
:101210005FE40E948D16181654F0C801B7012FEF35
:101220003FEF4FE75FEC0E943E15882324F4C40192
:1012300065E072E0E4CFC801B70120E030E040E0B3
:1012400050E00E943E1587FD03C0C0E0D0E00EC014
:10125000D401ED91FC910190F081E02DC4016DE28B
:101260000995EC0117FB109517F9109520E030E077
:1012700040E05FE3DD240BC0CA01B90120E030E0AB
:1012800040E251E40E9442159B01AC01D394D71473
:1012900098F3C801B7010E94DA145B016C010E9447
:1012A000AF157B018C01C401B801A7012AE030E031
:1012B0000E943D08C80FD91F772039F0C40169E0AA
:1012C00072E00E94BD07C80FD91FC801B7010E9474
:1012D000DB159B01AC01C601B5010E94D91424C0E5
:1012E00020E030E040E251E40E9491167B018C0145
:1012F0000E94AA155B016C01CC24B7FCC094DC2CC5
:10130000C401B601A5012AE030E00E944C08C80FD4
:10131000D91FC601B5010E94DD159B01AC01C801B2
:10132000B7010E94D9147A947720D1F6CE01DF91CB
:10133000CF911F910F91FF90EF90DF90CF90BF90D2
:10134000AF909F908F907F9008950E94C10808955C
:10135000EF92FF920F931F937C010E94C1088C01B2
:10136000C7010E949D07080F191FC8011F910F9107
:10137000FF90EF900895EF92FF920F931F937C01DF
:101380000E94BD078C01C7010E949D07080F191F0D
:10139000C8011F910F91FF90EF900895282F809121
:1013A00054048823D1F057FF1CC017C085B1807446
:1013B00085B9909353048091F1008193E217F3076C
:1013C000A9F74115510539F08091F200882319F4ED
:1013D0008BE68093E800AFBF02C04FEF5FEFCA011A
:1013E0000895AFB7F89427702093E9008091F20038
:1013F000282F30E0241735070CF4A901FB019B01CD
:10140000240F311D94E6DACFDF93CF930F92CDB73F
:10141000DEB7BE016F5F7F4F41E050E00E94CE0912
:10142000019719F02FEF3FEF03C08981282F30E09B
:10143000C9010F90CF91DF910895FF920F931F93F1
:10144000F82E142F052F4091570450915804212F46
:10145000302FC901DC01FB016EEF29C0F7FE02C08D
:10146000949101C090812091550430915604241725
:101470003507ACF48091E8008570E1F38091E800D5
:1014800082FF03C02FEF3FEF17C09093F100C90117
:1014900001968F739070892B11F46093E8002F5F91
:1014A0003F4F30935604209355041197319610976F
:1014B000A9F6812F902F9C01C9011F910F91FF90D8
:1014C00008959C018091E80082FFFCCFF901260F6E
:1014D000311D03C08091F1008193E217F307D1F72A
:1014E00085B1807485B984E6809353048BEF809333
:1014F000E800CB0108958093E9008091F2008823F1
:1015000019F08AE38093E800089508951092540436
:1015100081E08093D70080EA8093D80082E189BD82
:1015200009B400FEFDCF61E070E080E090E00E9431
:10153000340F80E98093D8008CE08093E200109211
:10154000E000259A269A85B18F6D85B985B18F6B9C
:1015500085B908955F926F927F928F929F92AF921A
:10156000BF92CF92DF92EF92FF920F931F93CF9390
:10157000DF93E82E842E752E80915404882371F118
:101580008B01242F352FC901EC017AEFF72E67E08C
:10159000962E9E2050E4552E8E2D90E040E2A42EF3
:1015A000B12CA822B9223AE3632E20E4C22ED12C1A
:1015B000C822D92258C09FB7F8949092E900809130
:1015C000E80085FD02C020E004C08091F200252DD6
:1015D000281B9FBF222361F4FA9419F42FEF3FEFE9
:1015E0004FC061E070E080E090E00E94340F3BC0AB
:1015F000822F90E0C817D9070CF42C2FC21BD109F9
:101600004FB7F8949092E900A114B10421F406C0F8
:101610001092F10021502223D9F719C0E7FC03C032
:10162000F801922F10C0C801322F06C0FC010196AC
:10163000E491E093F10031503323C1F706C081916A
:101640008093F10091509923D1F7020F111D8091E1
:10165000E80085FF05C0209729F4C114D10411F0DA
:101660006092E8004FBF209709F0A5CF85B1807246
:1016700085B984E680935204282D372DC9019C0139
:10168000C901DF91CF911F910F91FF90EF90DF90F3
:10169000CF90BF90AF909F908F907F906F905F9012
:1016A00008951F920F920FB60F9211242F933F931C
:1016B0004F935F936F937F938F939F93AF93BF935A
:1016C000EF93FF938091E1001092E100982F83FF48
:1016D0000FC01092E90081E08093EB001092EC00C3
:1016E00082E38093ED001092540488E08093F00030
:1016F00092FF38C083E08093E9008091F200882354
:1017000019F08AE38093E8008FB7F89492E0909301
:10171000E9009091F2008FBF992321F084E494E0D6
:101720000E94EB0680915204882361F0809152045C
:1017300081508093520480915204882319F485B11A
:101740008F6D85B980915304882361F08091530493
:1017500081508093530480915304882319F485B1F8
:101760008F6B85B9FF91EF91BF91AF919F918F9151
:101770007F916F915F914F913F912F910F900FBE8D
:101780000F901F9018950F931F93DF93CF930F9295
:10179000CDB7DEB719828E010F5F1F4FC8010E94BF
:1017A0001107C8010E94CD14898190E00F90CF915C
:1017B000DF911F910F9108951F920F920FB60F9214
:1017C0001124EF92FF921F932F933F934F935F93B8
:1017D0006F937F938F939F93AF93BF93EF93FF93F9
:1017E000DF93CF93CDB7DEB76197DEBFCDBF109249
:1017F000E9008091E80083FF11C1FE0131969E014E
:10180000275F3F4F03C08091F1008193E217F307F8
:10181000D1F785B1807485B984E68093530482EF53
:101820008093E800998197FF05C08091E80080FFD0
:10183000FCCF03C08EEF8093E800292F30E0C90170
:1018400080769070892B09F0C2C08A81882329F4A0
:101850001092F1001092F100D6C0813009F4D3C08B
:10186000833009F4D0C0853049F48091E80080FFCE
:10187000FCCF8B8180688093E300C5C0863009F07F
:101880007CC01C81EF80F8841230C1F51092E90011
:101890001092560410925504109258041092570456
:1018A0000E94C30B99E0FE013996DF01292F1D929A
:1018B0002A95E9F799871A8791E09E8790E8988B97
:1018C0009AEF998B2091550430915604275F3F4F32
:1018D0003C872B878D871092E90010925604109256
:1018E0005504F0925804E092570480E0BF0149E0AB
:1018F00050E00E941D0A0E94C30B85C01092E900AF
:101900001092560410925504F0925804E092570435
:10191000123241F482E290E00E94C514892B09F44E
:1019200076C071C0113079F488E0E816F10419F43A
:1019300081E08093590480915904882309F06BC099
:10194000ECE2F1E013C0133009F061C08B81882311
:1019500019F4EEEEF0E00AC0823019F4E2EFF0E0A4
:1019600005C0813009F053C0E4E1F1E0449180E822
:10197000BF0150E00E941D0A46C0873009F447C0ED
:10198000883021F481E08093F1003DC08930D9F5A1
:1019900023703070232BD9F5E1E5F1E091E031E0DF
:1019A00026E39093E9003093EB0084918093EC0060
:1019B0002093ED009F5F3196953099F78EE78093E5
:1019C000EA001092EA008B81809354041CC08F813E
:1019D00098851092E9001092560410925504909345
:1019E0005804809357048D81882329F4CE010196F1
:1019F0000E941D0706C0823051F4CE0101960E945C
:101A00009613882321F08EEF8093E80007C081E2CF
:101A10008093EB0003C0EEE3F1E0A8CF6196DEBF58
:101A2000CDBFCF91DF91FF91EF91BF91AF919F918A
:101A30008F917F916F915F914F913F912F911F9166
:101A4000FF90EF900F900FBE0F901F901895DC0144
:101A5000FB0114968D919C911597892B31F461159A
:101A60007105A9F090E0808108C00D90BC91A02D77
:101A70006115710529F490E08C91882349F407C021
:101A8000CD010E94A8019C0190E0232B09F491E074
:101A9000892F0895FC01DB0114962D913C91159737
:101AA00084819581821B930B84179507A0F0808118
:101AB0009181009781F06D917C916115710559F0CC
:101AC000840F951FA9010E94B8019C0180E0232B7F
:101AD00019F481E0089580E00895FC01DB01248180
:101AE000358114968D919C9115972817390710F41C
:101AF00080E00895CF0140E050E00E944A0D089533
:101B00000F931F93CF93DF93EC018B016F5F7F4F98
:101B1000888199810E94B512009711F480E005C078
:101B2000998388831B830A8381E0DF91CF911F9182
:101B30000F910895CF93DF93EC0188819981892BD0
:101B400029F08A819B818617970760F4CE010E9455
:101B5000800D882341F08C819D81892B19F4E881C7
:101B6000F981108281E0DF91CF910895EF92FF9289
:101B70000F931F93CF93DF93EC017B016C817D81E9
:101B8000E114F104C1F04115510599F08A01060FE5
:101B9000171FB8010E949A0D882369F088819981E6
:101BA0002C813D81820F931FB7010E94B1011D83DB
:101BB0000C8381E001C080E0DF91CF911F910F91F4
:101BC000FF90EF900895DF93CF9300D0CDB7DEB7AD
:101BD00069831A82BE016F5F7F4F41E050E00E942F
:101BE000B60D0F900F90CF91DF910895CF93DF93B3
:101BF000EC0188819981009711F00E941D121982D1
:101C000018821D821C821B821A82DF91CF91089557
:101C1000EF92FF920F931F93CF93DF93EC017B0121
:101C20008A01BA010E949A0D882321F4CE010E94F4
:101C3000F60D07C01D830C8388819981B7010E942E
:101C4000B101CE01DF91CF911F910F91FF90EF90E5
:101C50000895CF93DF93EC01198218821B821A82B8
:101C60001D821C821E826115710551F0DB010D90F1
:101C70000020E9F71197A61BB70BAD010E94080ED3
:101C8000DF91CF9108950F931F93182F092F61159E
:101C9000710559F0DB010D900020E9F71197A61BA3
:101CA000B70BAD010E94080E02C00E94F60D812FF5
:101CB000902F1F910F910895BF92CF92DF92EF92D4
:101CC000FF920F931F93CF93DF93082FB92E6B01D1
:101CD0007A01E9012417350710F4EA017901802F10
:101CE0009B2D6BE072E00E94290ED60114968D9117
:101CF0009C9115978E159F05D0F08C179D0708F4C1
:101D0000EC01D601ED91FC911197EC0FFD1F1081B4
:101D100010826D917C916E0D7F1D802F9B2D0E94F6
:101D2000430ED601ED91FC91EC0FFD1F1083802F27
:101D30009B2DDF91CF911F910F91FF90EF90DF903E
:101D4000CF90BF900895CF93DF93EC01FB018617EE
:101D5000970761F0608171816115710529F04481F7
:101D600055810E94080E02C00E94F60DCE01DF913F
:101D7000CF910895FC011182108213821282158284
:101D8000148216820E94A30E0895FC018081918125
:101D90000E941D120895CF93DF930E948D0F8AE554
:101DA00094E00E94860A0E941006C0E0D0E00E94E3
:101DB000AF042097E1F30E940000F9CF1F920F9229
:101DC0000FB60F9211242F933F938F939F93AF934E
:101DD000BF9380915F0490916004A0916104B091E1
:101DE0006204309163040196A11DB11D232F2D5F64
:101DF0002D3720F02D570196A11DB11D20936304AE
:101E000080935F0490936004A0936104B093620494
:101E100080915B0490915C04A0915D04B0915E049C
:101E20000196A11DB11D80935B0490935C04A09367
:101E30005D04B0935E04BF91AF919F918F913F91EC
:101E40002F910F900FBE0F901F9018958FB7F89499
:101E500020915F04309160044091610450916204CC
:101E60008FBFB901CA0108959B01AC017FB7F894F7
:101E700080915B0490915C04A0915D04B0915E043C
:101E800066B5A89B05C06F3F19F00196A11DB11D55
:101E90007FBFBA2FA92F982F8827860F911DA11DCC
:101EA000B11D62E0880F991FAA1FBB1F6A95D1F769
:101EB000BC012DC0FFB7F89480915B0490915C0445
:101EC000A0915D04B0915E04E6B5A89B05C0EF3F0C
:101ED00019F00196A11DB11DFFBFBA2FA92F982F90
:101EE00088278E0F911DA11DB11DE2E0880F991F5B
:101EF000AA1FBB1FEA95D1F7861B970B885E9340FC
:101F0000C8F2215030404040504068517C4F21156C
:101F100031054105510571F60895789484B58260C4
:101F200084BD84B5816084BD85B5826085BD85B57D
:101F3000816085BDEEE6F0E0808181608083E1E82C
:101F4000F0E0108280818260808380818160808364
:101F5000E0E8F0E0808181608083E1E9F0E0808169
:101F600082608083808181608083E0E9F0E080810D
:101F700081608083E1ECF0E08081846080838081F7
:101F800082608083808181608083E3ECF0E08081E7
:101F900081608083E0ECF0E0808182608083E2EC0D
:101FA000F0E0808181608083EAE7F0E080818460F6
:101FB0008083808182608083808181608083808152
:101FC000806880830895823108F08251E82FF0E024
:101FD000E752FE4FE49120917B008E2F86958695E7
:101FE000869590E08170907035E0880F991F3A9542
:101FF000E1F72F7D282B20937B00E7708091220250
:102000008295880F880F807C8E2B80937C00809136
:102010007A00806480937A0080917A0086FDFCCFFC
:102020002091780040917900942F80E030E0282BB7
:10203000392BC90108951F93CF93DF93182FEB011C
:1020400061E00E94C010209709F48FC0CF3FD105F6
:1020500009F48EC0E12FF0E0E554FE4F8491883002
:1020600009F440C0893070F4823019F1833020F4D3
:10207000813009F077C018C0833001F1843009F055
:1020800071C026C08B3009F44BC08C3030F48930DD
:1020900099F18A3009F066C039C08C3009F44DC01E
:1020A0008E3009F05FC051C084B5806884BDC7BD63
:1020B00063C084B5806284BDC8BD5EC0809180006D
:1020C000806880938000D0938900C093880054C0BA
:1020D00080918000806280938000D0938B00C093B9
:1020E0008A004AC080919000806880939000D093CD
:1020F0009900C093980040C08091900080628093C6
:102100009000D0939B00C0939A0036C080919000BD
:10211000886080939000D0939D00C0939C002CC059
:102120008091C00080688093C0008091C0008F7B48
:102130008093C000C093CF001FC08091C000806218
:102140008093C000C093D00017C08091C200886007
:102150008093C2008091C2008B7F8093C200C093A5
:10216000D2000AC0C038D1051CF4812F60E002C043
:10217000812F61E00E944D11DF91CF911F91089551
:10218000CF93DF93482F50E0CA0183569E4FFC0146
:10219000349141585E4FFA018491882369F190E0AF
:1021A000880F991FFC01EB5AFE4FA591B491FC01D9
:1021B000ED59FE4FC591D491662351F42FB7F89491
:1021C0008C91932F909589238C93888189230BC0C0
:1021D000623061F42FB7F8948C91932F90958923F6
:1021E0008C938881832B88832FBF06C09FB7F89478
:1021F0008C91832B8C939FBFDF91CF910895883072
:1022000071F1893068F4823031F1833020F481300B
:1022100009F042C01DC0833089F08430E9F512C056
:102220008B3059F18C3028F48930E9F08A30A1F5EF
:102230001EC08C3031F18E3079F529C0809180003C
:102240008F7703C0809180008F7D809380000895F8
:1022500084B58F7702C084B58F7D84BD0895809149
:1022600090008F7707C0809190008F7D03C0809190
:102270009000877F8093900008958091C0008F77B1
:1022800003C08091C0008F7D8093C000089580912D
:10229000C200877F8093C2000895FF920F931F931F
:1022A000F62E482F50E0CA0185549E4FFC01249120
:1022B000CA0183569E4FFC01149141585E4FFA01AA
:1022C00004910023C9F0222319F0822F0E94FF10ED
:1022D000E02FF0E0EE0FFF1FED59FE4FA591B491F6
:1022E0009FB7F894FF2021F48C911095812302C0B0
:1022F0008C91812B8C939FBF1F910F91FF9008951C
:102300000F931F93CF93DF93BC018230910510F49C
:1023100062E070E0E0917304F091740440E050E0FA
:10232000A0E0B0E024C08081918186179707D0F0AB
:102330008617970771F482819381109729F013967D
:102340009C938E9312972CC0909374048093730483
:1023500027C04115510519F08417950718F48D0110
:10236000AC01EF01DF01828193819C01F90130977B
:10237000D1F641155105F9F0CA01861B970B84303F
:10238000910580F48A819B810115110521F0F801E6
:102390009383828304C09093740480937304FE013A
:1023A000329645C0FE01E80FF91F619371930297C1
:1023B000998388833CC08091710490917204892B29
:1023C00041F48091250290912602909372048093AB
:1023D000710440912702509128024115510541F4A2
:1023E0004DB75EB78091230290912402481B590B90
:1023F000209171043091720424173507B0F4CA019A
:10240000821B930B8617970780F0AB014E5F5F4FDF
:102410008417950750F0420F531F50937204409356
:102420007104F9016193719302C0E0E0F0E0CF0123
:10243000DF91CF911F910F910895CF93DF939C016E
:10244000009709F48FC0EC0122971B821A826091D9
:102450007304709174046115710581F48881998108
:10246000820F931F2091710430917204281739074D
:1024700039F5D0937204C093710474C0DB0140E05D
:1024800050E0AC17BD0708F1BB83AA83FE01219180
:102490003191E20FF31FAE17BF0779F48D919C9134
:1024A0001197280F391F2E5F3F4F398328831296CB
:1024B0008D919C9113979B838A834115510571F4EB
:1024C000D0937404C09373044DC012968D919C9167
:1024D0001397AD01009711F0DC01D3CFDA01139609
:1024E000DC93CE931297FA0121913191E20FF31F01
:1024F000CE17DF0769F488819981280F391F2E5F75
:102500003F4FFA01318320838A819B8193838283A9
:10251000E0E0F0E0DB0112968D919C91139700971B
:1025200019F0BC01FD01F6CFAB014E5F5F4FDB013F
:102530008D919C91840F951F2091710430917204AC
:102540002817390779F4309729F4109274041092FF
:10255000730402C01382128242505040509372049E
:1025600040937104DF91CF9108956F927F928F9283
:102570009F92AF92BF92CF92DF92EF92FF920F9312
:102580001F93CF93DF938C01009729F4CB010E9416
:1025900080118C01BBC08EEFE82E8FEFF82EE00E7D
:1025A000F11E4801860E971E8E149F0408F4ACC0DD
:1025B000D7014D915C91119746175707B8F04530F8
:1025C000510508F4A3C0CA0104978617970708F4B9
:1025D0009DC042505040461B570BF401419351930C
:1025E0006D937C93CF010E941D1290C05B01A41AD1
:1025F000B50A3801640E751EA0917304B09174047D
:10260000E0E0F0E0CC24DD2447C0A615B705A9F52D
:10261000CD91DC911197CE0102968A159B0568F148
:10262000CE018A199B09029612962C911297139645
:102630003C91059758F0F40122833383CA19DB09D2
:10264000D183C083D7016D937C9309C04E5F5F4FE8
:102650004C0F5D1FF70151834083C901FC01C11478
:10266000D10431F0D6011396FC93EE9312974EC02D
:10267000F0937404E093730449C08D919C91119779
:10268000E817F90708F4FC016D0112968C91129776
:1026900013969C919C01D901109709F0B6CF8091B7
:1026A00071049091720486159705E9F4E617F7070F
:1026B000D0F420912702309128022115310541F4F0
:1026C0002DB73EB78091230290912402281B390B2D
:1026D00082169306C8F49092720480927104F701F6
:1026E0007183608313C0CB010E948011EC010097BD
:1026F00059F0D7014D915C91B8010E949F01C8012A
:102700000E941D128E0102C000E010E0C801DF919E
:10271000CF911F910F91FF90EF90DF90CF90BF90DE
:10272000AF909F908F907F906F900895FC01918162
:102730008081813A31F4913089F080E0933089F4DE
:102740000DC0813269F49B3021F48281809329028B
:1027500005C09A3029F4828180932A0281E008958D
:1027600080E00895EF92FF920F931F938C01E62E65
:10277000DC01ED91FC910480F581E02D0995F82EA6
:10278000D801ED91FC910680F781E02DC8016E2DF6
:1027900009958F2D90E01F910F91FF90EF90089574
:1027A00010926404109268041092670481E492E02D
:1027B00090936604809365040895EF92FF920F93BF
:1027C0001F93DF93CF930F92CDB7DEB789838B0131
:1027D0007A0184E0BE016F5F7F4F41E050E00E94CC
:1027E000AA0A84E4B801A7010E94AA0A0F90CF9117
:1027F000DF911F910F91FF90EF90089582E048E0E4
:1028000050E00E94DD130895FC01168217821086A5
:1028100011861286138614823496BF010E94FE131D
:102820000895DC01683810F0685829C0E62FF0E000
:1028300067FF13C0E058F04081E090E002C0880FCD
:10284000991FEA95E2F7809514962C911497282306
:1028500014962C93149760E012C0ED59FD4F6491CB
:10286000662319F420E030E01DC067FF08C014960D
:102870008C9114978D7F14968C9314976F77FD012C
:1028800090E0662321F08681861709F416829F5F07
:1028900031969630B1F7CD011496BD010E94FE131A
:1028A00021E030E0C9010895CF93DF93DC0168385F
:1028B00010F0685825C0E62FF0E067FF12C0E0581E
:1028C000F04081E090E002C0880F991FEA95E2F79E
:1028D00014962C911497282B14962C93149760E03F
:1028E0000FC0ED59FD4F64916623D9F167FF08C011
:1028F00014968C911497826014968C9314976F772A
:1029000016968C9116978617A9F117968C911797A2
:10291000861781F118968C911897861759F1199698
:102920008C911997861731F11A968C911A97861700
:1029300009F11B968C911B978617E1F0ED01E0E001
:10294000F0E09E2F8E81882321F4EA0FFB1F66831F
:1029500006C09F5F31962196E630F10591F79630DB
:1029600049F481E090E013969C938E93129720E0B7
:1029700030E007C0CD011496BD010E94FE1321E096
:1029800030E0C901DF91CF91089580E865EE71E0F4
:1029900045E650E00E941D0A0895FC0180818F5F8A
:1029A000808380E86AE472E049E150E00E941D0AF9
:1029B00008955058BB27AA270ED075C166D130F0B4
:1029C0006BD120F031F49F3F11F41EF45BC10EF483
:1029D000E095E7FB51C1E92F77D180F3BA17620781
:1029E00073078407950718F071F49EF58FC10EF4F4
:1029F000E0950B2EBA2FA02D0B01B90190010C010F
:102A0000CA01A0011124FF27591B99F0593F50F426
:102A1000503E68F11A16F040A22F232F342F44277E
:102A2000585FF3CF469537952795A795F040539576
:102A3000C9F77EF41F16BA0B620B730B840BBAF046
:102A40009150A1F0FF0FBB1F661F771F881FC2F7B1
:102A50000EC0BA0F621F731F841F48F487957795C5
:102A60006795B795F7959E3F08F0B3CF9395880F7C
:102A700008F09927EE0F979587950895D9D008F417
:102A800081E008950CD00FC107D140F0FED030F0A6
:102A900021F45F3F19F0F0C0511139C1F3C014D1D6
:102AA00098F39923C9F35523B1F3951B550BBB2715
:102AB000AA2762177307840738F09F5F5F4F220FC2
:102AC000331F441FAA1FA9F333D00E2E3AF0E0E8BB
:102AD00030D091505040E695001CCAF729D0FE2F07
:102AE00027D0660F771F881FBB1F26173707480799
:102AF000AB07B0E809F0BB0B802DBF01FF2793584F
:102B00005F4F2AF09E3F510568F0B6C000C15F3F9D
:102B1000ECF3983EDCF3869577956795B795F79536
:102B20009F5FC9F7880F911D9695879597F908952E
:102B3000E1E0660F771F881FBB1F621773078407CA
:102B4000BA0720F0621B730B840BBA0BEE1F88F7D9
:102B5000E095089504D06894B111D9C00895BCD00F
:102B600088F09F5790F0B92F9927B751A0F0D1F076
:102B7000660F771F881F991F1AF0BA95C9F712C000
:102B8000B13081F0C3D0B1E00895C0C0672F782F75
:102B90008827B85F39F0B93FCCF38695779567956C
:102BA000B395D9F73EF490958095709561957F4FD8
:102BB0008F4F9F4F0895E89409C097FB3EF490957E
:102BC0008095709561957F4F8F4F9F4F9923A9F006
:102BD000F92F96E9BB279395F69587957795679595
:102BE000B795F111F8CFFAF4BB0F11F460FF1BC0D9
:102BF0006F5F7F4F8F4F9F4F16C0882311F096E96C
:102C000011C0772321F09EE8872F762F05C0662319
:102C100071F096E8862F70E060E02AF09A95660FD2
:102C2000771F881FDAF7880F9695879597F908958B
:102C3000990F0008550FAA0BE0E8FEEF16161706CD
:102C4000E807F907C0F012161306E407F50798F035
:102C5000621B730B840B950B39F40A2661F0232B4E
:102C6000242B252B21F408950A2609F4A140A695CA
:102C70008FEF811D811D089597F99F6780E870E0AF
:102C800060E008959FEF80EC089500240A941616E2
:102C9000170618060906089500240A94121613064A
:102CA000140605060895092E0394000C11F48823D8
:102CB00052F0BB0F40F4BF2B11F460FF04C06F5FF4
:102CC0007F4F8F4F9F4F089557FD9058440F551FCA
:102CD00059F05F3F71F04795880F97FB991F61F09E
:102CE0009F3F79F087950895121613061406551F15
:102CF000F2CF4695F1DF08C0161617061806991F81
:102D0000F1CF86957105610508940895E894BB2775
:102D100066277727CB0197F908958ADF08F48FEFAC
:102D200008950BD0C0CFB1DF28F0B6DF18F095239F
:102D300009F0A2CFA7CF1124EACFC6DFA0F3959F59
:102D4000D1F3950F50E0551F629FF001729FBB2792
:102D5000F00DB11D639FAA27F00DB11DAA1F649F3E
:102D60006627B00DA11D661F829F2227B00DA11DF1
:102D7000621F739FB00DA11D621F839FA00D611D77
:102D8000221F749F3327A00D611D231F849F600D98
:102D9000211D822F762F6A2F11249F5750408AF0D1
:102DA000E1F088234AF0EE0FFF1FBB1F661F771F5D
:102DB000881F91505040A9F79E3F510570F05CCF9D
:102DC000A6CF5F3FECF3983EDCF386957795679549
:102DD000B795F795E7959F5FC1F7FE2B880F911D7B
:102DE0009695879597F9089523DF880B990B089599
:102DF000629FD001739FF001829FE00DF11D649FDF
:102E0000E00DF11D929FF00D839FF00D749FF00D6A
:102E1000659FF00D9927729FB00DE11DF91F639F0B
:102E2000B00DE11DF91FBD01CF0111240895A1E2EC
:102E30001A2EAA1BBB1BFD010DC0AA1FBB1FEE1F34
:102E4000FF1FA217B307E407F50720F0A21BB30B7F
:102E5000E40BF50B661F771F881F991F1A9469F7FB
:102E600060957095809590959B01AC01BD01CF0157
:102E7000089597FB092E05260ED057FD04D0D7DF05
:102E80000AD0001C38F450954095309521953F4F5D
:102E90004F4F5F4F0895F6F7909580957095619527
:102EA0007F4F8F4F9F4F0895EE0FFF1F0590F491B6
:102EB000E02D09942F923F924F925F926F927F92F2
:102EC0008F929F92AF92BF92CF92DF92EF92FF923A
:102ED0000F931F93CF93DF93CDB7DEB7CA1BDB0BE6
:102EE0000FB6F894DEBF0FBECDBF09942A8839888B
:102EF00048885F846E847D848C849B84AA84B98492
:102F0000C884DF80EE80FD800C811B81AA81B9819D
:102F1000CE0FD11D0FB6F894DEBF0FBECDBFED01B1
:062F20000895F894FFCFB4
:102F260065435261773A2000207C200065433A20B1
:102F3600004D696C6C69766F6C74733A20004C6551
:102F46006F456320496E666F3A204669726D7761F8
:102F560072652056657220006543204C6F772063AA
:102F6600616C3A2000654320486967682063616C9C
:102F76003A200065432070726F626520736C6F7033
:102F8600653A20004C003000537461747573206CF0
:102F96006564206F66660031005374617475732032
:102FA6006C6564206F6E0052004300436F6E746957
:102FB6006E756F75732052656164696E67204F6E1A
:102FC600004500436F6E74696E756F7573205265A8
:102FD6006164696E67204F666600530043616C69E1
:102FE6006272617465204C6F7700460043616C69BC
:102FF600627261746520486967680049005800522A
:1030060065736574696E6720746F206465666175A3
:103016006C742073657474696E677300006E616EFC
:1030260000696E66006F7666002E00001A000A00C0
:103036000B0009000500E803140000E10000000091
:10304600000001800075040000010100000000BFBF
:103056000673075E0685066C06E706EB06000000AB
:0C30660000B2137307541411140414007A
:00000001FF

