:1070000055C000006EC000006CC000006AC00000E7
:1070100068C0000066C0000064C0000062C00000DC
:1070200060C000005EC00000C6C400005AC000007E
:1070300058C0000056C0000054C0000052C00000FC
:1070400050C00000DEC000004CC000004AC000007C
:1070500048C0000046C0000044C0000042C000001C
:1070600040C000003EC000003CC000003AC000002C
:1070700038C0000036C0000034C0000032C000003C
:1070800030C000002EC000002CC000002AC000004C
:1070900028C0000026C0000024C0000022C000005C
:1070A00020C000001EC000001CC0000011241FBE34
:1070B000CFEFDAE0DEBFCDBF11E0A0E0B1E0EEED52
:1070C000FEE702C005900D92A63AB107D9F711E08C
:1070D000A6EAB1E001C01D92AC3BB107E1F763D372
:1070E000FCC68ECF84E08093E9000DC08091E8005B
:1070F0008B778093E80003C08EB3882359F080918A
:10710000E80082FFF9CF8091E80085FFEFCF809102
:10711000F100089580E0089593E09093E900909144
:10712000E80095FF0AC08093F1005D9884E690E046
:107130009093AB018093AA0108959091E8009E7707
:107140009093E80003C09EB3992329F09091E80042
:1071500090FFF9CFE8CF0895F89410926F00109245
:107160008100109285001092840081E085BF15BED9
:1071700047985D9A289A0C94000008958091B00178
:107180009091B10101969093B1018093B001292FA4
:1071900097FF03C03EEF391B232F220F281710F44F
:1071A00047980895479A089584B7877F84BF88E1F8
:1071B0000FB6F89480936000109260000FBE90E8C4
:1071C00080E00FB6F89490936100809361000FBE49
:1071D00081E085BF82E085BF3F9A209A559AE1E61B
:1071E000F0E09083108247985D9A289A1092890067
:1071F0009AEF9093880080936F0083E080938100E2
:10720000C2C31F920F920FB60F9211242F938F9328
:107210009F93EF93FF9310928500109284008091CA
:10722000AA019091AB01009741F001979093AB01B7
:107230008093AA01892B09F45D9A8091A80190910D
:10724000A901009741F001979093A9018093A801AB
:10725000892B09F4289AE0E0F0E085919491019659
:1072600049F08091A6019091A70101969093A70102
:107270008093A601FF91EF919F918F912F910F9095
:107280000FBE0F901F90189542E061EC82E00ED384
:1072900042E161E883E00AD342E160E884E006C3AA
:1072A0008091B401982F9F77913239F59091B50173
:1072B000903291F0913209F5813AF9F48091E80029
:1072C000877F8093E80067E070E083E091E024D45A
:1072D0008091E8008B770FC0813279F48091E800CB
:1072E000877F8093E80067E070E083E091E071D4ED
:1072F0008091E8008E778093E80008954F925F9226
:107300006F927F928F929F92AF92BF92CF92DF92B5
:10731000EF92FF920F931F93CF93DF9384E08093BC
:10732000E9008091E80082FF2DC2289884E690E071
:107330009093A9018093A801D5DE082F853481F4AC
:107340008CE49DE19093A7018093A60107B600FC11
:10735000FDCFF999FECF81E180935700E89503C0F6
:10736000843521F4BFDE8DE0D7DEE3C18C34D9F360
:10737000803509F4F8CF843721F484E4CDDE80E051
:10738000F3CF813611F489E5EFCF813481F4AADEA1
:10739000C82FA8DE90E0880F991F3C2F330F20E004
:1073A000822B932BAA2797FDA095BA2F96C18037E1
:1073B00011F483E5D9CF833549F4CCE9D1E0899143
:1073C000ABDE21E0C33AD207D1F7B3C1863521F451
:1073D00081E3A2DE80E3C8CF833731F487E89CDE07
:1073E00085E99ADE8EE1C0CF8536B9F4E0E0F0E0C1
:1073F00083E095E080935700E89507B600FCFDCF49
:1074000090935700E89507B600FCFDCFE058FF4F7A
:10741000E11520E7F20771F7A6CF823719F4E1E012
:10742000F0E00EC0863419F4E0E0F0E009C08E34DC
:1074300019F4E3E0F0E004C0813539F4E2E0F0E073
:1074400089E08093570084918FCF823631F489E5AB
:1074500063DE80E061DE80E887CF823419F0873612
:1074600009F0D1C01092A7011092A6013BDEC82EF0
:1074700039DED82E37DE182F8554823010F08FE396
:1074800073CFDC2D80E0C82FCD2910926F00073616
:1074900009F041C081E180935700E895B12C01E0EB
:1074A00037C0C090AC01D090AD01E090AE01F0903B
:1074B000AF011634B9F4EB2DF0E0EC29FD298491ED
:1074C0002BDEBB2069F0E2E0CE0ED11CE11CF11CEA
:1074D000C092AC01D092AD01E092AE01F092AF014A
:1074E000B02615C0D701C601B695A7959795879583
:1074F000DED412DEF2E0CF0ED11CE11CF11CC092F2
:10750000AC01D092AD01E092AE01F092AF012197B3
:10751000209739F674C08090AC019090AD01A09096
:10752000AE01B090AF01163409F057C083E0F4010A
:1075300080935700E89507B600FCFDCF4EC0163487
:1075400039F5DD2009F14090AC015090AD0160901B
:10755000AE017090AF01C6DDF82EE12C97012C2909
:10756000F201090100935700E8951124F2E04F0E53
:10757000511C611C711C4092AC015092AD01609293
:10758000AE017092AF0102C0ADDDC82ED02623C07F
:10759000A9DD682F8091AC019091AD01A091AE0161
:1075A000B091AF01B695A7959795879588D44091EE
:1075B000AC015091AD016091AE017091AF014E5F91
:1075C0005F4F6F4F7F4F4093AC015093AD0160937D
:1075D000AE017093AF01219703C0C12CD12C01E003
:1075E000209709F0ACCF163441F485E0F401809384
:1075F0005700E89507B600FCFDCF8DE08DDD82E0F9
:1076000080936F0096C0833471F4C091AC01D09127
:10761000AD0168DD90E021E0FE010C0120935700F0
:10762000E8951124A0CE833611F5C090AC01D0901E
:10763000AD01E090AE01F090AF0154DDB701A601BD
:10764000416090E021E0FA010C0120935700E89599
:107650001124F2E0CF0ED11CE11CF11CC092AC0150
:10766000D092AD01E092AE01F092AF017CCE8D36AA
:1076700061F4E091AC01F091AD0185E08093570099
:10768000E89507B600FCFDCF6ECE823551F4E0914F
:10769000AC01F091AD01C591D4918D2F3DDD8C2FC2
:1076A00063CE843419F51EDD682F8091AC01909172
:1076B000AD01A091AE01B091AF01B695A795979598
:1076C0008795FDD38091AC019091AD01A091AE0161
:1076D000B091AF010296A11DB11D8093AC019093B2
:1076E000AD01A093AE01B093AF013DCE8436F1F46D
:1076F000C090AC01D090AD01E090AE01F090AF0130
:10770000D701C601B695A79597958795D0D304DD87
:1077100022E0C20ED11CE11CF11CC092AC01D0923F
:10772000AD01E092AE01F092AF0103C08B3109F0E0
:10773000A6CE83E08093E9009091E8008091E80074
:107740008E778093E80095FD11C08091E80080FD60
:1077500004C08EB38111F9CF15C08091E8008E77F7
:107760008093E80003C08EB3882361F08091E80025
:1077700080FFF9CF84E08093E9008091E8008B7767
:107780008093E800DF91CF911F910F91FF90EF90D0
:10779000DF90CF90BF90AF909F908F907F906F9031
:1077A0005F904F9008958091000890910108109289
:1077B00001081092000844B714BE28E10FB6F894EF
:1077C00020936000109260000FBE41FD1AC040FF80
:1077D00009C0E0E0F0E0259134912F3F3F4F11F0D8
:1077E000BBDC0FC043FF0DC02091000130910101AF
:1077F0008217930731F0E0E0F0E0859194910196D3
:1078000079F7D2DC78941092A7011092A6010CC0EF
:1078100075DD3CD38091A6019091A70181349F41F1
:1078200010F010920201AADC809102018111F0CFC8
:107830008091E00081608093E0008EDC80E090E049
:107840000895292F30E033272230310539F02330D5
:10785000310549F02130310589F00BC02EE330E0CD
:107860008CE491E01EC0882371F0813089F0823071
:10787000A1F020E030E080E090E013C022E130E0B1
:107880008AE891E00EC024E030E088E491E009C08D
:1078900022E230E084E291E004C028E130E08AE0B6
:1078A00091E0FA0191838083C90108958093E900F2
:1078B000EBEEF0E0808181608083EDEEF0E01082FD
:1078C0006093EC0040838091EE00881F8827881F1A
:1078D00008958091B40187FD05C08091E80080FF84
:1078E0000DC010C08091E80082FD04C08EB38111EC
:1078F000F9CF08958091E8008B7707C08EB381118E
:10790000ECCF08958091E8008E778093E800089589
:107910000F931F93CF93DF9341D048D0C8EDD0E0B1
:1079200088818F77888388818068888388818F7D2C
:10793000888319BC1EBA1092B20100EE10E0F80163
:1079400080818B7F808388818160888342E060E0D2
:1079500080E0ACDFE1EEF0E080818E7F8083E2EEBC
:10796000F0E0808181608083808188608083F8017D
:1079700080818E7F8083888180618883DF91CF9131
:107980001F910F910895E7EDF0E080818160808381
:107990008AE482BF81E08093B301BACFE8EDF0E0E2
:1079A00080818E7F80831092E20008951092DA0029
:1079B0001092E10008951F920F920FB60F921124BA
:1079C0002F933F934F935F936F937F938F939F93E7
:1079D000AF93BF93EF93FF938091DA0080FF1BC0BA
:1079E0008091D80080FF17C08091DA008E7F80934D
:1079F000DA008091D90080FF0BC080E189BD82E16F
:107A000089BD09B400FEFDCF81E08EBB3ED203C02C
:107A100019BC1EBA3AD28091E10080FF17C0809154
:107A2000E20080FF13C08091E2008E7F8093E2002D
:107A30008091E20080618093E2008091D8008062B2
:107A40008093D80019BC85E08EBB1FD28091E100E5
:107A500084FF2CC08091E20084FF28C080E189BDB2
:107A600082E189BD09B400FEFDCF8091D8008F7DF1
:107A70008093D8008091E1008F7E8093E100809117
:107A8000E2008F7E8093E2008091E200816080932B
:107A9000E2008091B201811104C08091E30087FF70
:107AA00002C084E001C081E08EBBEFD18091E10093
:107AB00083FF21C08091E20083FF1DC08091E1001F
:107AC000877F8093E10082E08EBB1092B2018091AB
:107AD000E1008E7F8093E1008091E2008E7F8093B1
:107AE000E2008091E20080618093E20042E060E089
:107AF00080E0DCDECAD1FF91EF91BF91AF919F9101
:107B00008F917F916F915F914F913F912F910F9046
:107B10000FBE0F901F9018954091BA015091BB0174
:107B20004617570748F06115710539F44091E80090
:107B30004E774093E80001C0BA01FC0140E032C03A
:107B40008EB3882309F441C0853009F440C0809188
:107B5000E80083FD38C08091E80082FD2EC080914E
:107B6000E80080FF1FC09091F3008091F200392F50
:107B700020E0A901482BCA0106C041914093F100C1
:107B80006150710901966115710519F088309105F0
:107B9000A0F341E0089709F040E08091E8008E777B
:107BA0008093E8006115710559F64111C9CF05C0F0
:107BB0008EB3882351F0853051F08091E80082FF28
:107BC000F7CF80E0089581E0089582E0089583E092
:107BD00008956115710529F44091E8004B774093B1
:107BE000E800AC0127C08EB38823B1F1853071F174
:107BF0008091E80083FD2CC08091E80082FFF3CFE4
:107C0000FA0107C08091F1008193AF0161507109C1
:107C100061F0AF019091F3008091F200392F20E0E4
:107C2000D901A82BCD01892B69F78091E8008B77CA
:107C30008093E80061157105B1F68091E80080FD40
:107C400009C08EB3882341F08530B9F783E00895E9
:107C500081E0089580E0089582E00895EF92FF9218
:107C60000F931F93CF93DF9300D0CDB7DEB7E4EB34
:107C7000F1E08091F100819381E0EC3BF807C9F7D6
:107C80000FDB8091E80083FFE9C08091B4019091FF
:107C9000B501953009F46FC038F4913071F170F08E
:107CA000933009F0DBC029C0983009F4AAC099309C
:107CB00009F4B9C0963009F0D1C083C0803809F406
:107CC000CDC0823809F0CAC08091B8019091B90145
:107CD000877099278093E9009091EB001092E9005A
:107CE0008091E800877F8093E80095FB882780F9E2
:107CF0008093F1001092F1008FC0882319F0823038
:107D000009F0ACC08F71823009F0A8C08091B60133
:107D100081112BC08091B8019091B901877099278A
:107D2000009709F49BC08093E9002091EB0020FFAD
:107D30001CC02091B501233021F48091EB008062BA
:107D400012C09091EB0090619093EB0021E030E045
:107D500001C0220F8A95EAF72093EA001092EA0008
:107D60008091EB0088608093EB001092E900809195
:107D7000E800877F54C0811171C00091B601109155
:107D8000B7010F771127E02EFFB6F8948091E80035
:107D9000877F8093E8009DDD8091E80080FFFCCF25
:107DA0008091E3008078802B8093E300806880934B
:107DB000E300EE2011F083E001C082E08EBBFFBE45
:107DC0004DC08058823008F049C0AE014F5F5F4F10
:107DD0006091B8018091B6019091B70132DD0097B2
:107DE00009F43CC02091E800277F2093E800BC0103
:107DF00089819A8191DE8091E8008B778093E800F9
:107E00002DC0803859F58091E800877F8093E80085
:107E10008091B2018093F1008091E8008E77809389
:107E2000E80057DD1BC0811119C09091B601923056
:107E3000A8F48091E800877F8093E8009093B201D6
:107E400048DD8091B201811104C08091E30087FF79
:107E500002C084E001C081E08EBB16DA8091E800A8
:107E600083FF0AC08091EB0080628093EB008091D9
:107E7000E800877F8093E8000F900F90DF91CF910B
:107E80001F910F91FF90EF9008950895CF938EB3B7
:107E9000882359F0C091E900C7701092E9008091E1
:107EA000E80083FDDBDEC093E900CF910895F999E6
:107EB000FECF92BD81BDF89A992780B50895262FEF
:107EC000F999FECF1FBA92BD81BD20BD0FB6F894BF
:0E7ED000FA9AF99A0FBE01960895F894FFCF22
:107EDE007777010000000000000818034F007000C3
:107EEE0065006E006D006F006B006F0049006E0044
:107EFE006300000022035500530042002000490099
:107F0E004F00200062006F006100720064002000CC
:107F1E0020002000200000000403090409023E0096
:107F2E000201008032090400000102020100052452
:107F3E000010010424020405240600010705820333
:107F4E000800FF09040100020A00000007050402F0
:107F5E00100001070583021000011201100102003A
:107F6E000008501D166001000201000143415445F6
:067F7E0052494E410000D3
:040000030000700089
:100000000C9475010C949D010C949D010C949D0120
:100010000C949D010C949D010C949D010C949D01E8
:100020000C949D010C949D010C94360F0C94BD0F03
:100030000C949D010C949D010C949D010C949D01C8
:100040000C949D010C949D010C9467030C949D01EC
:100050000C949D010C949D010C949D010C948D07B2
:100060000C949D010C949D010C949D010C949D0198
:100070000C949D010C94C3020C949D010C949D0161
:100080000C949D010C949D010C949D010C949D0178
:100090000C949D010C949D010C949D010C949D0168
:1000A0000C949D010C949D010C949D010000000096
:1000B000240027002A002D00300000000000250049
:1000C00028002B002E003100000000002300260035
:1000D00029002C002F000404040404030405020278
:1000E00002020403020202020606060606060404D1
:1000F00002020204040802011040804010204080E7
:10010000408008020401804020100201108010206D
:1001100040400000000200080E0000030401000B34
:1001200000000000000000000000000000000000CF
:10013000070605040100080A0B0C0D09080B000254
:10014000020201000904000001020200000524006F
:100150001001052401010104240206052406000102
:100160000705810310004009040100020A00000095
:100170000705020240000007058302400000040357
:1001800009042203410072006400750069006E00DA
:100190006F0020004C0065006F006E00610072006F
:1001A00064006F001803410072006400750069006C
:1001B0006E006F0020004C004C0043001201000252
:1001C00000000040412336800001010200011201BD
:1001D00000020200004041233680000101020001BC
:1001E00000C18081C105010902A1010901A10085A9
:1001F00001050919012903150025019503750181E0
:100200000295017505810305010930093109381589
:1002100081257F750895038106C0C005010906A1E7
:10022000018502050719E029E715002501750195EB
:10023000088102950175088103950675081500254A
:10024000650507190029658100C009040200010342
:100250000000000921010100012265000705840357
:1002600040000100000000000000002A2B280000D0
:10027000000000000000000000000000000000007E
:100280000000002C9EB4A0A1A2A434A6A7A5AE365F
:100290002D3738271E1F20212223242526B333B6CD
:1002A0002EB7B89F8485868788898A8B8C8D8E8FA0
:1002B000909192939495969798999A9B9C9D2F31A3
:1002C00030A3AD350405060708090A0B0C0D0E0F07
:1002D000101112131415161718191A1B1C1DAFB183
:1002E000B0B500006B0A720EDD1411241FBECFEFF3
:1002F000DAE0DEBFCDBF12E0A0E0B1E0E0E4F1E380
:1003000002C005900D92A235B107D9F713E0A2E51E
:10031000B2E001C01D92AB35B107E1F712E0CAEEC1
:10032000D2E004C02297FE010E946318C43ED107A8
:10033000C9F70E94360B0C949E180C940000FB0128
:10034000DC0102C001900D9241505040D8F7089551
:10035000FB01DC018D91019080190110D9F3990BFB
:100360000895FB01DC0101900D920020E1F7089552
:10037000FB01DC014150504030F08D91019080191B
:1003800019F40020B9F7881B990B0895A0E0B0E09C
:10039000ECECF1E00C9471187C01EB018A0169012D
:1003A00009C0CE012196F6010995F70181937F01DD
:1003B0000150104001151105A1F7CDB7DEB7E8E0F7
:1003C0000C948D18A0E0B0E0E8EEF1E00C94711808
:1003D000EC017B018A01690109C0CE012196F70178
:1003E00061917F01F6010995015010400115110539
:1003F000A1F7CDB7DEB7E8E00C948D189C01F99910
:10040000FECF32BD21BDF89A80B508959C01F999BF
:10041000FECF1FBA32BD21BD60BD0FB6F894FA9A67
:10042000F99A0FBE0895EF92FF920F931F93609178
:10043000C8027091C902882777FD8095982F0E9485
:10044000EA1620E030E040E859E30E949E1720E0E1
:1004500030E040EA50E40E949E1720E030E04AE796
:1004600054E40E949E177B018C016093D00270932C
:10047000D1028093D2029093D3026091DC027091FA
:10048000DD02882777FD8095982F0E94EA1620E0EC
:1004900030E040EA50E40E949E1720E030E040E85F
:1004A00059E30E949E1720E030E04AE754E40E949E
:1004B0009E17A80197010E94E61520E030E048EA67
:1004C00050E40E944F166093CC027093CD0280934B
:1004D000CE029093CF022091E4023091E502409148
:1004E000E6025091E7020E944F169B01AC0160E0CA
:1004F00070E080EE90E40E94E6156093D402709361
:10050000D5028093D6029093D7021F910F91FF904E
:10051000EF9008950F931F939B01E0E3F1E0E80F44
:10052000F11DE491F894E064E0937C0085E280930F
:100530007B000AE710E0F80180818F62808380E20F
:10054000809380008BE08093810084E0220F331F32
:100550008A95E1F7442737FD4095542F60E970ED07
:1005600083E090E00E94241830938B0020938A004F
:1005700084E080936F00F8018081806C80837894A0
:100580001F910F9108951F920F920FB60F92112491
:100590002F933F934F935F936F937F938F939F938B
:1005A000AF93BF93EF93FF93E0919402F091950284
:1005B0008091780090917900A0E0B0E0EE0FFF1FED
:1005C000EE0FFF1FEC5AFD4F80839183A283B3830C
:1005D0008091940290919502019690939502809358
:1005E000940280919402909195028F7090709093F4
:1005F00095028093940260E070E020919602309121
:1006000097024091980250919902FB01EE0FFF1F53
:10061000EE0FFF1FEC5AFD4F80819181A281B381C3
:10062000820F931FA41FB51F809396029093970289
:10063000A0939802B09399026F5F7F4F603171056C
:10064000E1F68091940290919502892B19F58091A1
:10065000960290919702A0919802B091990222E09F
:10066000B695A795979587952A95D1F78093960289
:1006700090939702A0939802B0939902809196026A
:1006800090919702A0919802B09199029093CB0219
:100690008093CA02109296021092970210929802CA
:1006A000109299021092850010928400FF91EF91B0
:1006B000BF91AF919F918F917F916F915F914F917A
:1006C0003F912F910F900FBE0F901F9018951F9282
:1006D0000F920FB60F9211240F900FBE0F901F9024
:1006E000189584E392E19093DB028093DA0281E033
:1006F0008093E3021092E20280E098E09093DD02A2
:100700008093DC0286E095E09093DF028093DE0226
:100710008AEF9AE09093E1028093E00287ED93EAFA
:10072000ACE6B2E48093E4029093E502A093E60283
:10073000B093E70280E090E06AED72E04EE050E0B6
:1007400026E032E00E94E2010895CF92DF92FF920C
:100750000F931F93DF93CF93CDB7DEB7CD54D04027
:100760000FB6F894DEBF0FBECDBF6C018E010F5FD8
:100770001F4FC80160E071E00E940812C601B80175
:100780000E944C11F82EC8010E94A412FF2009F407
:100790005EC08E01085F1F4FC801B60142E050E005
:1007A00021E030E00E943B12C80162E071E00E944B
:1007B0000611F82EC8010E94A412FF20D9F0109251
:1007C000D90280911B0261E00E94EE0985E393E06B
:1007D00064E071E00E94AC0D8091D9028093E30245
:1007E00080E090E06AED72E04EE050E026E032E01A
:1007F0000E94E2018E01015F1F4FC801B60142E075
:1008000050E021E030E00E943B12C80163E171E05A
:100810000E940611F82EC8010E94A412FF20B9F010
:1008200081E08093D90285E393E065E171E00E9465
:10083000AC0D8091D9028093E30280E090E06AEDF4
:1008400072E04EE050E026E032E00E94E2018E01CC
:100850000A5E1F4FC80163E271E00E940812C601E0
:10086000B8010E944C11F82EC8010E94A412FF206A
:1008700081F00E9413024091D4025091D502609100
:10088000D6027091D70285E393E022E030E00E9427
:10089000990D8E01035E1F4FC80165E271E00E9451
:1008A0000812C601B8010E944C11F82EC8010E941E
:1008B000A412FF20B9F081E08093D80285E393E091
:1008C00067E271E00E94AC0D8091D8028093E20251
:1008D00080E090E06AED72E04EE050E026E032E029
:1008E0000E94E2018E010C5D1F4FC8016CE371E0B4
:1008F0000E940812C601B8010E944C11F82EC801CE
:100900000E94A412FF20B1F01092D80285E393E078
:100910006EE371E00E94AC0D8091D8028093E202F8
:1009200080E090E06AED72E04EE050E026E032E0D8
:100930000E94E2018E01055D1F4FC80164E571E070
:100940000E940812C601B8010E944C11F82EC8017D
:100950000E94A412FF20C1F085E393E066E571E0F8
:100960000E94AC0D8091C8029091C9029093DD0263
:100970008093DC0280E090E06AED72E04EE050E0AF
:1009800026E032E00E94E2018E010E5C1F4FC8019A
:1009900062E671E00E940812C601B8010E944C1183
:1009A000F82EC8010E94A412FF2009F44AC085E372
:1009B00093E064E671E00E94AC0D2091C802309192
:1009C000C9023093DF022093DE026091DC02709155
:1009D000DD02621B730B882777FD8095982F0E949C
:1009E000EA1620E030E040EA50E40E949E1720E042
:1009F00030E040E859E30E949E1720E030E04AE7EB
:100A000054E40E949E1720E030E048EA50E40E943F
:100A10004F1620E030E040E450E40E944F1660930F
:100A2000E4027093E5028093E6029093E70280E08F
:100A300090E06AED72E04EE050E026E032E00E9485
:100A4000E2018E01075C1F4FC80160E771E00E9460
:100A50000812C601B8010E944C11F82EC8010E946C
:100A6000A412FF2009F44AC085E393E062E771E035
:100A70000E94AC0D6091C8027091C9027093E102AE
:100A80006093E0022091DC023091DD02621B730B67
:100A9000882777FD8095982F0E94EA1620E030E0A5
:100AA00040EA50E40E949E1720E030E040E859E31D
:100AB0000E949E1720E030E04AE754E40E949E170F
:100AC00020E030E048EA50E40E944F1620E030E099
:100AD00040E450E40E944F166093E4027093E502F4
:100AE0008093E6029093E70280E090E06AED72E086
:100AF0004EE050E026E032E00E94E2018E01005C10
:100B00001F4FC8016FE771E00E940812C601B801CB
:100B10000E944C11F82EC8010E94A412FF2009F473
:100B200058C08AED92E060E070E04EE050E02EEFB9
:100B300031E00E94C60185E393E061E871E00E9424
:100B4000B20C85E393E061E070E04AE050E00E947F
:100B5000930C85E393E06CE971E00E94B20C609124
:100B6000DC027091DD0285E393E04AE050E00E94F0
:100B7000800C85E393E067EA71E00E94B20C85E3A4
:100B800093E06BEA71E00E94B20C6091DE0270911A
:100B9000DF0285E393E04AE050E00E94800C85E3A9
:100BA00093E067EA71E00E94B20C85E393E066EBA4
:100BB00071E00E94B20C4091E4025091E502609114
:100BC000E6027091E70285E393E022E030E00E94C4
:100BD000990D8E01095B1F4FC80167EC71E00E94FF
:100BE0000812C601B8010E944C11F82EC8010E94DB
:100BF000A412FF2041F085E393E069EC71E00E94CC
:100C0000AC0D0E947103C35BDF4F0FB6F894DEBFDB
:100C10000FBECDBFCF91DF911F910F91FF90DF905D
:100C2000CF900895AF92BF92CF92DF92EF92FF9252
:100C30000F931F93DF93CF93CDB7DEB72E970FB6E9
:100C4000F894DEBF0FBECDBFE090C402F090C502A5
:100C50000091C6021091C7024091C2025091C30296
:100C6000FA01EE0FFF1FE656FD4F80819181AA2702
:100C700097FDA095BA2F2091CA023091CB02318303
:100C800020835901CC24B7FCC094DC2CAE0CBF1CD3
:100C9000C01ED11EA81AB90ACA0ADB0AA092C40251
:100CA000B092C502C092C602D092C7024F5F5F4F9A
:100CB0005093C3024093C2024431510524F0109274
:100CC000C3021092C202C601B50124E130E040E047
:100CD00050E00E9446183093C9022093C8028091C8
:100CE000D902882319F160915202709153028091C8
:100CF0001B020E94BC0820912102309122028091A7
:100D0000520290915302820F931F9093530280934B
:100D10005202009719F08F3F910541F488279927D7
:100D2000821B930B909322028093210285E393E030
:100D30000E94210A892B61F18E010F5F1F4FC801AC
:100D400066EE71E00E940812E02ED12E09C085E304
:100D500093E00E94480A682F8E2D9D2D0E94C2119B
:100D600085E393E00E94210A892B89F78E01085FB1
:100D70001F4FC8016E2D7D2D0E949912C8010E943F
:100D8000A503C8010E94A4128E2D9D2D0E94A412BD
:100D90000E9413028091D802882309F460C085E381
:100DA00093E067EE71E00E94B20C6091C80270910E
:100DB000C90285E393E04AE050E00E94800C85E39D
:100DC00093E067EA71E00E94B20C85E393E06FEE76
:100DD00071E00E94B20C8AE10E948408BC0185E3A4
:100DE00093E04AE050E00E94800C85E393E067EADC
:100DF00071E00E94B20C85E393E069EF71E00E941C
:100E0000B20C4091D0025091D1026091D202709107
:100E1000D30285E393E022E030E00E94990D85E360
:100E200093E067EA71E00E94B20C85E393E065E02D
:100E300072E00E94B20C4091D4025091D5026091B0
:100E4000D6027091D70285E393E022E030E00E9461
:100E5000990D68EE73E080E090E00E94D5076EE1A6
:100E600070E080E090E00E94D5072E960FB6F894CF
:100E7000DEBF0FBECDBFCF91DF911F910F91FF90CD
:100E8000EF90DF90CF90BF90AF90089580911B02BC
:100E900061E00E94610980911F0261E00E94610986
:100EA00080911D0261E00E946109E0911902F091B8
:100EB0001A02E05DFE4FE49185E393E06E2F4AE075
:100EC00050E00E94220C8091190264E670E00E94BA
:100ED0008A028AED92E060E070E04EE050E02EEF92
:100EE00031E00E94C6018091E2028093D802809195
:100EF000E3028093D9028091DA029091DB0284535D
:100F0000924111F00E947103EAE9F2E0119211920C
:100F100082E0E23CF807D1F708951F920F920FB6D6
:100F20000F9211242F933F938F939F93AF93BF936F
:100F30008091EC029091ED02A091EE02B091EF024F
:100F40003091F0020196A11DB11D232F2D5F2D3789
:100F500020F02D570196A11DB11D2093F002809322
:100F6000EC029093ED02A093EE02B093EF02809119
:100F7000E8029091E902A091EA02B091EB02019699
:100F8000A11DB11D8093E8029093E902A093EA02AB
:100F9000B093EB02BF91AF919F918F913F912F91B1
:100FA0000F900FBE0F901F9018959B01AC017FB75B
:100FB000F8948091E8029091E902A091EA02B09140
:100FC000EB0266B5A89B05C06F3F19F00196A11D05
:100FD000B11D7FBFBA2FA92F982F8827860F911D8B
:100FE000A11DB11D62E0880F991FAA1FBB1F6A9542
:100FF000D1F7BC012DC0FFB7F8948091E802909121
:10100000E902A091EA02B091EB02E6B5A89B05C007
:10101000EF3F19F00196A11DB11DFFBFBA2FA92FF7
:10102000982F88278E0F911DA11DB11DE2E0880F1A
:10103000991FAA1FBB1FEA95D1F7861B970B885EE5
:101040009340C8F2215030404040504068517C4F9E
:10105000211531054105510571F60895789484B53F
:10106000826084BD84B5816084BD85B5826085BDA4
:1010700085B5816085BDEEE6F0E08081816080838A
:10108000E1E8F0E01082808182608083808181606D
:101090008083E0E8F0E0808181608083E1E9F0E036
:1010A000808182608083808181608083E0E9F0E0DC
:1010B000808181608083E1ECF0E0808184608083C6
:1010C000808182608083808181608083E3ECF0E0B6
:1010D000808181608083E0ECF0E0808182608083A9
:1010E000E2ECF0E0808181608083EAE7F0E08081DB
:1010F000846080838081826080838081816080833E
:101100008081806880830895823108F08251E82FC1
:10111000F0E0E05DFE4FE49120917B008E2F8695FC
:101120008695869590E08170907035E0880F991FC4
:101130003A95E1F72F7D282B20937B00E770809173
:1011400023028295880F880F807C8E2B80937C00F1
:1011500080917A00806480937A0080917A0086FD85
:10116000FCCF2091780040917900942F80E030E00E
:10117000282B392BC90108951F93CF93DF93182F84
:10118000EB0161E00E946109209709F48FC0CF3F15
:10119000D10509F48EC0E12FF0E0EE5EFE4F8491A0
:1011A000883009F440C0893070F4823019F18330FE
:1011B00020F4813009F077C018C0833001F1843009
:1011C00009F071C026C08B3009F44BC08C3030F46C
:1011D000893099F18A3009F066C039C08C3009F441
:1011E0004DC08E3009F05FC051C084B5806884BDA9
:1011F000C7BD63C084B5806284BDC8BD5EC0809138
:101200008000806880938000D0938900C09388001C
:1012100054C080918000806280938000D0938B00C6
:10122000C0938A004AC080919000806880939000AB
:10123000D0939900C093980040C080919000806244
:1012400080939000D0939B00C0939A0036C0809109
:101250009000886080939000D0939D00C0939C0084
:101260002CC08091C00080688093C0008091C00035
:101270008F7B8093C000C093CF001FC08091C000BF
:1012800080628093C000C093D00017C08091C200DC
:1012900088608093C2008091C2008B7F8093C200DF
:1012A000C093D2000AC0C038D1051CF4812F60E081
:1012B00002C0812F61E00E94EE09DF91CF911F9162
:1012C0000895CF93DF93482F50E0CA018C509F4F71
:1012D000FC0134914A525F4FFA018491882369F1ED
:1012E00090E0880F991FFC01E455FF4FA591B49140
:1012F000FC01E654FF4FC591D491662351F42FB7FA
:10130000F8948C91932F909589238C9388818923CD
:101310000BC0623061F42FB7F8948C91932F9095A5
:1013200089238C938881832B88832FBF06C09FB726
:10133000F8948C91832B8C939FBFDF91CF9108956C
:10134000883071F1893068F4823031F1833020F4D3
:10135000813009F042C01DC0833089F08430E9F546
:1013600012C08B3059F18C3028F48930E9F08A3082
:10137000A1F51EC08C3031F18E3079F529C08091F5
:1013800080008F7703C0809180008F7D80938000E4
:10139000089584B58F7702C084B58F7D84BD08958C
:1013A000809190008F7707C0809190008F7D03C05F
:1013B00080919000877F8093900008958091C00075
:1013C0008F7703C08091C0008F7D8093C000089507
:1013D0008091C200877F8093C2000895FF920F938F
:1013E0001F93F62E482F50E0CA018E5E9E4FFC01DF
:1013F0002491CA018C509F4FFC0114914A525F4FB7
:10140000FA0104910023C9F0222319F0822F0E94CF
:10141000A009E02FF0E0EE0FFF1FE654FF4FA5916B
:10142000B4919FB7F894FF2021F48C9110958123FB
:1014300002C08C91812B8C939FBF1F910F91FF90C5
:1014400008952091310330913203809133039091BC
:101450003403281B390B2F733070C9010895209174
:101460003103309132038091330390913403281774
:10147000390719F42FEF3FEF09C0E0913303F091E2
:101480003403EF50FD4F8081282F30E0C9010895CB
:1014900020913103309132038091330390913403D2
:1014A0002817390719F42FEF3FEF13C0E0913303EA
:1014B000F0913403EF50FD4F2081809133039091E0
:1014C000340301968F7390709093340380933303A9
:1014D00030E0C9010895109238031092370388EE66
:1014E00093E0A0E0B0E08093390390933A03A09397
:1014F0003B03B0933C0386E392E0909336038093E2
:10150000350308950F931F93DF93CF930F92CDB7B9
:10151000DEB78C01698380912B02882369F083E018
:10152000BE016F5F7F4F41E050E00E94910E1816A0
:10153000190614F49C0107C081E090E0F801938340
:10154000828320E030E0C9010F90CF91DF911F919D
:101550000F91089583E00E94680E0895CF93DF9362
:1015600012C082E00E94F30D2FEF8F3F9207C9F067
:10157000E0913103F0913203EF50FD4F8083D0931F
:101580003203C0933103C0913103D09132032196CD
:10159000CF73D0708091330390913403C817D9076B
:1015A00001F7DF91CF910895FC0180818E5F8083E8
:1015B00080E86CE371E042E450E00E940C0E089574
:1015C000FC0181819081913A59F4813209F04CC03B
:1015D00080E064E272E047E050E00E940C0E42C0FE
:1015E000913209F041C0803239F484E292E067E040
:1015F00070E00E94500E36C0823209F035C0828100
:1016000080932B028091240290912502A0912602C2
:10161000B0912702805B9440A040B04019F58091C2
:101620002B0280FD12C087E797E790930108809313
:1016300000082BE088E190E00FB6F894A89580931D
:1016400060000FBE209360000DC088E10FB6F894D3
:1016500080936000109260000FBEA8951092010860
:101660001092000881E0089580E00895CF93DF9301
:101670000E942E088BE493E00E94730E0E9446079E
:10168000C0E0D0E00E9412062097E1F30E94000023
:10169000F9CFCF92DF92EF92FF920F931F93CF93E8
:1016A000DF937C016B018A01C0E0D0E00FC0D6015E
:1016B0006D916D01D701ED91FC910190F081E02DCC
:1016C000C7010995C80FD91F015010400115110518
:1016D00071F7CE01DF91CF911F910F91FF90EF90A5
:1016E000DF90CF900895EF92FF920F931F938C019C
:1016F000DC01ED91FC910190F081E02D6DE0099508
:101700007C01D801ED91FC910190F081E02DC801A0
:101710006AE009959C012E0D3F1DC9011F910F9193
:10172000FF90EF900895CF93DF93EC016115710561
:1017300019F420E030E00FC0DB010D900020E9F744
:101740001197A61BB70BE881F9810280F381E02D88
:10175000AD0109959C01C901DF91CF9108954F9288
:101760005F927F928F929F92AF92BF92CF92DF92C1
:10177000EF92FF920F931F93DF93CF93CDB7DEB716
:10178000A1970FB6F894DEBF0FBECDBF2C01742E0B
:10179000CB01223008F42AE019A231E2C32ED12C69
:1017A000CC0EDD1E822E9924AA24BB24672D752F12
:1017B000A50194010E94241879018A01C801B7018A
:1017C000A50194010E940518472D461B0894C108E5
:1017D000D1084A3014F4405D01C0495CF6014083F1
:1017E000E114F1040105110521F07E2C5F2DC801E3
:1017F000DDCFC201B6010E94930BA1960FB6F894FB
:10180000DEBF0FBECDBFCF91DF911F910F91FF9033
:10181000EF90DF90CF90BF90AF909F908F907F9090
:101820005F904F900895DC012115310541F4ED9151
:10183000FC910190F081E02D642F099508950E949C
:10184000AF0B0895CF92DF92EF92FF920F931F9309
:101850006C01E62E9A01FF2400E010E0B801A70118
:101860000E94130C8C01C6010E94730B080F191FF4
:10187000C8011F910F91FF90EF90DF90CF900895D6
:10188000CF92DF92EF92FF920F931F93CF93DF934C
:10189000EC016A017B012115310541F4E881F981F0
:1018A0000190F081E02D642F09951FC02A30310589
:1018B000D1F477FF17C0E881F9810190F081E02D24
:1018C0006DE209958C0144275527BA014C195D0931
:1018D0006E097F09CE012AE00E94AF0B9801280F04
:1018E000391F04C02AE00E94AF0B9C01C901DF919F
:1018F000CF911F910F91FF90EF90DF90CF900895BF
:10190000EF92FF920F931F937B019A010027F7FC40
:101910000095102FB801A7010E94400C1F910F9154
:10192000FF90EF900895CF92DF92EF92FF920F9386
:101930001F936C017B019A010027F7FC0095102F83
:10194000B801A7010E94400C8C01C6010E94730BD4
:10195000080F191FC8011F910F91FF90EF90DF90A2
:10196000CF9008950E94930B08957F928F929F923B
:10197000AF92BF92CF92DF92EF92FF920F931F939D
:10198000CF93DF934C017A018B01722ECB01BA0108
:10199000A80197010E940118882321F0C4016AE080
:1019A00072E021C0C0E0D0E057016801E894D7F8A8
:1019B000C601B5012FEF3FEF4FE75FE70E94011827
:1019C000882351F4C601B5012FEF3FEF4FE75FE7E2
:1019D0000E944B16181614F0C1E0D0E0219739F0A0
:1019E000C4016EE072E00E94930BEC0193C0C80149
:1019F000B7012FEF3FEF4FE75FE40E949A171816E9
:101A000054F0C801B7012FEF3FEF4FE75FEC0E94A2
:101A10004B16882324F4C40162E172E0E4CFC801CC
:101A2000B70120E030E040E050E00E944B1687FD17
:101A300003C0C0E0D0E00EC0D401ED91FC91019054
:101A4000F081E02DC4016DE20995EC0117FB1095C2
:101A500017F9109520E030E040E05FE3DD240BC093
:101A6000CA01B90120E030E040E251E40E944F1683
:101A70009B01AC01D394D71498F3C801B7010E941D
:101A8000E7155B016C010E94BC167B018C01C4014F
:101A9000B801A7012AE030E00E94130CC80FD91F3B
:101AA000772039F0C40166E172E00E94930BC80F01
:101AB000D91FC801B7010E94E8169B01AC01C601FD
:101AC000B5010E94E61524C020E030E040E251E478
:101AD0000E949E177B018C010E94B7165B016C016E
:101AE000CC24B7FCC094DC2CC401B601A5012AE0CB
:101AF00030E00E94400CC80FD91FC601B5010E94FA
:101B0000EA169B01AC01C801B7010E94E6157A9460
:101B10007720D1F6CE01DF91CF911F910F91FF90E9
:101B2000EF90DF90CF90BF90AF909F908F907F907D
:101B30000895EF92FF920F931F937C010E94B50CC2
:101B40008C01C7010E94730B080F191FC8011F9158
:101B50000F91FF90EF900895EF92FF920F931F93D4
:101B60007C010E94930B8C01C7010E94730B080F2C
:101B7000191FC8011F910F91FF90EF900895282F12
:101B8000809145038823C1F057FF1AC015C02898DB
:101B9000909344038091F1008193E217F307B9F722
:101BA0004115510539F08091F200882319F48BE634
:101BB0008093E800AFBF02C04FEF5FEFCA01089506
:101BC000AFB7F89427702093E9008091F200282F96
:101BD00030E0241735070CF4A901FB019B01240F09
:101BE000311D94E6DACFDF93CF930F92CDB7DEB7F6
:101BF000BE016F5F7F4F41E050E00E94BF0D019733
:101C000019F02FEF3FEF03C08981282F30E0C90181
:101C10000F90CF91DF910895FF920F931F93F82EAD
:101C2000142F052F4091480350914903212F302F45
:101C3000C901DC01FB016EEF29C0F7FE02C09491DF
:101C400001C0908120914603309147032417350746
:101C5000ACF48091E8008570E1F38091E80082FFA8
:101C600003C02FEF3FEF17C09093F100C901019619
:101C70008F739070892B11F46093E8002F5F3F4FB2
:101C80003093470320934603119731961097A9F696
:101C9000812F902F9C01C9011F910F91FF900895F2
:101CA0009C018091E80082FFFCCFF901260F311DD5
:101CB00003C08091F1008193E217F307D1F72898D0
:101CC00084E6809344038BEF8093E800CB01089572
:101CD0008093E9008091F200882319F08AE38093D1
:101CE000E800089508951092450381E08093D7009D
:101CF00080EA8093D80082E189BD09B400FEFDCF5F
:101D000061E070E080E090E00E94D50780E9809378
:101D1000D8008CE08093E2001092E000559A209A5F
:101D200008955F926F927F928F929F92AF92BF922F
:101D3000CF92DF92EF92FF920F931F93CF93DF9397
:101D4000E82E842E752E80914503882371F18B0136
:101D5000242F352FC901EC017AEFF72E67E0962E7C
:101D60009E2050E4552E8E2D90E040E2A42EB12C02
:101D7000A822B9223AE3632E20E4C22ED12CC82235
:101D8000D92258C09FB7F8949092E9008091E8005A
:101D900085FD02C020E004C08091F200252D281BA3
:101DA0009FBF222361F4FA9419F42FEF3FEF4DC047
:101DB00061E070E080E090E00E94D5073BC0822F98
:101DC00090E0C817D9070CF42C2FC21BD1094FB7CC
:101DD000F8949092E900A114B10421F406C0109285
:101DE000F10021502223D9F719C0E7FC03C0F80104
:101DF000922F10C0C801322F06C0FC010196E49159
:101E0000E093F10031503323C1F706C081918093F4
:101E1000F10091509923D1F7020F111D8091E80034
:101E200085FF05C0209729F4C114D10411F06092F8
:101E3000E8004FBF209709F0A5CF5D9884E6809316
:101E40004303282D372DC9019C01C901DF91CF9192
:101E50001F910F91FF90EF90DF90CF90BF90AF90C8
:101E60009F908F907F906F905F9008951F920F9238
:101E70000FB60F9211242F933F934F935F936F935D
:101E80007F938F939F93AF93BF93EF93FF93809133
:101E9000E1001092E100982F83FF0FC01092E9003B
:101EA00081E08093EB001092EC0082E38093ED00E0
:101EB0001092450388E08093F00092FF34C083E0E5
:101EC0008093E9008091F200882319F08AE38093DF
:101ED000E8008FB7F89492E09093E9009091F200B7
:101EE0008FBF992321F085E393E00E94AE0A809191
:101EF0004303882351F0809143038150809343032F
:101F000080914303882309F45D9A809144038823D8
:101F100051F08091440381508093440380914403A5
:101F2000882309F4289AFF91EF91BF91AF919F9177
:101F30008F917F916F915F914F913F912F910F9072
:101F40000FBE0F901F9018950F931F93DF93CF93A1
:101F50000F92CDB7DEB719828E010F5F1F4FC801F8
:101F60000E94D40AC8010E94DA15898190E00F907E
:101F7000CF91DF911F910F9108951F920F920FB68D
:101F80000F921124EF92FF921F932F933F934F9341
:101F90005F936F937F938F939F93AF93BF93EF93D1
:101FA000FF93DF93CF93CDB7DEB76197DEBFCDBF91
:101FB0001092E9008091E80083FF0FC1FE01319685
:101FC0009E01275F3F4F03C08091F1008193E2178C
:101FD000F307D1F7289884E68093440382EF809337
:101FE000E800998197FF05C08091E80080FFFCCF51
:101FF00003C08EEF8093E800292F30E0C90180767E
:102000009070892B09F0C2C08A81882329F410922C
:10201000F1001092F100D6C0813009F4D3C08330B2
:1020200009F4D0C0853049F48091E80080FFFCCFEE
:102030008B8180688093E300C5C0863009F07CC046
:102040001C81EF80F8841230C1F51092E9001092E3
:1020500047031092460310924903109248030E94CE
:10206000A40F99E0FE013996DF01292F1D922A95D0
:10207000E9F799871A8791E09E8790E8988B9AEF05
:10208000998B2091460330914703275F3F4F3C8750
:102090002B878D871092E900109247031092460318
:1020A000F0924903E092480380E0BF0149E050E02C
:1020B0000E940C0E0E94A40F85C01092E90010929D
:1020C000470310924603F0924903E092480312320C
:1020D00041F482E290E00E94D215892B09F476C087
:1020E00071C0113079F488E0E816F10419F481E048
:1020F00080934A0380914A03882309F06BC0ECEB7C
:10210000F1E013C0133009F061C08B81882319F40A
:10211000EEE7F1E00AC0823019F4E2E8F1E005C030
:10212000813009F053C0E4EAF1E0449180E8BF0156
:1021300050E00E940C0E46C0873009F447C088303A
:1021400021F481E08093F1003DC08930D9F52370FE
:102150003070232BD9F5E1EEF1E091E031E026E398
:102160009093E9003093EB0084918093EC002093EE
:10217000ED009F5F3196953099F78EE78093EA00E6
:102180001092EA008B81809345031CC08F81988553
:102190001092E9001092470310924603909349036E
:1021A000809348038D81882329F4CE0101960E94F3
:1021B000E00A06C0823051F4CE0101960E94A314B9
:1021C000882321F08EEF8093E80007C081E280939E
:1021D000EB0003C0EEECF1E0A8CF6196DEBFCDBF0F
:1021E000CF91DF91FF91EF91BF91AF919F918F912F
:1021F0007F916F915F914F913F912F911F91FF9030
:10220000EF900F900FBE0F901F901895DC01FB010F
:1022100014968D919C911597892B31F46115710558
:10222000A9F090E0808108C00D90BC91A02D6115AF
:10223000710529F490E08C91882349F407C0CD0101
:102240000E94A8019C0190E0232B09F491E0892FC2
:102250000895FC01DB0114962D913C911597848122
:102260009581821B930B84179507A0F08081918143
:10227000009781F06D917C916115710559F0840F83
:10228000951FA9010E94B8019C0180E0232B19F43D
:1022900081E0089580E00895FC01DB01248135810F
:1022A00014968D919C9115972817390710F480E0AA
:1022B0000895CF0140E050E00E94291108950F9346
:1022C0001F93CF93DF93EC018B016F5F7F4F88816A
:1022D00099810E94C913009711F480E005C0998389
:1022E00088831B830A8381E0DF91CF911F910F9137
:1022F0000895CF93DF93EC0188819981892B29F090
:102300008A819B818617970760F4CE010E945F1136
:10231000882341F08C819D81892B19F4E881F98112
:10232000108281E0DF91CF910895EF92FF920F9399
:102330001F93CF93DF93EC017B016C817D81E114CE
:10234000F104C1F04115510599F08A01060F171FDC
:10235000B8010E947911882369F0888199812C81C4
:102360003D81820F931FB7010E94B1011D830C8331
:1023700081E001C080E0DF91CF911F910F91FF902C
:10238000EF900895DF93CF9300D0CDB7DEB7698388
:102390001A82BE016F5F7F4F41E050E00E949511AD
:1023A0000F900F90CF91DF910895CF93DF93EC01C1
:1023B00088819981009711F00E9431131982188247
:1023C0001D821C821B821A82DF91CF910895EF92A9
:1023D000FF920F931F93CF93DF93EC017B018A0150
:1023E000BA010E947911882321F4CE010E94D511EF
:1023F00007C01D830C8388819981B7010E94B101B8
:10240000CE01DF91CF911F910F91FF90EF90089532
:10241000CF93DF93EC01198218821B821A821D82EE
:102420001C821E826115710551F0DB010D900020A8
:10243000E9F71197A61BB70BAD010E94E711DF91D9
:10244000CF9108950F931F93182F092F61157105D0
:1024500059F0DB010D900020E9F71197A61BB70B8F
:10246000AD010E94E71102C00E94D511812F902F6B
:102470001F910F910895BF92CF92DF92EF92FF923A
:102480000F931F93CF93DF93082FB92E6B017A011F
:10249000E9012417350710F4EA017901802F9B2DFB
:1024A00068E172E00E940812D60114968D919C9109
:1024B00015978E159F05D0F08C179D0708F4EC0139
:1024C000D601ED91FC911197EC0FFD1F1081108248
:1024D0006D917C916E0D7F1D802F9B2D0E9422128D
:1024E000D601ED91FC91EC0FFD1F1083802F9B2DE9
:1024F000DF91CF911F910F91FF90EF90DF90CF90E0
:10250000BF900895CF93DF93EC01FB0186179707E7
:1025100061F0608171816115710529F044815581F7
:102520000E94E71102C00E94D511CE01DF91CF9128
:102530000895FC0111821082138212821582148286
:1025400016820E9482120895FC01808191810E946E
:10255000311308950F931F93CF93DF93BC01823003
:10256000910510F462E070E0E0915903F0915A0394
:10257000A0E0B0E040E050E024C080819181861767
:102580009707D0F08617970771F48281938110978F
:1025900029F013969C938E9312972CC090935A0314
:1025A0008093590327C04115510519F084179507E9
:1025B00018F4EF018D01AC01DF01828193819C0150
:1025C000F9013097D1F641155105F9F0CA01861B82
:1025D000970B8430910580F48A819B810115110548
:1025E00021F0F8019383828304C090935A0380936F
:1025F0005903FE0132962FC0FE01E80FF91F6193C7
:10260000719302979983888326C08DB79EB78857A8
:10261000904020912C0230912D0228173907C8F4E0
:10262000AC01421B530B4617570798F0CB0102969B
:102630004817590770F0820F931F90932D028093D3
:102640002C0290932F0280932E02F90161937193D3
:1026500002C0E0E0F0E0CF01DF91CF911F910F9138
:102660000895CF93DF939C01009709F48FC0EC018C
:1026700022971B821A826091590370915A03611547
:10268000710581F488819981820F931F20912C021A
:1026900030912D022817390739F5D0932D02C093B8
:1026A0002C0274C0DB0140E050E0AC17BD0708F11C
:1026B000BB83AA83FE0121913191E20FF31FAE1774
:1026C000BF0779F48D919C911197280F391F2E5FC8
:1026D0003F4F3983288312968D919C9113979B834A
:1026E0008A834115510571F4D0935A03C09359035D
:1026F0004DC012968D919C911397AD01009711F0EA
:10270000DC01D3CFDA011396DC93CE931297FA0152
:1027100021913191E20FF31FCE17DF0769F4888111
:102720009981280F391F2E5F3F4FFA013183208393
:102730008A819B8193838283E0E0F0E0DB01129643
:102740008D919C911397009719F0BC01FD01F6CF74
:10275000AB014E5F5F4FDB018D919C91840F951F04
:1027600020912C0230912D022817390779F43097E7
:1027700029F410925A031092590302C01382128254
:102780004250504050932D0240932C02DF91CF9144
:1027900008956F927F928F929F92AF92BF92CF9245
:1027A000DF92EF92FF920F931F93CF93DF938C01F1
:1027B000009729F4CB010E94AA128C01B4C08EEFBD
:1027C000E82E8FEFF82EE00EF11E5801A60EB71E70
:1027D000AE14BF0408F4A5C0D7014D915C911197C8
:1027E00046175707B8F04530510508F49CC0CA0198
:1027F00004978617970708F496C042505040461B2E
:10280000570BF501419351936D937C93CF010E9437
:10281000311389C04B01841A950A3801640E751E64
:10282000A0915903B0915A03CC24DD24E0E0F0E0FC
:1028300047C0A615B705A9F5CD91DC911197CE013A
:1028400002968815990568F1CE01881999090296B2
:1028500012962C91129713963C91059758F0F5011A
:1028600022833383C819D909D183C083D7016D93DB
:102870007C9309C04E5F5F4F4C0F5D1FF701518382
:102880004083C901FC01C114D10431F0D601139673
:10289000FC93EE93129747C0F0935A03E0935903C9
:1028A00042C08D919C911197E817F90708F4FC013B
:1028B0006D0112968C91129713969C919C01D901EF
:1028C000109709F0B6CF80912C0290912D028615B9
:1028D0009705B1F4E617F70798F48DB79EB78857B8
:1028E0009040A816B906E8F4B0922D02A0922C02EE
:1028F000B0922F02A0922E02F7017183608313C061
:10290000CB010E94AA12EC01009759F0D7014D911A
:102910005C91B8010E949F01C8010E9431138E0191
:1029200002C000E010E0C801DF91CF911F910F912C
:10293000FF90EF90DF90CF90BF90AF909F908F90DF
:102940007F906F900895FC0191818081813A31F4EC
:10295000913089F080E0933089F40DC0813269F4C0
:102960009B3021F482818093300205C09A3029F493
:1029700082818093310281E0089580E00895EF9292
:10298000FF920F931F938C01E62EDC01ED91FC91D9
:102990000480F581E02D0995F82ED801ED91FC9188
:1029A0000680F781E02DC8016E2D09958F2D90E0EE
:1029B0001F910F91FF90EF90089510924C03109289
:1029C000500310924F0388E492E090934E0380935B
:1029D0004D030895EF92FF920F931F93DF93CF93D0
:1029E0000F92CDB7DEB789838B017A0184E0BE01F7
:1029F0006F5F7F4F41E050E00E94910E84E4B80188
:102A0000A7010E94910E0F90CF91DF911F910F911E
:102A1000FF90EF90089582E048E050E00E94EA14B1
:102A20000895FC011682178210861186128613867D
:102A300014823496BF010E940B150895DC0168389A
:102A400010F0685829C0E62FF0E067FF13C0E05887
:102A5000F04081E090E002C0880F991FEA95E2F70C
:102A6000809514962C911497282314962C931497E0
:102A700060E012C0ED59FD4F6491662319F420E027
:102A800030E01DC067FF08C014968C9114978D7FAD
:102A900014968C9314976F77FD0190E0662321F0D4
:102AA0008681861709F416829F5F31969630B1F7BA
:102AB000CD011496BD010E940B1521E030E0C90143
:102AC0000895CF93DF93DC01683810F0685825C073
:102AD000E62FF0E067FF12C0E058F04081E090E0A0
:102AE00002C0880F991FEA95E2F714962C9114976B
:102AF000282B14962C93149760E00FC0ED59FD4FCE
:102B000064916623D9F167FF08C014968C911497DD
:102B1000826014968C9314976F7716968C91169703
:102B20008617A9F117968C911797861781F1189639
:102B30008C911897861759F119968C9119978617C9
:102B400031F11A968C911A97861709F11B968C9180
:102B50001B978617E1F0ED01E0E0F0E09E2F8E81FB
:102B6000882321F4EA0FFB1F668306C09F5F31961E
:102B70002196E630F10591F7963049F481E090E036
:102B800013969C938E93129720E030E007C0CD01FE
:102B90001496BD010E940B1521E030E0C901DF91C0
:102BA000CF91089580E865EE71E045E650E00E941F
:102BB0000C0E0895FC0180818F5F808380E86AE4B9
:102BC00072E049E150E00E940C0E08955058BB2776
:102BD000AA270ED075C166D130F06BD120F031F448
:102BE0009F3F11F41EF45BC10EF4E095E7FB51C169
:102BF000E92F77D180F3BA17620773078407950727
:102C000018F071F49EF58FC10EF4E0950B2EBA2FDB
:102C1000A02D0B01B90190010C01CA01A0011124E2
:102C2000FF27591B99F0593F50F4503E68F11A168E
:102C3000F040A22F232F342F4427585FF3CF46951F
:102C400037952795A795F0405395C9F77EF41F1641
:102C5000BA0B620B730B840BBAF09150A1F0FF0F0B
:102C6000BB1F661F771F881FC2F70EC0BA0F621FF7
:102C7000731F841F48F4879577956795B795F795E7
:102C80009E3F08F0B3CF9395880F08F09927EE0F79
:102C9000979587950895D9D008F481E008950CD0D0
:102CA0000FC107D140F0FED030F021F45F3F19F0A2
:102CB000F0C0511139C1F3C014D198F39923C9F36D
:102CC0005523B1F3951B550BBB27AA276217730732
:102CD000840738F09F5F5F4F220F331F441FAA1FE6
:102CE000A9F333D00E2E3AF0E0E830D091505040A6
:102CF000E695001CCAF729D0FE2F27D0660F771F54
:102D0000881FBB1F261737074807AB07B0E809F035
:102D1000BB0B802DBF01FF2793585F4F2AF09E3FCA
:102D2000510568F0B6C000C15F3FECF3983EDCF39C
:102D3000869577956795B795F7959F5FC9F7880F43
:102D4000911D9695879597F90895E1E0660F771F95
:102D5000881FBB1F621773078407BA0720F0621B26
:102D6000730B840BBA0BEE1F88F7E095089504D01F
:102D70006894B111D9C00895BCD088F09F5790F0E5
:102D8000B92F9927B751A0F0D1F0660F771F881F90
:102D9000991F1AF0BA95C9F712C0B13081F0C3D0AB
:102DA000B1E00895C0C0672F782F8827B85F39F049
:102DB000B93FCCF3869577956795B395D9F73EF4EF
:102DC00090958095709561957F4F8F4F9F4F089597
:102DD000E89409C097FB3EF49095809570956195B5
:102DE0007F4F8F4F9F4F9923A9F0F92F96E9BB276B
:102DF0009395F695879577956795B795F111F8CFE7
:102E0000FAF4BB0F11F460FF1BC06F5F7F4F8F4F51
:102E10009F4F16C0882311F096E911C0772321F047
:102E20009EE8872F762F05C0662371F096E8862FDF
:102E300070E060E02AF09A95660F771F881FDAF736
:102E4000880F9695879597F90895990F0008550F63
:102E5000AA0BE0E8FEEF16161706E807F907C0F020
:102E600012161306E407F50798F0621B730B840B28
:102E7000950B39F40A2661F0232B242B252B21F402
:102E800008950A2609F4A140A6958FEF811D811DA2
:102E9000089597F99F6780E870E060E008959FEFDC
:102EA00080EC089500240A941616170618060906E1
:102EB000089500240A9412161306140605060895B0
:102EC000092E0394000C11F4882352F0BB0F40F438
:102ED000BF2B11F460FF04C06F5F7F4F8F4F9F4F78
:102EE000089557FD9058440F551F59F05F3F71F0FA
:102EF0004795880F97FB991F61F09F3F79F0879561
:102F00000895121613061406551FF2CF4695F1DFE9
:102F100008C0161617061806991FF1CF8695710579
:102F2000610508940895E894BB2766277727CB01AD
:102F300097F908958ADF08F48FEF08950BD0C0CF7A
:102F4000B1DF28F0B6DF18F0952309F0A2CFA7CFA4
:102F50001124EACFC6DFA0F3959FD1F3950F50E07F
:102F6000551F629FF001729FBB27F00DB11D639F3B
:102F7000AA27F00DB11DAA1F649F6627B00DA11DE1
:102F8000661F829F2227B00DA11D621F739FB00D87
:102F9000A11D621F839FA00D611D221F749F3327F7
:102FA000A00D611D231F849F600D211D822F762F90
:102FB0006A2F11249F5750408AF0E1F088234AF08D
:102FC000EE0FFF1FBB1F661F771F881F91505040D9
:102FD000A9F79E3F510570F05CCFA6CF5F3FECF3A1
:102FE000983EDCF3869577956795B795F795E795C5
:102FF0009F5FC1F7FE2B880F911D9695879597F9D6
:10300000089523DF880B990B0895629FD001739F69
:10301000F001829FE00DF11D649FE00DF11D929F74
:10302000F00D839FF00D749FF00D659FF00D9927B3
:10303000729FB00DE11DF91F639FB00DE11DF91FD7
:10304000BD01CF0111240895A1E21A2EAA1BBB1BBA
:10305000FD010DC0AA1FBB1FEE1FFF1FA217B30764
:10306000E407F50720F0A21BB30BE40BF50B661F7A
:10307000771F881F991F1A9469F76095709580953E
:1030800090959B01AC01BD01CF01089597FB092EDE
:1030900005260ED057FD04D0D7DF0AD0001C38F427
:1030A00050954095309521953F4F4F4F5F4F089574
:1030B000F6F790958095709561957F4F8F4F9F4F54
:1030C0000895EE0FFF1F0590F491E02D09942F92C3
:1030D0003F924F925F926F927F928F929F92AF92A8
:1030E000BF92CF92DF92EF92FF920F931F93CF93F5
:1030F000DF93CDB7DEB7CA1BDB0B0FB6F894DEBF8C
:103100000FBECDBF09942A88398848885F846E84B1
:103110007D848C849B84AA84B984C884DF80EE80FB
:10312000FD800C811B81AA81B981CE0FD11D0FB604
:10313000F894DEBF0FBECDBFED010895F894FFCF28
:103140004C003000537461747573206C6564206F9B
:103150006666003100537461747573206C65642079
:103160006F6E0052004300436F6E74696E6F75732B
:103170002052656164696E67204F6E004500436FA1
:103180006E74696E6F75732052656164696E672035
:103190004F666600530043616C696272617465201A
:1031A0003700460043616C696272617465203400C7
:1031B000540043616C69627261746520313000496A
:1031C000004C656F50686920496E666F3A20466909
:1031D000726D7761726520566572200070482037E5
:1031E0002063616C3A2000207C200070482034204D
:1031F00063616C3A200070482070726F62652073C2
:103200006C6F70653A200058005265736574696E82
:103210006720746F2064656661756C7420736574D3
:1032200074696E6773000070485261773A200070CD
:103230004831306269743A20004D696C69766F6C70
:1032400074733A200070483A20006E616E00696E17
:1032500066006F7666002E00001A000A000B000957
:103260000005000100E10000000000005B036400B5
:10327000010100000000820A490B210A480A2F0AB6
:10328000AA0AAE0A00000000BF14490B61151E1502
:02329000111516
:00000001FF

