:1070000055C000006EC000006CC000006AC00000E7
:1070100068C0000066C0000064C0000062C00000DC
:1070200060C000005EC00000FCC400005AC0000048
:1070300058C0000056C0000054C0000052C00000FC
:1070400050C0000081C000004CC000004AC00000D9
:1070500048C0000046C0000044C0000042C000001C
:1070600040C000003EC000003CC000003AC000002C
:1070700038C0000036C0000034C0000032C000003C
:1070800030C000002EC000002CC000002AC000004C
:1070900028C0000026C0000024C0000022C000005C
:1070A00020C000001EC000001CC0000011241FBE34
:1070B000CFEFDAE0DEBFCDBF11E0A0E0B1E0EAE162
:1070C000FFE702C005900D92A83AB107D9F711E089
:1070D000A8EAB1E001C01D92AE3BB107E1F799D338
:1070E0001AC78ECFF89410926F0010928100109200
:1070F00085001092840081E085BF15BE85B18F6741
:1071000085B985B18F6D85B985B18F6B85B90C94C3
:10711000000008952091B2013091B3012F5F3F4FDD
:107120003093B3012093B201932F37FF03C08EEF4A
:10713000831B982F990F921718F485B18F6702C09F
:1071400085B1807885B908951F920F920FB60F927E
:1071500011242F938F939F93EF93FF9310928500A9
:10716000109284008091A8019091A901009751F09C
:1071700001979093A9018093A801892B19F485B1F7
:107180008F6D85B98091AA019091AB01009751F064
:1071900001979093AB018093AA01892B19F485B1D3
:1071A0008F6B85B9E0E0F0E0859194918F5F9F4F00
:1071B00049F08091AC019091AD0101969093AD01A1
:1071C0008093AC01FF91EF919F918F912F910F9040
:1071D0000FBE0F901F90189584E08093E9000DC0BA
:1071E0008091E8008B778093E80003C08EB38823FA
:1071F00051F08091E80082FFF9CF8091E80085FF8F
:10720000EFCF8091F1000895982F83E08093E900FB
:107210008091E80085FD0DC08091E8008E77809315
:10722000E80003C08EB3882379F08091E80080FFE6
:10723000F9CF9093F10085B1807285B984E690E032
:107240009093A9018093A80108954F925F926F9245
:107250007F928F929F92AF92BF92CF92DF92EF92E6
:10726000FF920F931F93CF93DF9384E08093E90005
:107270008091E80082FF4CC285B1807485B984E6B4
:1072800090E09093AB018093AA01A6DF182F85347C
:1072900081F48CE49DE19093AD018093AC0107B63D
:1072A00000FCFDCFF999FECF81E180935700E8956E
:1072B00003C0843519F490DF8DE000C28C34E1F313
:1072C0008035D1F3843721F484E49EDF80E0F6C179
:1072D000813611F489E5F2C18134F1F47DDF182F94
:1072E0007BDF90E0880F991FAA2797FDA095BA2F02
:1072F000312F330F20E0442737FD4095542F822B48
:10730000932BA42BB52B8093AE019093AF01A09348
:10731000B001B093B101D0CF803711F483E5CEC175
:10732000833549F4C0E0D1E089916EDF21E0C730B8
:10733000D207D1F7C4C1863521F481E365DF80E34C
:10734000BDC1833731F487E85FDF85E95DDF8EE11A
:10735000B5C18536B9F4E0E0F0E093E085E09093C4
:107360005700E89507B600FCFDCF80935700E895DD
:1073700007B600FCFDCFE058FF4FA0E7E030FA076A
:1073800071F79ACF823739F489E0E1E0F0E0809339
:107390005700849193C1863439F489E0E0E0F0E04D
:1073A0008093570084918AC18E3439F489E0E3E0F8
:1073B000F0E080935700849181C1813539F489E0F0
:1073C000E2E0F0E080935700849178C1823631F496
:1073D00089E51ADF80E018DF80E870C1823419F097
:1073E000873609F0D3C01092AD011092AC01F4DEE3
:1073F000082FF2DEF82EF0DE682E8554823008F079
:107400005CC1902F80E08F2C9924882A992A1092B1
:107410006F00A090AE01B090AF01C090B001D090CD
:10742000B101173609F044C081E180935700E89517
:1074300086017501DD24CC24C3942EC0B6E46B16FE
:1074400099F4ED2DF0E0EE29FF29E4918E2FDCDE9A
:10745000DD2041F082E090E0A0E0B0E0E80EF91E0F
:107460000A1F1B1FDC2415C0F999FECFD801C701E4
:10747000B695A7959795879592BD81BDF89A80B5E9
:10748000C3DE82E090E0A0E0B0E0E80EF91E0A1F43
:107490001B1F0894810891088114910479F6E092E9
:1074A000AE01F092AF010093B0011093B1016AC038
:1074B00096E4691609F047C083E0F5018093570010
:1074C000E89507B600FCFDCF3EC0F6E46F16E1F488
:1074D0007720B1F081DED82FC0E0852D90E08C2B95
:1074E0009D2BF7010C0140925700E895112482E092
:1074F00090E0A0E0B0E0E80EF91E0A1F1B1F02C0DA
:107500006BDE582E74241BC067DE282FF999FECF3E
:107510001FBAD801C701B695A7959795879592BDD3
:1075200081BD20BD0FB6F894FA9AF99A0FBE82E099
:1075300090E0A0E0B0E0E80EF91E0A1F1B1F0894BF
:107540008108910806C086017501552477244424DA
:1075500043948114910409F0B8CFE092AE01F09207
:10756000AF010093B0011093B10196E4691641F4A4
:1075700085E0F50180935700E89507B600FCFDCF44
:107580008DE042DE82E080936F0099C0833471F415
:107590000091AE011091AF011FDE90E021E0F801F3
:1075A0000C0120935700E895112486CE833699F478
:1075B000E090AE01F090AF010091B0011091B101E7
:1075C0000BDEF701E16090E021E00C012093570011
:1075D000E895112437C08D3661F4E091AE01F09149
:1075E000AF0185E080935700E89507B600FCFDCF1A
:1075F00063CE823551F4E091AE01F091AF01059177
:107600001491812F01DE802F59C0843461F5E09000
:10761000AE01F090AF010091B0011091B101DCDD3D
:10762000282FF999FECF1FBAD801C701B695A795A3
:107630009795879592BD81BD20BD0FB6F894FA9AB3
:10764000F99A0FBE82E090E0A0E0B0E0E80EF91EEB
:107650000A1F1B1FE092AE01F092AF010093B00130
:107660001093B10129CE843631F5E090AE01F0904F
:10767000AF010091B0011091B101F999FECFD8018D
:10768000C701B695A7959795879592BD81BDF89A44
:1076900080B5BADD82E090E0A0E0B0E0E80EF91E2F
:1076A0000A1F1B1FE092AE01F092AF010093B001E0
:1076B0001093B10104C08B3111F08FE3A5DD83E09D
:1076C0008093E9009091E8008091E8008E778093A4
:1076D000E80095FF04C010C08EB38823C9F08091E4
:1076E000E80080FFF9CF8091E8008E778093E80072
:1076F00003C08EB3882361F08091E80080FFF9CF4A
:1077000084E08093E9008091E8008B778093E80023
:10771000DF91CF911F910F91FF90EF90DF90CF906D
:10772000BF90AF909F908F907F906F905F904F90A1
:1077300008959091B601892F8F77813249F5809114
:10774000B7018032A1F0813219F5913A09F58091A3
:10775000E800877F8093E8008DE091E067E070E0CB
:1077600011D28091E8008B778093E80008959132E0
:1077700079F48091E800877F8093E8008DE091E0C4
:1077800067E070E063D28091E8008E778093E80034
:10779000089582E061EC42E0BBD083E061E842E121
:1077A000B7D084E060E842E1B3C084B7877F84BF8C
:1077B00088E10FB6F89480936000109260000FBECD
:1077C00020E880E090E00FB6F89420936100809369
:1077D00061000FBE81E085BF92E095BF279A259A90
:1077E000269AE1E6F0E02083108285B18F6785B9A3
:1077F00085B18F6D85B985B18F6B85B91092890080
:107800008AEF8093880090936F0083E080938100DB
:10781000F0C04091000850910108109201081092A8
:10782000000894B714BE88E10FB6F8948093600006
:10783000109260000FBE292F30E0F901E270F07065
:1078400091FD18C090FF05C0859194918F5F9F4F67
:1078500081F423FF0FC08091090190910A0148171C
:10786000590741F0E0E0F0E0859194918F5F9F4FE0
:1078700009F038DC9ADF78941092AD011092AC01D7
:107880000CC0E3DC36D38091AC019091AD01815402
:107890009F4110F0109214013DDC80911401882367
:1078A00081F78091E00081608093E0001BDC80E044
:1078B00090E00895FA01923049F0933061F09130F0
:1078C000F9F485E191E022E130E01EC087E291E029
:1078D0002EE330E019C0882329F485E691E024E006
:1078E00030E012C0813029F489E691E022E230E0F4
:1078F0000BC0823029F48DE891E028E130E004C02B
:1079000080E090E020E030E091838083C901089519
:107910008093E9008091EB0081608093EB001092EE
:10792000ED006093EC004093ED008091EE00881F25
:107930008827881F08958091B60188238CF403C09E
:107940008EB38823B1F08091E80082FFF9CF809157
:10795000E8008B778093E80008958EB3882349F080
:107960008091E80080FFF9CF8091E8008E778093C6
:10797000E8000895EF92FF920F931F9345D04CD0EB
:1079800008ED10E0F80180818F7780838081806826
:10799000808380818F7D808319BC1EBA1092B401D0
:1079A00080EEE82EF12CF70180818B7F8083F80137
:1079B00080818160808380E060E042E0A9DFE1EEC9
:1079C000F0E080818E7F8083E2EEF0E08081816054
:1079D0008083808188608083F70180818E7F8083AF
:1079E000F8018081806180831F910F91FF90EF905B
:1079F0000895E7EDF0E08081816080838AE482BFB2
:107A000081E08093B501B6CFE8EDF0E080818E7F14
:107A100080831092E20008951092DA001092E10043
:107A200008951F920F920FB60F9211242F933F9338
:107A30004F935F936F937F938F939F93AF93BF9376
:107A4000EF93FF938091DA0080FF1BC08091D800F4
:107A500080FF17C08091DA008E7F8093DA008091DA
:107A6000D90080FF0BC080E189BD82E189BD09B4E6
:107A700000FEFDCF81E08EBB3BD203C019BC1EBA15
:107A800037D28091E10080FF17C08091E20080FF33
:107A900013C08091E2008E7F8093E2008091E2002B
:107AA00080618093E2008091D80080628093D8004A
:107AB00019BC85E08EBB1CD28091E10084FF2CC0F4
:107AC0008091E20084FF28C080E189BD82E189BD08
:107AD00009B400FEFDCF8091D8008F7D8093D8003F
:107AE0008091E1008F7E8093E1008091E2008F7EA3
:107AF0008093E2008091E20081608093E2008091B7
:107B0000B401882331F48091E30087FD02C081E055
:107B100001C084E08EBBECD18091E10083FF21C0E5
:107B20008091E20083FF1DC08091E100877F8093F8
:107B3000E10082E08EBB1092B4018091E1008E7F63
:107B40008093E1008091E2008E7F8093E20080913B
:107B5000E20080618093E20080E060E042E0D8DEF5
:107B6000C7D1FF91EF91BF91AF919F918F917F917D
:107B70006F915F914F913F912F910F900FBE0F909A
:107B80001F9018959C014091BC015091BD01461772
:107B9000570718F4F90190E044C06115710511F020
:107BA000AB01F8CF8091E8008E778093E80040E049
:107BB00050E0F0CF8EB3882309F444C0853009F437
:107BC00043C08091E80083FF02C081E00895809166
:107BD000E80082FD31C08091E80080FF22C08091E2
:107BE000F3009091F200782F60E0292F30E0262BEF
:107BF000372B07C081918093F100415050402F5F97
:107C00003F4F4115510519F02830310598F390E0A8
:107C10002830310509F491E08091E8008E77809357
:107C2000E8004115510531F6992321F605C08EB3C0
:107C3000882341F0853041F08091E80082FFF7CF42
:107C400080E0089582E0089583E008959C01611525
:107C5000710529F48091E8008B778093E800F901A1
:107C600026C08EB3882391F1853091F18091E80090
:107C700083FF02C081E008958091E80082FFF1CF88
:107C800006C08091F10081936150704059F02091BD
:107C9000F3008091F200322F20E090E0822B932BB2
:107CA000892B79F78091E8008B778093E800611544
:107CB0007105B9F605C08EB3882341F0853041F0D7
:107CC0008091E80080FFF7CF80E0089582E008957A
:107CD00083E008950F931F93DF93CF9300D0CDB728
:107CE000DEB7E6EBF1E08091F100819381E0EE3BBD
:107CF000F807C9F71EDD8091E80083FFE4C080919A
:107D0000B6019091B701953009F46DC0963040F4FA
:107D1000913081F1913070F0933009F0D4C02AC0D5
:107D2000983009F4A3C0993009F4B2C0963009F034
:107D3000CAC07CC0803809F4C6C0823809F0C3C00C
:107D40008091BA0187708093E9008091EB001092D6
:107D5000E9002091E800277F2093E80090E025E0EB
:107D6000969587952A95E1F781708093F10010929E
:107D7000F10087C0882319F0823009F0A4C08F7108
:107D8000823009F0A0C08091B801882331F520919C
:107D9000BA01277009F497C02093E9008091EB00A5
:107DA00080FF1BC0933021F48091EB00806213C0F0
:107DB0008091EB0080618093EB0081E090E002C055
:107DC000880F991F2A95E2F78093EA001092EA0043
:107DD0008091EB0088608093EB001092E900809125
:107DE000E800877F51C0882309F06DC01091B80169
:107DF0001F770FB7F8948091E800877F8093E800A1
:107E00009ADD8091E80080FFFCCF8091E3008078CC
:107E1000812B8093E30080688093E300112311F4A9
:107E200082E001C083E08EBB0FBF4DC0805882301E
:107E300008F049C08091B8019091B9016091BA01F0
:107E4000AE014F5F5F4F36DDBC01009709F43BC0C8
:107E50008091E800877F8093E80089819A8192DE93
:107E60008091E8008B778093E8002DC0803859F529
:107E70008091E800877F8093E8008091B40180932F
:107E8000F1008091E8008E778093E80054DD1BC0FC
:107E90008823C9F49091B8019230A8F48091E80049
:107EA000877F8093E8009093B40145DD8091B40111
:107EB000882331F48091E30087FD02C081E001C096
:107EC00084E08EBB66DC8091E80083FF0AC080916D
:107ED000EB0080628093EB008091E800877F8093C5
:107EE000E8000F900F90CF91DF911F910F910895AF
:107EF00008951F938EB3882361F01091E9001092CA
:107F0000E9008091E80083FF01C0E4DE1770109360
:0A7F1000E9001F910895F894FFCFD7
:107F1A004341544552494E4100777700080000001A
:107F2A0000000008011201100102000008501D168D
:107F3A000001000201000109023E00020100803234
:107F4A0009040000010202010005240010010424B2
:107F5A0002040524060001070582030800FF09043C
:107F6A000100020A000000070504021000010705CB
:107F7A0083021000010403090422034C0065006F08
:107F8A0000500068006900200070004800200020AE
:107F9A000020002000200020002000000018034FCD
:107FAA0000700065006E006D006F006B006F004985
:087FBA00006E006300000000EE
:040000030000700089
:100000000C9475010C949D010C949D010C949D0120
:100010000C949D010C949D010C949D010C949D01E8
:100020000C949D010C949D010C94440C0C94CF0CE9
:100030000C949D010C949D010C949D010C949D01C8
:100040000C949D010C949D010C949D010C949D01B8
:100050000C949D010C949D010C949D010C94D10F66
:100060000C949D010C949D010C949D010C949D0198
:100070000C949D010C949D010C949D010C949D0188
:100080000C949D010C949D010C949D010C949D0178
:100090000C949D010C949D010C949D010C949D0168
:1000A0000C949D010C949D010C949D01080B000281
:1000B0000202010009040000010202000005240000
:1000C0001001052401010104240206052406000193
:1000D0000705810310004009040100020A00000026
:1000E00007050202400000070583024000000403E8
:1000F000090422034C0065006F005000680069008D
:1001000020005500530042002000700048002000ED
:100110002000200018034F00700065006E006D0085
:100120006F006B006F0049006E0063001201000257
:1001300000000040501D1660000101020001120184
:10014000000202000040501D166000010102000183
:1001500000C18081C100000000240027002A002D7A
:1001600000300000000000250028002B002E003188
:1001700000000000002300260029002C002F0004AE
:10018000040404040304050202020204030202023E
:100190000206060606060604040202020404080219
:1001A00001104080401020408040800802040180FF
:1001B000402010020110801020404000000002008A
:1001C000080E0000030401000B0000000000000006
:1001D0000000000000000000000706050401000800
:1001E0000A0B0C0D0905010902A1010901A10085F5
:1001F00001050919012903150025019503750181E0
:100200000295017505810305010930093109381589
:1002100081257F750895038106C0C005010906A1E7
:10022000018502050719E029E715002501750195EB
:10023000088102950175088103950675081500254A
:10024000650507190029658100C009040200010342
:100250000000000921010100012265000705840357
:1002600040000100000000000000002A2B280000D0
:10027000000000000000000000000000000000007E
:100280000000002C9EB4A0A1A2A434A6A7A5AE365F
:100290002D3738271E1F20212223242526B333B6CD
:1002A0002EB7B89F8485868788898A8B8C8D8E8FA0
:1002B000909192939495969798999A9B9C9D2F31A3
:1002C00030A3AD350405060708090A0B0C0D0E0F07
:1002D000101112131415161718191A1B1C1DAFB183
:1002E000B0B500009B07780BC31411241FBECFEFDD
:1002F000DAE0DEBFCDBF12E0A0E0B1E0ECE0F1E378
:1003000002C005900D92AE35B107D9F714E0AEE505
:10031000B2E001C01D92A938B107E1F712E0CAEEC0
:10032000D2E004C02297FE010E944918C43ED107C2
:10033000C9F70E94BE0F0C9484180C940000FB01B6
:10034000DC0102C001900D9241505040D8F7089551
:10035000FB01DC018D91019080190110D9F3990BFB
:100360000895FB01DC0101900D920020E1F7089552
:10037000FB01DC014150504030F08D91019080191B
:1003800019F40020B9F7881B990B0895A0E0B0E09C
:10039000ECECF1E00C9457187C01EB018A01690147
:1003A00009C0CE012196F6010995F70181937F01DD
:1003B0000150104001151105A1F7CDB7DEB7E8E0F7
:1003C0000C947318A0E0B0E0E8EEF1E00C9457183C
:1003D000EC017B018A01690109C0CE012196F70178
:1003E00061917F01F6010995015010400115110539
:1003F000A1F7CDB7DEB7E8E00C9473189C01F9992A
:10040000FECF32BD21BDF89A80B508959C01F999BF
:10041000FECF1FBA32BD21BD60BD0FB6F894FA9A67
:10042000F99A0FBE0895EF92FF920F931F93609178
:10043000080470910904882777FD8095982F0E9401
:10044000D01620E030E040EA50E40E94841720E01B
:1004500030E040E85AE30E94841720E030E04AE7A9
:1004600054E40E9484177B018C016091FE0370911B
:10047000FF03882777FD8095982F0E94D01620E0F3
:1004800030E040E85AE30E94841720E030E040EA80
:1004900050E40E94841720E030E04AE754E40E94D0
:1004A00084179B01AC01C801B7010E94CC1520E064
:1004B00030E048EA50E40E94351620911004309153
:1004C000110440911204509113040E9435169B01AF
:1004D000AC0160E070E080EE90E40E94CC15609387
:1004E00000047093010480930204909303041F910D
:1004F0000F91FF90EF90089584E392E190930704A9
:100500008093060481E080930F0410920E0480E033
:1005100092E090930904809308048EE791E0909311
:100520000B0480930A048AE793E090930D04809370
:100530000C0487ED93EAACE6B2E480931004909348
:100540001104A0931204B093130480E090E066E0DD
:1005500074E04EE050E026E032E00E94E2010895AF
:10056000833509F05BC088E594E060E071E00E94AB
:10057000B1096091FE037091FF0388E594E04AE0C1
:1005800050E00E947F0988E594E068E071E00E94F5
:10059000B10988E594E06CE071E00E94B1094091F6
:1005A000000450910104609102047091030488E5F5
:1005B00094E022E030E00E94980A88E594E068E048
:1005C00071E00E94B10988E594E061E171E00E9468
:1005D000B1096091FE037091FF03882777FD809534
:1005E000982F0E94D01620E030E040E85AE30E94A5
:1005F000841720E030E040EA50E40E94841720E0B5
:1006000030E04AE754E40E948417AB01BC0188E55E
:1006100094E022E030E00E949B0A0895893409F0BA
:1006200064C088E594E06EE171E00E94B10988E55C
:1006300094E062E070E04AE050E00E94920988E5B0
:1006400094E069E371E00E94B1096091080470913F
:10065000090488E594E04AE050E00E947F0988E5BB
:1006600094E068E071E00E94B10988E594E064E4F8
:1006700071E00E94B10960910A0470910B0488E551
:1006800094E04AE050E00E947F0988E594E068E049
:1006900071E00E94B10988E594E06FE471E00E9486
:1006A000B10960910C0470910D0488E594E04AE072
:1006B00050E00E947F0988E594E068E071E00E94C4
:1006C000B10988E594E06BE571E00E94B1094091C1
:1006D000100450911104609112047091130488E584
:1006E00094E022E030E00E949B0A0895CF92DF92CE
:1006F000FF920F931F93DF93CF93CDB7DEB7CD5407
:10070000D0400FB6F894DEBF0FBECDBF6C018E0196
:100710000F5F1F4FC8016CE671E00E941C0FC601FD
:10072000B8010E94600EF82EC8010E94B80FFF2089
:1007300009F45EC08E01085F1F4FC801B60142E098
:1007400050E021E030E00E944F0FC8016EE671E0FA
:100750000E941A0EF82EC8010E94B80FFF20D9F08F
:10076000109205048091220261E00E94401288E507
:1007700094E060E771E00E94AE0A809105048093E6
:100780000F0480E090E066E074E04EE050E026E088
:1007900032E00E94E2018E01015F1F4FC801B601E5
:1007A00042E050E021E030E00E944F0FC8016FE7C7
:1007B00071E00E941A0EF82EC8010E94B80FFF20A7
:1007C000B9F081E08093050488E594E061E871E088
:1007D0000E94AE0A8091050480930F0480E090E0AF
:1007E00066E074E04EE050E026E032E00E94E20174
:1007F0008E010A5E1F4FC8016FE871E00E941C0F56
:10080000C601B8010E94600EF82EC8010E94B80F00
:10081000FF2081F00E9413024091000450910104D6
:10082000609102047091030488E594E022E030E0D6
:100830000E949B0A8E01035E1F4FC80161E971E0AF
:100840000E941C0FC601B8010E94600EF82EC8015C
:100850000E94B80FFF20B9F081E08093040488E57E
:1008600094E063E971E00E94AE0A809104048093F1
:100870000E0480E090E066E074E04EE050E026E098
:1008800032E00E94E2018E010C5D1F4FC80169EA4F
:1008900071E00E941C0FC601B8010E94600EF82E84
:1008A000C8010E94B80FFF20B1F01092040488E53F
:1008B00094E06BEA71E00E94AE0A80910404809398
:1008C0000E0480E090E066E074E04EE050E026E048
:1008D00032E00E94E2018E01055D1F4FC80162EC0B
:1008E00071E00E941C0FC601B8010E94600EF82E34
:1008F000C8010E94B80FFF20C1F088E594E064ECC5
:1009000071E00E94AE0A8091FE039091FF039093E4
:1009100009048093080480E090E066E074E04EE013
:1009200050E026E032E00E94E2018E010E5C1F4F93
:10093000C80160ED71E00E941C0FC601B8010E9461
:10094000600EF82EC8010E94B80FFF2009F44AC0BB
:1009500088E594E062ED71E00E94AE0A2091FE030A
:100960003091FF0330930B0420930A046091080434
:1009700070910904621B730B882777FD8095982F6F
:100980000E94D01620E030E040EA50E40E94841734
:1009900020E030E040E85AE30E94841720E030E095
:1009A0004AE754E40E94841720E030E048EA50E42B
:1009B0000E94351620E030E040E450E40E943516F5
:1009C00060931004709311048093120490931304A5
:1009D00080E090E066E074E04EE050E026E032E037
:1009E0000E94E2018E01075C1F4FC8016EED71E0AD
:1009F0000E941C0FC601B8010E94600EF82EC801AB
:100A00000E94B80FFF2009F44AC088E594E060EE28
:100A100071E00E94AE0A6091FE037091FF03709333
:100A20000D0460930C042091080430910904621BAA
:100A3000730B882777FD8095982F0E94D01620E0B1
:100A400030E040EA50E40E94841720E030E040E8C3
:100A50005AE30E94841720E030E04AE754E40E9401
:100A6000841720E030E048EA50E40E94351620E088
:100A700030E040E450E40E94351660931004709317
:100A80001104809312049093130480E090E066E0D8
:100A900074E04EE050E026E032E00E94E2018E0178
:100AA000005C1F4FC8016DEE71E00E941C0FC60173
:100AB000B8010E94600EF82EC8010E94B80FFF20F6
:100AC00069F086E094E060E070E04EE050E02EEFE8
:100AD00031E00E94C60189E40E94B0028E01095BE8
:100AE0001F4FC8016FEE71E00E941C0FC601B801D4
:100AF0000E94600EF82EC8010E94B80FFF2041F03E
:100B000088E594E061EF71E00E94AE0A0E947C02E9
:100B1000C35BDF4F0FB6F894DEBF0FBECDBFCF91E2
:100B2000DF911F910F91FF90DF90CF9008951F9359
:100B3000182F0E94D610812F0E94D6101F91089561
:100B40009F92AF92BF92CF92DF92EF92FF920F935C
:100B50001F93DF93CF93CDB7DEB72E970FB6F894E0
:100B6000DEBF0FBECDBF0E9419105B016C018091EA
:100B7000640290916502A0916602B0916702A6019D
:100B80009501281B390B4A0B5B0B80912A0290912F
:100B90002B02AA2797FDA095BA2F82179307A407C7
:100BA000B50708F0A7C0A0926402B0926502C09297
:100BB0006602D0926702E091F803F091F903EE0F1C
:100BC000FF1FE859FD4F20813181442737FD4095B3
:100BD000542F8091FA039091FB03A091FC03B091F4
:100BE000FD03821B930BA40BB50B8093FA03909328
:100BF000FB03A093FC03B093FD0384E061E00E943B
:100C000040120091F8031091F90380911E02909117
:100C10001F020E949705000F111F08591D4FF80170
:100C20009183808384E060E00E9440122091F80369
:100C30003091F903F901EE0FFF1FE859FD4F808154
:100C40009181AC01662757FD6095762F8091FA035C
:100C50009091FB03A091FC03B091FD03480F591F35
:100C60006A1F7B1F4093FA035093FB036093FC03BE
:100C70007093FD032F5F3F4F3093F9032093F803E8
:100C8000283C310524F01092F9031092F803CB01AF
:100C9000BA0128EC30E040E050E00E942C1830937C
:100CA000FF032093FE0380910504882319F16091CE
:100CB0005E0270915F02809122020E940E112091CB
:100CC00026023091270280915E0290915F02820F8E
:100CD000931F90935F0280935E02009719F08F3FFD
:100CE000910541F488279927821B930B9093270243
:100CF0008093260288E594E00E945107892B29F110
:100D00008E010F5F1F4FC8016EE072E00E941C0F42
:100D1000EE24FF24902E012F88E594E00E945107D5
:100D2000892B09F449C0F2E1EF16F10409F444C03B
:100D300088E594E00E947807682F892D902F0E9403
:100D4000D60E0894E11CF11CE7CF0E94130280919B
:100D5000600290916102A0916202B0916302A601CB
:100D60009501281B390B4A0B5B0B8091280290914F
:100D70002902AA2797FDA095BA2F82179307A407E7
:100D8000B50778F5A0926002B0926102C09262024B
:100D9000D092630280910404882341F08091240260
:100DA00060E00E94401283E50E94B002809124021C
:100DB00061E00E94401215C08E01085F1F4FC801FC
:100DC0007E010894E11CF11CB7010E94AD0FC8011F
:100DD0000E947603C8010E94B80FC7010E94B80F95
:100DE000B4CF2E960FB6F894DEBF0FBECDBFCF9115
:100DF000DF911F910F91FF90EF90DF90CF90BF9008
:100E0000AF909F9008958091200261E00E94B311FD
:100E10008091240261E00E94B3118091220261E07E
:100E20000E94B31184E061E00E94B311809124021A
:100E300061E00E9440128091220261E00E94401213
:100E40008091200261E00E94401280911E0260E0C9
:100E50000E94B31186E094E060E070E04EE050E064
:100E60002EEF31E00E94C60180910E0480930404AD
:100E700080910F04809305048091060490910704EB
:100E80008453924111F00E947C0289E40E94B002D6
:100E9000E8E6F2E01192119283E0E83FF807D1F71B
:100EA00008952091540430915504809156049091F6
:100EB0005704281B390B2F733070C90108952091F6
:100EC000540430915504809156049091570428178A
:100ED000390719F42FEF3FEF09C0E0915604F09164
:100EE0005704EC5EFB4F8081282F30E0C901089544
:100EF00020915404309155048091560490915704E8
:100F00002817390719F42FEF3FEF13C0E09156046B
:100F1000F0915704EC5EFB4F208180915604909134
:100F2000570401968F7390709093570480935604E2
:100F300030E0C901089510925B0410925A0488EEC3
:100F400093E0A0E0B0E080935C0490935D04A093F4
:100F50005E04B0935F0481E492E09093590480931F
:100F6000580408950F931F93DF93CF930F92CDB73B
:100F7000DEB78C01698380913302882369F083E0B6
:100F8000BE016F5F7F4F41E050E00E949D0B18163D
:100F9000190614F49C0107C081E090E0F8019383E6
:100FA000828320E030E0C9010F90CF91DF911F9143
:100FB0000F91089583E00E946E0B0895CF93DF9305
:100FC00012C082E00E94F70A2FEF8F3F9207C9F00C
:100FD000E0915404F0915504EC5EFB4F8083D09374
:100FE0005504C0935404C0915404D09155042196E3
:100FF000CF73D0708091560490915704C817D907C9
:1010000001F7DF91CF910895FC0180818E5F80838D
:1010100080E86CEA70E042E450E00E94100B089512
:10102000FC0181819081913A59F4813209F04CC0E0
:1010300080E06CE272E047E050E00E94100B42C09A
:10104000913209F041C0803239F48CE292E067E0DD
:1010500070E00E94540B36C0823209F035C08281A4
:101060008093330280912C0290912D02A0912E0248
:10107000B0912F02805B9440A040B04019F5809160
:10108000330280FD12C087E797E7909301088093B1
:1010900000082BE088E190E00FB6F894A8958093C3
:1010A00060000FBE209360000DC088E10FB6F89479
:1010B00080936000109260000FBEA8951092010806
:1010C0001092000881E0089580E00895CF92DF92A9
:1010D000EF92FF920F931F93CF93DF937C016B01ED
:1010E0008A01C0E0D0E00FC0D6016D916D01D7013B
:1010F000ED91FC910190F081E02DC7010995C80F99
:10110000D91F015010400115110571F7CE01DF9173
:10111000CF911F910F91FF90EF90DF90CF900895A6
:10112000EF92FF920F931F938C01DC01ED91FC91E4
:101130000190F081E02D6DE009957C01D801ED91E1
:10114000FC910190F081E02DC8016AE009959C01B5
:101150002E0D3F1DC9011F910F91FF90EF90089533
:10116000CF93DF93EC016115710519F420E030E0B5
:101170000FC0DB010D900020E9F71197A61BB70BFC
:10118000E881F9810280F381E02DAD0109959C0190
:10119000C901DF91CF9108954F925F927F928F9214
:1011A0009F92AF92BF92CF92DF92EF92FF920F93F6
:1011B0001F93DF93CF93CDB7DEB7A1970FB6F89407
:1011C000DEBF0FBECDBF2C01742ECB01223008F440
:1011D0002AE019A231E2C32ED12CCC0EDD1E822EC4
:1011E0009924AA24BB24672D752FA50194010E9480
:1011F0000A1879018A01C801B701A50194010E946A
:10120000EB17472D461B0894C108D1084A3014F447
:10121000405D01C0495CF6014083E114F104010521
:10122000110521F07E2C5F2DC801DDCFC201B60172
:101230000E94B008A1960FB6F894DEBF0FBECDBFD6
:10124000CF91DF911F910F91FF90EF90DF90CF90A2
:10125000BF90AF909F908F907F905F904F90089538
:10126000DC012115310541F4ED91FC910190F081F3
:10127000E02D642F099508950E94CC080895CF921F
:10128000DF92EF92FF920F931F93CF93DF93EC01C6
:101290006A017B012115310541F4E881F981019052
:1012A000F081E02D642F09951FC02A303105D1F45B
:1012B00077FF17C0E881F9810190F081E02D6DE2A0
:1012C00009958C0144275527BA014C195D096E090F
:1012D0007F09CE012AE00E94CC089801280F391F0F
:1012E00004C02AE00E94CC089C01C901DF91CF9183
:1012F0001F910F91FF90EF90DF90CF900895EF92A4
:10130000FF920F931F937B019A010027F7FC009532
:10131000102FB801A7010E943F091F910F91FF9064
:10132000EF900895CF92DF92EF92FF920F931F9369
:101330006C017B019A010027F7FC0095102FB80182
:10134000A7010E943F098C01C6010E949008080F66
:10135000191FC8011F910F91FF90EF90DF90CF9060
:1013600008950E94B00808957F928F929F92AF9245
:10137000BF92CF92DF92EF92FF920F931F93CF9382
:10138000DF934C017A018B01722ECB01BA01A801C7
:1013900097010E94E717882321F0C4016FE072E0F3
:1013A00021C0C0E0D0E057016801E894D7F8C60139
:1013B000B5012FEF3FEF4FE75FE70E94E717882364
:1013C00051F4C601B5012FEF3FEF4FE75FE70E94F1
:1013D0003116181614F0C1E0D0E0219739F0C4019D
:1013E00063E172E00E94B008EC0193C0C801B7014C
:1013F0002FEF3FEF4FE75FE40E948017181654F07D
:10140000C801B7012FEF3FEF4FE75FEC0E943116A5
:10141000882324F4C40167E172E0E4CFC801B70176
:1014200020E030E040E050E00E94311687FD03C02C
:10143000C0E0D0E00EC0D401ED91FC910190F081AC
:10144000E02DC4016DE20995EC0117FB109517F929
:10145000109520E030E040E05FE3DD240BC0CA01DE
:10146000B90120E030E040E251E40E9435169B01D2
:10147000AC01D394D71498F3C801B7010E94CD15DD
:101480005B016C010E94A2167B018C01C401B801B2
:10149000A7012AE030E00E943009C80FD91F772049
:1014A00039F0C4016BE172E00E94B008C80FD91F87
:1014B000C801B7010E94CE169B01AC01C601B5015F
:1014C0000E94CC1524C020E030E040E251E40E94AC
:1014D00084177B018C010E949D165B016C01CC245A
:1014E000B7FCC094DC2CC401B601A5012AE030E0B1
:1014F0000E943F09C80FD91FC601B5010E94D0162E
:101500009B01AC01C801B7010E94CC157A947720E9
:10151000D1F6CE01DF91CF911F910F91FF90EF9007
:10152000DF90CF90BF90AF909F908F907F90089565
:101530000E94B4090895EF92FF920F931F937C01CC
:101540000E94B4098C01C7010E949008080F191F5E
:10155000C8011F910F91FF90EF900895EF92FF92B5
:101560000F931F937C010E94B0088C01C7010E9459
:101570009008080F191FC8011F910F91FF90EF905D
:101580000895282F809168048823D1F057FF1CC04C
:1015900017C085B1807485B9909367048091F1007C
:1015A0008193E217F307A9F74115510539F08091AE
:1015B000F200882319F48BE68093E800AFBF02C0E5
:1015C0004FEF5FEFCA010895AFB7F89427702093EB
:1015D000E9008091F200282F30E0241735070CF441
:1015E000A901FB019B01240F311D94E6DACFDF93A3
:1015F000CF930F92CDB7DEB7BE016F5F7F4F41E053
:1016000050E00E94C10A019719F02FEF3FEF03C08D
:101610008981282F30E0C9010F90CF91DF91089583
:10162000FF920F931F93F82E142F052F40916B04F8
:1016300050916C04212F302FC901DC01FB016EEFAA
:1016400029C0F7FE02C0949101C0908120916904E5
:1016500030916A0424173507ACF48091E800857056
:10166000E1F38091E80082FF03C02FEF3FEF17C046
:101670009093F100C90101968F739070892B11F43A
:101680006093E8002F5F3F4F30936A042093690412
:10169000119731961097A9F6812F902F9C01C901BF
:1016A0001F910F91FF9008959C018091E80082FFA7
:1016B000FCCFF901260F311D03C08091F100819309
:1016C000E217F307D1F785B1807485B984E680937A
:1016D00067048BEF8093E800CB0108958093E900C5
:1016E0008091F200882319F08AE38093E80008953E
:1016F00008951092680481E08093D70080EA809377
:10170000D80082E189BD09B400FEFDCF61E070E040
:1017100080E090E00E94271080E98093D8008CE060
:101720008093E2001092E000259A269A85B18F6D91
:1017300085B985B18F6B85B908955F926F927F925D
:101740008F929F92AF92BF92CF92DF92EF92FF92D1
:101750000F931F93CF93DF93E82E842E752E8091E5
:101760006804882371F18B01242F352FC901EC0106
:101770007AEFF72E67E0962E9E2050E4552E8E2DA0
:1017800090E040E2A42EB12CA822B9223AE3632EC5
:1017900020E4C22ED12CC822D92258C09FB7F89479
:1017A0009092E9008091E80085FD02C020E004C02D
:1017B0008091F200252D281B9FBF222361F4FA940B
:1017C00019F42FEF3FEF4FC061E070E080E090E050
:1017D0000E9427103BC0822F90E0C817D9070CF455
:1017E0002C2FC21BD1094FB7F8949092E900A11495
:1017F000B10421F406C01092F10021502223D9F740
:1018000019C0E7FC03C0F801922F10C0C801322FA5
:1018100006C0FC010196E491E093F10031503323BE
:10182000C1F706C081918093F10091509923D1F7BF
:10183000020F111D8091E80085FF05C0209729F453
:10184000C114D10411F06092E8004FBF209709F055
:10185000A5CF85B1807285B984E680936604282D72
:10186000372DC9019C01C901DF91CF911F910F91C3
:10187000FF90EF90DF90CF90BF90AF909F908F90B0
:101880007F906F905F9008951F920F920FB60F9206
:1018900011242F933F934F935F936F937F938F9375
:1018A0009F93AF93BF93EF93FF938091E1001092CA
:1018B000E100982F83FF0FC01092E90081E0809330
:1018C000EB001092EC0082E38093ED00109268042C
:1018D00088E08093F00092FF38C083E08093E900B5
:1018E0008091F200882319F08AE38093E8008FB793
:1018F000F89492E09093E9009091F2008FBF9923C1
:1019000021F088E594E00E94DE0780916604882338
:1019100061F0809166048150809366048091660432
:10192000882319F485B18F6D85B980916704882368
:1019300061F080916704815080936704809167040F
:10194000882319F485B18F6B85B9FF91EF91BF9111
:10195000AF919F918F917F916F915F914F913F9147
:101960002F910F900FBE0F901F9018950F931F93FC
:10197000DF93CF930F92CDB7DEB719828E010F5F41
:101980001F4FC8010E940408C8010E94C015898128
:1019900090E00F90CF91DF911F910F9108951F92CA
:1019A0000F920FB60F921124EF92FF921F932F9375
:1019B0003F934F935F936F937F938F939F93AF93D7
:1019C000BF93EF93FF93DF93CF93CDB7DEB76197CC
:1019D000DEBFCDBF1092E9008091E80083FF11C106
:1019E000FE0131969E01275F3F4F03C08091F100B9
:1019F0008193E217F307D1F785B1807485B984E646
:101A00008093670482EF8093E800998197FF05C077
:101A10008091E80080FFFCCF03C08EEF8093E80048
:101A2000292F30E0C90180769070892B09F0C2C05F
:101A30008A81882329F41092F1001092F100D6C017
:101A4000813009F4D3C0833009F4D0C0853049F423
:101A50008091E80080FFFCCF8B8180688093E30059
:101A6000C5C0863009F07CC01C81EF80F88412303C
:101A7000C1F51092E90010926A0410926904109264
:101A80006C0410926B040E94B60C99E0FE0139962A
:101A9000DF01292F1D922A95E9F799871A8791E08E
:101AA0009E8790E8988B9AEF998B209169043091EA
:101AB0006A04275F3F4F3C872B878D871092E90090
:101AC00010926A0410926904F0926C04E0926B0424
:101AD00080E0BF0149E050E00E94100B0E94B60C6C
:101AE00085C01092E90010926A0410926904F09285
:101AF0006C04E0926B04123241F482E290E00E94A6
:101B0000B815892B09F476C071C0113079F488E0DA
:101B1000E816F10419F481E080936D0480916D045E
:101B2000882309F06BC0ECE2F1E013C0133009F038
:101B300061C08B81882319F4EEEEF0E00AC0823098
:101B400019F4E2EFF0E005C0813009F053C0E4E1A0
:101B5000F1E0449180E8BF0150E00E94100B46C0C4
:101B6000873009F447C0883021F481E08093F10088
:101B70003DC08930D9F523703070232BD9F5E1E5CC
:101B8000F1E091E031E026E39093E9003093EB003F
:101B900084918093EC002093ED009F5F3196953007
:101BA00099F78EE78093EA001092EA008B81809388
:101BB00068041CC08F8198851092E90010926A0415
:101BC0001092690490936C0480936B048D81882338
:101BD00029F4CE0101960E94100806C0823051F40B
:101BE000CE0101960E948914882321F08EEF809304
:101BF000E80007C081E28093EB0003C0EEE3F1E070
:101C0000A8CF6196DEBFCDBFCF91DF91FF91EF915D
:101C1000BF91AF919F918F917F916F915F914F9104
:101C20003F912F911F91FF90EF900F900FBE0F905B
:101C30001F901895DC01FB0114968D919C911597CE
:101C4000892B31F461157105A9F090E0808108C0FD
:101C50000D90BC91A02D6115710529F490E08C9137
:101C6000882349F407C0CD010E94A8019C0190E09F
:101C7000232B09F491E0892F0895FC01DB011496D0
:101C80002D913C91159784819581821B930B84172C
:101C90009507A0F080819181009781F06D917C91F2
:101CA0006115710559F0840F951FA9010E94B801B3
:101CB0009C0180E0232B19F481E0089580E00895D1
:101CC000FC01DB012481358114968D919C9115973F
:101CD0002817390710F480E00895CF0140E050E064
:101CE0000E943D0E08950F931F93CF93DF93EC0155
:101CF0008B016F5F7F4F888199810E94A8130097A5
:101D000011F480E005C0998388831B830A8381E0F6
:101D1000DF91CF911F910F910895CF93DF93EC0145
:101D200088819981892B29F08A819B818617970761
:101D300060F4CE010E94730E882341F08C819D8156
:101D4000892B19F4E881F981108281E0DF91CF912C
:101D50000895EF92FF920F931F93CF93DF93EC01BF
:101D60007B016C817D81E114F104C1F041155105C5
:101D700099F08A01060F171FB8010E948D0E882363
:101D800069F0888199812C813D81820F931FB70171
:101D90000E94B1011D830C8381E001C080E0DF91CE
:101DA000CF911F910F91FF90EF900895DF93CF9304
:101DB00000D0CDB7DEB769831A82BE016F5F7F4F57
:101DC00041E050E00E94A90E0F900F90CF91DF915B
:101DD0000895CF93DF93EC0188819981009711F0EA
:101DE0000E941013198218821D821C821B821A8283
:101DF000DF91CF910895EF92FF920F931F93CF93AE
:101E0000DF93EC017B018A01BA010E948D0E8823C9
:101E100021F4CE010E94E90E07C01D830C83888146
:101E20009981B7010E94B101CE01DF91CF911F913D
:101E30000F91FF90EF900895CF93DF93EC011982FB
:101E400018821B821A821D821C821E8261157105F6
:101E500051F0DB010D900020E9F71197A61BB70B9D
:101E6000AD010E94FB0EDF91CF9108950F931F9358
:101E7000182F092F6115710559F0DB010D90002015
:101E8000E9F71197A61BB70BAD010E94FB0E02C02C
:101E90000E94E90E812F902F1F910F910895BF92FC
:101EA000CF92DF92EF92FF920F931F93CF93DF9326
:101EB000082FB92E6B017A01E9012417350710F4B8
:101EC000EA017901802F9B2D6DE172E00E941C0FC9
:101ED000D60114968D919C9115978E159F05D0F083
:101EE0008C179D0708F4EC01D601ED91FC91119738
:101EF000EC0FFD1F108110826D917C916E0D7F1D86
:101F0000802F9B2D0E94360FD601ED91FC91EC0F96
:101F1000FD1F1083802F9B2DDF91CF911F910F917B
:101F2000FF90EF90DF90CF90BF900895CF93DF9315
:101F3000EC01FB018617970761F0608171816115E3
:101F4000710529F0448155810E94FB0E02C00E9458
:101F5000E90ECE01DF91CF910895FC01118210822C
:101F6000138212821582148216820E94960F08959F
:101F7000FC01808191810E9410130895CF93DF931B
:101F80000E9480108EE694E00E94790B0E94030765
:101F9000C0E0D0E00E94A0052097E1F30E9400007D
:101FA000F9CF1F920F920FB60F9211242F933F93E8
:101FB0008F939F93AF93BF93809173049091740418
:101FC000A0917504B0917604309177040196A11D1B
:101FD000B11D232F2D5F2D3720F02D570196A11D08
:101FE000B11D209377048093730490937404A0939D
:101FF0007504B093760480916F0490917004A09161
:102000007104B09172040196A11DB11D80936F04FB
:1020100090937004A0937104B0937204BF91AF9138
:102020009F918F913F912F910F900FBE0F901F9016
:1020300018958FB7F89420917304309174044091EF
:102040007504509176048FBFB901CA0108959B01B0
:10205000AC017FB7F89480916F0490917004A091C7
:102060007104B091720466B5A89B05C06F3F19F06A
:102070000196A11DB11D7FBFBA2FA92F982F8827C8
:10208000860F911DA11DB11D62E0880F991FAA1F27
:10209000BB1F6A95D1F7BC012DC0FFB7F8948091A2
:1020A0006F0490917004A0917104B0917204E6B530
:1020B000A89B05C0EF3F19F00196A11DB11DFFBF00
:1020C000BA2FA92F982F88278E0F911DA11DB11D02
:1020D000E2E0880F991FAA1FBB1FEA95D1F7861B64
:1020E000970B885E9340C8F22150304040405040EA
:1020F00068517C4F211531054105510571F6089550
:10210000789484B5826084BD84B5816084BD85B5D2
:10211000826085BD85B5816085BDEEE6F0E0808199
:1021200081608083E1E8F0E01082808182608083BA
:10213000808181608083E0E8F0E08081816080833D
:10214000E1E9F0E08081826080838081816080832A
:10215000E0E9F0E0808181608083E1ECF0E0808163
:1021600084608083808182608083808181608083BD
:10217000E3ECF0E0808181608083E0ECF0E080813E
:1021800082608083E2ECF0E0808181608083EAE716
:10219000F0E08081846080838081826080838081A0
:1021A000816080838081806880830895823108F017
:1021B0008251E82FF0E0E752FE4FE49120917B003E
:1021C0008E2F86958695869590E08170907035E08B
:1021D000880F991F3A95E1F72F7D282B20937B00DC
:1021E000E770809134028295880F880F807C8E2B57
:1021F00080937C0080917A00806480937A00809143
:102200007A0086FDFCCF2091780040917900942FD0
:1022100080E030E0282B392BC90108951F93CF931C
:10222000DF93182FEB0161E00E94B311209709F4AE
:102230008FC0CF3FD10509F48EC0E12FF0E0E55407
:10224000FE4F8491883009F440C0893070F48230A8
:1022500019F1833020F4813009F077C018C0833041
:1022600001F1843009F071C026C08B3009F44BC0F5
:102270008C3030F4893099F18A3009F066C039C069
:102280008C3009F44DC08E3009F05FC051C084B568
:10229000806884BDC7BD63C084B5806284BDC8BD8D
:1022A0005EC080918000806880938000D093890018
:1022B000C093880054C08091800080628093800029
:1022C000D0938B00C0938A004AC0809190008068B0
:1022D00080939000D0939900C093980040C0809163
:1022E0009000806280939000D0939B00C0939A00EE
:1022F00036C080919000886080939000D0939D00BC
:10230000C0939C002CC08091C00080688093C00066
:102310008091C0008F7B8093C000C093CF001FC00E
:102320008091C00080628093C000C093D00017C02D
:102330008091C20088608093C2008091C2008B7F30
:102340008093C200C093D2000AC0C038D1051CF4EB
:10235000812F60E002C0812F61E00E944012DF9176
:10236000CF911F910895CF93DF93482F50E0CA017A
:1023700083569E4FFC01349141585E4FFA0184917F
:10238000882369F190E0880F991FFC01EB5AFE4FFA
:10239000A591B491FC01ED59FE4FC591D4916623EE
:1023A00051F42FB7F8948C91932F909589238C93A7
:1023B000888189230BC0623061F42FB7F8948C9127
:1023C000932F909589238C938881832B88832FBFAB
:1023D00006C09FB7F8948C91832B8C939FBFDF919D
:1023E000CF910895883071F1893068F4823031F1ED
:1023F000833020F4813009F042C01DC0833089F061
:102400008430E9F512C08B3059F18C3028F48930D2
:10241000E9F08A30A1F51EC08C3031F18E3079F5AB
:1024200029C0809180008F7703C0809180008F7DCC
:1024300080938000089584B58F7702C084B58F7D26
:1024400084BD0895809190008F7707C0809190009F
:102450008F7D03C080919000877F809390000895C6
:102460008091C0008F7703C08091C0008F7D8093E2
:10247000C00008958091C200877F8093C2000895B4
:10248000FF920F931F93F62E482F50E0CA018554F8
:102490009E4FFC012491CA0183569E4FFC0114916A
:1024A00041585E4FFA0104910023C9F0222319F02C
:1024B000822F0E94F211E02FF0E0EE0FFF1FED5986
:1024C000FE4FA591B4919FB7F894FF2021F48C9111
:1024D0001095812302C08C91812B8C939FBF1F91FB
:1024E0000F91FF9008950F931F93CF93DF93BC013B
:1024F0008230910510F462E070E0E0918704F09181
:10250000880440E050E0A0E0B0E024C080819181E8
:1025100086179707D0F08617970771F48281938109
:10252000109729F013969C938E9312972CC090933A
:1025300088048093870427C04115510519F084173A
:10254000950718F48D01AC01EF01DF0182819381C1
:102550009C01F9013097D1F641155105F9F0CA01F6
:10256000861B970B8430910580F48A819B8101152D
:10257000110521F0F8019383828304C090938804AD
:1025800080938704FE01329645C0FE01E80FF91FD3
:10259000619371930297998388833CC080918504ED
:1025A00090918604892B41F48091370290913802F2
:1025B00090938604809385044091390250913A02A9
:1025C0004115510541F44DB75EB7809135029091A8
:1025D0003602481B590B209185043091860424173C
:1025E0003507B0F4CA01821B930B8617970780F05A
:1025F000AB014E5F5F4F8417950750F0420F531F9A
:102600005093860440938504F9016193719302C04D
:10261000E0E0F0E0CF01DF91CF911F910F9108959D
:10262000CF93DF939C01009709F48FC0EC012297B0
:102630001B821A826091870470918804611571056C
:1026400081F488819981820F931F209185043091B4
:1026500086042817390739F5D0938604C09385047A
:1026600074C0DB0140E050E0AC17BD0708F1BB834C
:10267000AA83FE0121913191E20FF31FAE17BF072C
:1026800079F48D919C911197280F391F2E5F3F4F40
:102690003983288312968D919C9113979B838A830B
:1026A0004115510571F4D0938804C09387044DC03F
:1026B00012968D919C911397AD01009711F0DC015A
:1026C000D3CFDA011396DC93CE931297FA012191BE
:1026D0003191E20FF31FCE17DF0769F488819981EA
:1026E000280F391F2E5F3F4FFA01318320838A81E3
:1026F0009B8193838283E0E0F0E0DB0112968D9171
:102700009C911397009719F0BC01FD01F6CFAB0126
:102710004E5F5F4FDB018D919C91840F951F20913F
:102720008504309186042817390779F4309729F405
:10273000109288041092870402C0138212824250C1
:1027400050405093860440938504DF91CF910895C3
:102750006F927F928F929F92AF92BF92CF92DF92B1
:10276000EF92FF920F931F93CF93DF938C0100970B
:1027700029F4CB010E9473128C01BBC08EEFE82EAE
:102780008FEFF82EE00EF11E4801860E971E8E1474
:102790009F0408F4ACC0D7014D915C911197461786
:1027A0005707B8F04530510508F4A3C0CA01049793
:1027B0008617970708F49DC042505040461B570BA0
:1027C000F401419351936D937C93CF010E941013B8
:1027D00090C05B01A41AB50A3801640E751EA09161
:1027E0008704B0918804E0E0F0E0CC24DD2447C009
:1027F000A615B705A9F5CD91DC911197CE010296EA
:102800008A159B0568F1CE018A199B0902961296DA
:102810002C91129713963C91059758F0F40122835E
:102820003383CA19DB09D183C083D7016D937C93AD
:1028300009C04E5F5F4F4C0F5D1FF701518340830E
:10284000C901FC01C114D10431F0D6011396FC93E7
:10285000EE9312974EC0F0938804E093870449C02A
:102860008D919C911197E817F90708F4FC016D010F
:1028700012968C91129713969C919C01D9011097F6
:1028800009F0B6CF8091850490918604861597054E
:10289000E9F4E617F707D0F42091390230913A02B3
:1028A0002115310541F42DB73EB780913502909145
:1028B0003602281B390B82169306C8F490928604C0
:1028C00080928504F7017183608313C0CB010E945D
:1028D0007312EC01009759F0D7014D915C91B8014A
:1028E0000E949F01C8010E9410138E0102C000E0E7
:1028F00010E0C801DF91CF911F910F91FF90EF90F1
:10290000DF90CF90BF90AF909F908F907F906F900F
:102910000895FC0191818081813A31F4913089F0F0
:1029200080E0933089F40DC0813269F49B3021F44A
:10293000828180933B0205C09A3029F48281809382
:102940003C0281E0089580E00895EF92FF920F939A
:102950001F938C01E62EDC01ED91FC910480F58142
:10296000E02D0995F82ED801ED91FC910680F781B4
:10297000E02DC8016E2D09958F2D90E01F910F91CC
:10298000FF90EF9008951092780410927C041092BA
:102990007B0483E592E090937A0480937904089510
:1029A000EF92FF920F931F93DF93CF930F92CDB7C8
:1029B000DEB789838B017A0184E0BE016F5F7F4FB0
:1029C00041E050E00E949D0B84E4B801A7010E9401
:1029D0009D0B0F90CF91DF911F910F91FF90EF9082
:1029E000089582E048E050E00E94D0140895FC0170
:1029F00016821782108611861286138614823496E8
:102A0000BF010E94F1140895DC01683810F0685885
:102A100029C0E62FF0E067FF13C0E058F04081E0E6
:102A200090E002C0880F991FEA95E2F7809514960E
:102A30002C911497282314962C93149760E012C0BD
:102A4000ED59FD4F6491662319F420E030E01DC07C
:102A500067FF08C014968C9114978D7F14968C9301
:102A600014976F77FD0190E0662321F08681861729
:102A700009F416829F5F31969630B1F7CD01149616
:102A8000BD010E94F11421E030E0C9010895CF9307
:102A9000DF93DC01683810F0685825C0E62FF0E0BD
:102AA00067FF12C0E058F04081E090E002C0880F5C
:102AB000991FEA95E2F714962C911497282B1496F7
:102AC0002C93149760E00FC0ED59FD4F649166237D
:102AD000D9F167FF08C014968C9114978260149600
:102AE0008C9314976F7716968C9116978617A9F189
:102AF00017968C911797861781F118968C911897D5
:102B0000861759F119968C911997861731F11A96F3
:102B10008C911A97861709F11B968C911B97861733
:102B2000E1F0ED01E0E0F0E09E2F8E81882321F4BA
:102B3000EA0FFB1F668306C09F5F31962196E63041
:102B4000F10591F7963049F481E090E013969C935B
:102B50008E93129720E030E007C0CD011496BD019E
:102B60000E94F11421E030E0C901DF91CF91089576
:102B700080E865EE71E045E650E00E94100B089594
:102B8000FC0180818F5F808380E86AE472E049E124
:102B900050E00E94100B08955058BB27AA270ED072
:102BA00075C166D130F06BD120F031F49F3F11F444
:102BB0001EF45BC10EF4E095E7FB51C1E92F77D11C
:102BC00080F3BA17620773078407950718F071F44A
:102BD0009EF58FC10EF4E0950B2EBA2FA02D0B01A0
:102BE000B90190010C01CA01A0011124FF27591B52
:102BF00099F0593F50F4503E68F11A16F040A22F58
:102C0000232F342F4427585FF3CF469537952795C8
:102C1000A795F0405395C9F77EF41F16BA0B620BC7
:102C2000730B840BBAF09150A1F0FF0FBB1F661F0E
:102C3000771F881FC2F70EC0BA0F621F731F841F51
:102C400048F4879577956795B795F7959E3F08F077
:102C5000B3CF9395880F08F09927EE0F9795879536
:102C60000895D9D008F481E008950CD00FC107D1A0
:102C700040F0FED030F021F45F3F19F0F0C0511168
:102C800039C1F3C014D198F39923C9F35523B1F393
:102C9000951B550BBB27AA2762177307840738F0CB
:102CA0009F5F5F4F220F331F441FAA1FA9F333D02A
:102CB0000E2E3AF0E0E830D091505040E695001CDE
:102CC000CAF729D0FE2F27D0660F771F881FBB1F9A
:102CD000261737074807AB07B0E809F0BB0B802D74
:102CE000BF01FF2793585F4F2AF09E3F510568F0C0
:102CF000B6C000C15F3FECF3983EDCF38695779554
:102D00006795B795F7959F5FC9F7880F911D9695C1
:102D1000879597F90895E1E0660F771F881FBB1F1D
:102D2000621773078407BA0720F0621B730B840BCA
:102D3000BA0BEE1F88F7E095089504D06894B1119E
:102D4000D9C00895BCD088F09F5790F0B92F99272B
:102D5000B751A0F0D1F0660F771F881F991F1AF0A6
:102D6000BA95C9F712C0B13081F0C3D0B1E008956F
:102D7000C0C0672F782F8827B85F39F0B93FCCF3F0
:102D8000869577956795B395D9F73EF4909580959C
:102D9000709561957F4F8F4F9F4F0895E89409C0BC
:102DA00097FB3EF490958095709561957F4F8F4F7E
:102DB0009F4F9923A9F0F92F96E9BB279395F69594
:102DC000879577956795B795F111F8CFFAF4BB0F12
:102DD00011F460FF1BC06F5F7F4F8F4F9F4F16C076
:102DE000882311F096E911C0772321F09EE8872F00
:102DF000762F05C0662371F096E8862F70E060E0BC
:102E00002AF09A95660F771F881FDAF7880F969534
:102E1000879597F90895990F0008550FAA0BE0E8D8
:102E2000FEEF16161706E807F907C0F0121613068C
:102E3000E407F50798F0621B730B840B950B39F4CC
:102E40000A2661F0232B242B252B21F408950A2632
:102E500009F4A140A6958FEF811D811D089597F972
:102E60009F6780E870E060E008959FEF80EC089530
:102E700000240A9416161706180609060895002459
:102E80000A9412161306140605060895092E0394D3
:102E9000000C11F4882352F0BB0F40F4BF2B11F447
:102EA00060FF04C06F5F7F4F8F4F9F4F089557FDA6
:102EB0009058440F551F59F05F3F71F04795880FA8
:102EC00097FB991F61F09F3F79F08795089512163F
:102ED00013061406551FF2CF4695F1DF08C01616EB
:102EE00017061806991FF1CF86957105610508949C
:102EF0000895E894BB2766277727CB0197F90895B3
:102F00008ADF08F48FEF08950BD0C0CFB1DF28F02F
:102F1000B6DF18F0952309F0A2CFA7CF1124EACF8E
:102F2000C6DFA0F3959FD1F3950F50E0551F629F28
:102F3000F001729FBB27F00DB11D639FAA27F00D12
:102F4000B11DAA1F649F6627B00DA11D661F829F39
:102F50002227B00DA11D621F739FB00DA11D621F1E
:102F6000839FA00D611D221F749F3327A00D611D3B
:102F7000231F849F600D211D822F762F6A2F11241D
:102F80009F5750408AF0E1F088234AF0EE0FFF1F70
:102F9000BB1F661F771F881F91505040A9F79E3FA7
:102FA000510570F05CCFA6CF5F3FECF3983EDCF3A9
:102FB000869577956795B795F795E7959F5FC1F7E4
:102FC000FE2B880F911D9695879597F9089523DF1D
:102FD000880B990B0895629FD001739FF001829F27
:102FE000E00DF11D649FE00DF11D929FF00D839F98
:102FF000F00D749FF00D659FF00D9927729FB00D35
:10300000E11DF91F639FB00DE11DF91FBD01CF0147
:1030100011240895A1E21A2EAA1BBB1BFD010DC0AD
:10302000AA1FBB1FEE1FFF1FA217B307E407F50778
:1030300020F0A21BB30BE40BF50B661F771F881F54
:10304000991F1A9469F760957095809590959B01EA
:10305000AC01BD01CF01089597FB092E05260ED0C6
:1030600057FD04D0D7DF0AD0001C38F450954095A6
:10307000309521953F4F4F4F5F4F0895F6F790954C
:103080008095709561957F4F8F4F9F4F0895EE0FFC
:10309000FF1F0590F491E02D09942F923F924F92DB
:1030A0005F926F927F928F929F92AF92BF92CF92D8
:1030B000DF92EF92FF920F931F93CF93DF93CDB7E1
:1030C000DEB7CA1BDB0B0FB6F894DEBF0FBECDBF59
:1030D00009942A88398848885F846E847D848C842A
:1030E0009B84AA84B984C884DF80EE80FD800C8133
:1030F0001B81AA81B981CE0FD11D0FB6F894DEBF16
:0C3100000FBECDBFED010895F894FFCF85
:10310C0070485261773A2000207C200070483A20A9
:10311C00004D696C6C69766F6C74733A20004C6569
:10312C006F50686920496E666F3A204669726D77F8
:10313C0061726520566572200070482037206361EB
:10314C006C3A2000704820342063616C3A20007087
:10315C00482031302063616C3A2000704820707236
:10316C006F626520736C6F70653A20004C00300004
:10317C00537461747573206C6564206F66660031DE
:10318C0000537461747573206C6564206F6E00520B
:10319C00004300436F6E74696E756F7573205265D2
:1031AC006164696E67204F6E004500436F6E7469F1
:1031BC006E756F75732052656164696E67204F661A
:1031CC006600530043616C6962726174652037005C
:1031DC00460043616C69627261746520340054006E
:1031EC0043616C696272617465203130004900582A
:1031FC00005265736574696E6720746F2064656630
:10320C0061756C742073657474696E677300006EFD
:10321C00616E00696E66006F7666002E00001A0003
:10322C000A000B0009000500E803140000E100008F
:10323C000000000001800089040000010100000072
:10324C0000B2076608510778075F07DA07DE070048
:0E325C00000000A514660847150415F71400BD
:00000001FF

